{
  "contractName": "NFTmarketplace",
  "abi": [
    {
      "inputs": [],
      "stateMutability": "nonpayable",
      "type": "constructor"
    },
    {
      "anonymous": false,
      "inputs": [
        {
          "indexed": true,
          "internalType": "uint256",
          "name": "itemId",
          "type": "uint256"
        },
        {
          "indexed": true,
          "internalType": "address",
          "name": "nftContracts",
          "type": "address"
        },
        {
          "indexed": true,
          "internalType": "uint256",
          "name": "tokenId",
          "type": "uint256"
        },
        {
          "indexed": false,
          "internalType": "address",
          "name": "seller",
          "type": "address"
        },
        {
          "indexed": false,
          "internalType": "address",
          "name": "owner",
          "type": "address"
        },
        {
          "indexed": false,
          "internalType": "uint256",
          "name": "price",
          "type": "uint256"
        },
        {
          "indexed": false,
          "internalType": "bool",
          "name": "sold",
          "type": "bool"
        }
      ],
      "name": "MarketItemCreated",
      "type": "event"
    },
    {
      "inputs": [
        {
          "internalType": "uint256",
          "name": "",
          "type": "uint256"
        }
      ],
      "name": "idMarketItem",
      "outputs": [
        {
          "internalType": "uint256",
          "name": "itemId",
          "type": "uint256"
        },
        {
          "internalType": "address",
          "name": "nftContracts",
          "type": "address"
        },
        {
          "internalType": "uint256",
          "name": "tokenId",
          "type": "uint256"
        },
        {
          "internalType": "address payable",
          "name": "seller",
          "type": "address"
        },
        {
          "internalType": "address payable",
          "name": "owner",
          "type": "address"
        },
        {
          "internalType": "uint256",
          "name": "price",
          "type": "uint256"
        },
        {
          "internalType": "bool",
          "name": "sold",
          "type": "bool"
        }
      ],
      "stateMutability": "view",
      "type": "function",
      "constant": true
    },
    {
      "inputs": [],
      "name": "owner",
      "outputs": [
        {
          "internalType": "address payable",
          "name": "",
          "type": "address"
        }
      ],
      "stateMutability": "view",
      "type": "function",
      "constant": true
    },
    {
      "inputs": [],
      "name": "getListingPrice",
      "outputs": [
        {
          "internalType": "uint256",
          "name": "",
          "type": "uint256"
        }
      ],
      "stateMutability": "view",
      "type": "function",
      "constant": true
    },
    {
      "inputs": [],
      "name": "marketItemCont",
      "outputs": [
        {
          "internalType": "uint256",
          "name": "",
          "type": "uint256"
        }
      ],
      "stateMutability": "view",
      "type": "function",
      "constant": true
    },
    {
      "inputs": [
        {
          "internalType": "address",
          "name": "nftContract",
          "type": "address"
        },
        {
          "internalType": "uint256",
          "name": "tokenId",
          "type": "uint256"
        },
        {
          "internalType": "uint256",
          "name": "price",
          "type": "uint256"
        }
      ],
      "name": "createMarketplace",
      "outputs": [],
      "stateMutability": "payable",
      "type": "function",
      "payable": true
    },
    {
      "inputs": [
        {
          "internalType": "address",
          "name": "nftContract",
          "type": "address"
        },
        {
          "internalType": "uint256",
          "name": "Id",
          "type": "uint256"
        },
        {
          "internalType": "uint256",
          "name": "price",
          "type": "uint256"
        }
      ],
      "name": "sellMarketplace",
      "outputs": [],
      "stateMutability": "payable",
      "type": "function",
      "payable": true
    },
    {
      "inputs": [
        {
          "internalType": "address",
          "name": "nftContract",
          "type": "address"
        },
        {
          "internalType": "uint256",
          "name": "ItemId",
          "type": "uint256"
        }
      ],
      "name": "creatMarketSales",
      "outputs": [],
      "stateMutability": "payable",
      "type": "function",
      "payable": true
    },
    {
      "inputs": [],
      "name": "fetchMarketItems",
      "outputs": [
        {
          "components": [
            {
              "internalType": "uint256",
              "name": "itemId",
              "type": "uint256"
            },
            {
              "internalType": "address",
              "name": "nftContracts",
              "type": "address"
            },
            {
              "internalType": "uint256",
              "name": "tokenId",
              "type": "uint256"
            },
            {
              "internalType": "address payable",
              "name": "seller",
              "type": "address"
            },
            {
              "internalType": "address payable",
              "name": "owner",
              "type": "address"
            },
            {
              "internalType": "uint256",
              "name": "price",
              "type": "uint256"
            },
            {
              "internalType": "bool",
              "name": "sold",
              "type": "bool"
            }
          ],
          "internalType": "struct NFTmarketplace.MarketItem[]",
          "name": "",
          "type": "tuple[]"
        }
      ],
      "stateMutability": "view",
      "type": "function",
      "constant": true
    },
    {
      "inputs": [],
      "name": "fetchMyNFTs",
      "outputs": [
        {
          "components": [
            {
              "internalType": "uint256",
              "name": "itemId",
              "type": "uint256"
            },
            {
              "internalType": "address",
              "name": "nftContracts",
              "type": "address"
            },
            {
              "internalType": "uint256",
              "name": "tokenId",
              "type": "uint256"
            },
            {
              "internalType": "address payable",
              "name": "seller",
              "type": "address"
            },
            {
              "internalType": "address payable",
              "name": "owner",
              "type": "address"
            },
            {
              "internalType": "uint256",
              "name": "price",
              "type": "uint256"
            },
            {
              "internalType": "bool",
              "name": "sold",
              "type": "bool"
            }
          ],
          "internalType": "struct NFTmarketplace.MarketItem[]",
          "name": "",
          "type": "tuple[]"
        }
      ],
      "stateMutability": "view",
      "type": "function",
      "constant": true
    }
  ],
  "bytecode": "0x60806040526658d15e1762800060045534801561001b57600080fd5b50600160008190555033600360006101000a81548173ffffffffffffffffffffffffffffffffffffffff021916908373ffffffffffffffffffffffffffffffffffffffff160217905550611af1806100746000396000f3fe6080604052600436106100865760003560e01c8063202e374011610059578063202e374014610140578063316c994a1461016b57806342968c0b14610196578063864325e1146101b25780638da5cb5b146101ce57610086565b8063087ae8a21461008b5780630f08efe0146100ce57806312e85585146100f95780631dbcf67a14610124575b600080fd5b34801561009757600080fd5b506100b260048036038101906100ad919061138e565b6101f9565b6040516100c59796959493929190611842565b60405180910390f35b3480156100da57600080fd5b506100e36102a8565b6040516100f09190611765565b60405180910390f35b34801561010557600080fd5b5061010e610583565b60405161011b9190611827565b60405180910390f35b61013e6004803603810190610139919061133f565b61058d565b005b34801561014c57600080fd5b506101556108f1565b6040516101629190611765565b60405180910390f35b34801561017757600080fd5b50610180610c8b565b60405161018d9190611827565b60405180910390f35b6101b060048036038101906101ab9190611303565b610ca1565b005b6101cc60048036038101906101c7919061133f565b610fff565b005b3480156101da57600080fd5b506101e361120e565b6040516101f091906116ce565b60405180910390f35b60056020528060005260406000206000915090508060000154908060010160009054906101000a900473ffffffffffffffffffffffffffffffffffffffff16908060020154908060030160009054906101000a900473ffffffffffffffffffffffffffffffffffffffff16908060040160009054906101000a900473ffffffffffffffffffffffffffffffffffffffff16908060050154908060060160009054906101000a900460ff16905087565b606060006102b66001611234565b905060006102c46002611234565b6102ce6001611234565b6102d89190611951565b90506000808267ffffffffffffffff81111561031d577f4e487b7100000000000000000000000000000000000000000000000000000000600052604160045260246000fd5b60405190808252806020026020018201604052801561035657816020015b610343611258565b81526020019060019003908161033b5790505b50905060005b8481101561057857600015156005600060018461037991906118fb565b815260200190815260200160002060060160009054906101000a900460ff16151514156105655760006001826103af91906118fb565b90506000600560008381526020019081526020016000209050806040518060e0016040529081600082015481526020016001820160009054906101000a900473ffffffffffffffffffffffffffffffffffffffff1673ffffffffffffffffffffffffffffffffffffffff1673ffffffffffffffffffffffffffffffffffffffff168152602001600282015481526020016003820160009054906101000a900473ffffffffffffffffffffffffffffffffffffffff1673ffffffffffffffffffffffffffffffffffffffff1673ffffffffffffffffffffffffffffffffffffffff1681526020016004820160009054906101000a900473ffffffffffffffffffffffffffffffffffffffff1673ffffffffffffffffffffffffffffffffffffffff1673ffffffffffffffffffffffffffffffffffffffff168152602001600582015481526020016006820160009054906101000a900460ff161515151581525050848681518110610548577f4e487b7100000000000000000000000000000000000000000000000000000000600052603260045260246000fd5b602002602001018190525060018561056091906118fb565b945050505b808061057090611a15565b91505061035c565b508094505050505090565b6000600454905090565b600260005414156105d3576040517f08c379a00000000000000000000000000000000000000000000000000000000081526004016105ca906117c7565b60405180910390fd5b60026000819055506000811161061e576040517f08c379a0000000000000000000000000000000000000000000000000000000008152600401610615906117e7565b60405180910390fd5b6004543414610662576040517f08c379a000000000000000000000000000000000000000000000000000000000815260040161065990611787565b60405180910390fd5b61066c6001611242565b60006106786001611234565b90506040518060e001604052808281526020018573ffffffffffffffffffffffffffffffffffffffff1681526020018481526020013373ffffffffffffffffffffffffffffffffffffffff168152602001600073ffffffffffffffffffffffffffffffffffffffff16815260200183815260200160001515815250600560008381526020019081526020016000206000820151816000015560208201518160010160006101000a81548173ffffffffffffffffffffffffffffffffffffffff021916908373ffffffffffffffffffffffffffffffffffffffff1602179055506040820151816002015560608201518160030160006101000a81548173ffffffffffffffffffffffffffffffffffffffff021916908373ffffffffffffffffffffffffffffffffffffffff16021790555060808201518160040160006101000a81548173ffffffffffffffffffffffffffffffffffffffff021916908373ffffffffffffffffffffffffffffffffffffffff16021790555060a0820151816005015560c08201518160060160006101000a81548160ff0219169083151502179055509050508373ffffffffffffffffffffffffffffffffffffffff166323b872dd3330866040518463ffffffff1660e01b81526004016108599392919061172e565b600060405180830381600087803b15801561087357600080fd5b505af1158015610887573d6000803e3d6000fd5b50505050828473ffffffffffffffffffffffffffffffffffffffff16827f045dfa01dcba2b36aba1d3dc4a874f4b0c5d2fbeb8d2c4b34a7d88c8d8f929d13360008760006040516108db94939291906116e9565b60405180910390a4506001600081905550505050565b606060006108ff6001611234565b905060008060005b838110156109a8573373ffffffffffffffffffffffffffffffffffffffff166005600060018461093791906118fb565b815260200190815260200160002060040160009054906101000a900473ffffffffffffffffffffffffffffffffffffffff1673ffffffffffffffffffffffffffffffffffffffff1614156109955760018361099291906118fb565b92505b80806109a090611a15565b915050610907565b5060008267ffffffffffffffff8111156109eb577f4e487b7100000000000000000000000000000000000000000000000000000000600052604160045260246000fd5b604051908082528060200260200182016040528015610a2457816020015b610a11611258565b815260200190600190039081610a095790505b50905060005b84811015610c80573373ffffffffffffffffffffffffffffffffffffffff1660056000600184610a5a91906118fb565b815260200190815260200160002060040160009054906101000a900473ffffffffffffffffffffffffffffffffffffffff1673ffffffffffffffffffffffffffffffffffffffff161415610c6d576000600182610ab791906118fb565b90506000600560008381526020019081526020016000209050806040518060e0016040529081600082015481526020016001820160009054906101000a900473ffffffffffffffffffffffffffffffffffffffff1673ffffffffffffffffffffffffffffffffffffffff1673ffffffffffffffffffffffffffffffffffffffff168152602001600282015481526020016003820160009054906101000a900473ffffffffffffffffffffffffffffffffffffffff1673ffffffffffffffffffffffffffffffffffffffff1673ffffffffffffffffffffffffffffffffffffffff1681526020016004820160009054906101000a900473ffffffffffffffffffffffffffffffffffffffff1673ffffffffffffffffffffffffffffffffffffffff1673ffffffffffffffffffffffffffffffffffffffff168152602001600582015481526020016006820160009054906101000a900460ff161515151581525050848681518110610c50577f4e487b7100000000000000000000000000000000000000000000000000000000600052603260045260246000fd5b6020026020010181905250600185610c6891906118fb565b945050505b8080610c7890611a15565b915050610a2a565b508094505050505090565b600080610c986001611234565b90508091505090565b60026000541415610ce7576040517f08c379a0000000000000000000000000000000000000000000000000000000008152600401610cde906117c7565b60405180910390fd5b6002600081905550600060056000838152602001908152602001600020600501549050600060056000848152602001908152602001600020600201549050813414610d67576040517f08c379a0000000000000000000000000000000000000000000000000000000008152600401610d5e906117a7565b60405180910390fd5b6005600084815260200190815260200160002060040160009054906101000a900473ffffffffffffffffffffffffffffffffffffffff1673ffffffffffffffffffffffffffffffffffffffff163373ffffffffffffffffffffffffffffffffffffffff161415610e0c576040517f08c379a0000000000000000000000000000000000000000000000000000000008152600401610e0390611807565b60405180910390fd5b6005600084815260200190815260200160002060030160009054906101000a900473ffffffffffffffffffffffffffffffffffffffff1673ffffffffffffffffffffffffffffffffffffffff166108fc349081150290604051600060405180830381858888f19350505050158015610e88573d6000803e3d6000fd5b508373ffffffffffffffffffffffffffffffffffffffff166323b872dd3033846040518463ffffffff1660e01b8152600401610ec69392919061172e565b600060405180830381600087803b158015610ee057600080fd5b505af1158015610ef4573d6000803e3d6000fd5b50505050336005600085815260200190815260200160002060040160006101000a81548173ffffffffffffffffffffffffffffffffffffffff021916908373ffffffffffffffffffffffffffffffffffffffff16021790555060016005600085815260200190815260200160002060060160006101000a81548160ff021916908315150217905550610f866002611242565b600360009054906101000a900473ffffffffffffffffffffffffffffffffffffffff1673ffffffffffffffffffffffffffffffffffffffff166108fc6004549081150290604051600060405180830381858888f19350505050158015610ff0573d6000803e3d6000fd5b50505060016000819055505050565b60026000541415611045576040517f08c379a000000000000000000000000000000000000000000000000000000000815260040161103c906117c7565b60405180910390fd5b600260008190555060008111611090576040517f08c379a0000000000000000000000000000000000000000000000000000000008152600401611087906117e7565b60405180910390fd5b60045434146110d4576040517f08c379a00000000000000000000000000000000000000000000000000000000081526004016110cb90611787565b60405180910390fd5b60006005600084815260200190815260200160002060020154905081600560008581526020019081526020016000206005018190555060006005600085815260200190815260200160002060060160006101000a81548160ff0219169083151502179055508373ffffffffffffffffffffffffffffffffffffffff166323b872dd3330846040518463ffffffff1660e01b81526004016111769392919061172e565b600060405180830381600087803b15801561119057600080fd5b505af11580156111a4573d6000803e3d6000fd5b50505050808473ffffffffffffffffffffffffffffffffffffffff16847f045dfa01dcba2b36aba1d3dc4a874f4b0c5d2fbeb8d2c4b34a7d88c8d8f929d13360008760006040516111f894939291906116e9565b60405180910390a4506001600081905550505050565b600360009054906101000a900473ffffffffffffffffffffffffffffffffffffffff1681565b600081600001549050919050565b6001816000016000828254019250508190555050565b6040518060e0016040528060008152602001600073ffffffffffffffffffffffffffffffffffffffff16815260200160008152602001600073ffffffffffffffffffffffffffffffffffffffff168152602001600073ffffffffffffffffffffffffffffffffffffffff168152602001600081526020016000151581525090565b6000813590506112e881611a8d565b92915050565b6000813590506112fd81611aa4565b92915050565b6000806040838503121561131657600080fd5b6000611324858286016112d9565b9250506020611335858286016112ee565b9150509250929050565b60008060006060848603121561135457600080fd5b6000611362868287016112d9565b9350506020611373868287016112ee565b9250506040611384868287016112ee565b9150509250925092565b6000602082840312156113a057600080fd5b60006113ae848285016112ee565b91505092915050565b60006113c38383611622565b60e08301905092915050565b6113d8816119df565b82525050565b6113e781611997565b82525050565b6113f681611997565b82525050565b61140581611985565b82525050565b61141481611985565b82525050565b6000611425826118c1565b61142f81856118d9565b935061143a836118b1565b8060005b8381101561146b57815161145288826113b7565b975061145d836118cc565b92505060018101905061143e565b5085935050505092915050565b611481816119a9565b82525050565b611490816119a9565b82525050565b60006114a36021836118ea565b91507f76616c7565206d75737420657175616c20746f206c697374696e67207072696360008301527f65000000000000000000000000000000000000000000000000000000000000006020830152604082019050919050565b60006115096038836118ea565b91507f746f20636f6d706c69742074686973207472616e73616374696f6e20796f752060008301527f73686f756c6420686176652061736b696e6720707269636500000000000000006020830152604082019050919050565b600061156f601f836118ea565b91507f5265656e7472616e637947756172643a207265656e7472616e742063616c6c006000830152602082019050919050565b60006115af601d836118ea565b91507f7072696365206d757374206265206772617465727468616e207a65726f0000006000830152602082019050919050565b60006115ef6010836118ea565b91507f6f776e65722063616e6e6f7420627579000000000000000000000000000000006000830152602082019050919050565b60e08201600082015161163860008501826116b0565b50602082015161164b60208501826113fc565b50604082015161165e60408501826116b0565b50606082015161167160608501826113de565b50608082015161168460808501826113de565b5060a082015161169760a08501826116b0565b5060c08201516116aa60c0850182611478565b50505050565b6116b9816119d5565b82525050565b6116c8816119d5565b82525050565b60006020820190506116e360008301846113ed565b92915050565b60006080820190506116fe60008301876113cf565b61170b60208301866113cf565b61171860408301856116bf565b6117256060830184611487565b95945050505050565b6000606082019050611743600083018661140b565b611750602083018561140b565b61175d60408301846116bf565b949350505050565b6000602082019050818103600083015261177f818461141a565b905092915050565b600060208201905081810360008301526117a081611496565b9050919050565b600060208201905081810360008301526117c0816114fc565b9050919050565b600060208201905081810360008301526117e081611562565b9050919050565b60006020820190508181036000830152611800816115a2565b9050919050565b60006020820190508181036000830152611820816115e2565b9050919050565b600060208201905061183c60008301846116bf565b92915050565b600060e082019050611857600083018a6116bf565b611864602083018961140b565b61187160408301886116bf565b61187e60608301876113ed565b61188b60808301866113ed565b61189860a08301856116bf565b6118a560c0830184611487565b98975050505050505050565b6000819050602082019050919050565b600081519050919050565b6000602082019050919050565b600082825260208201905092915050565b600082825260208201905092915050565b6000611906826119d5565b9150611911836119d5565b9250827fffffffffffffffffffffffffffffffffffffffffffffffffffffffffffffffff0382111561194657611945611a5e565b5b828201905092915050565b600061195c826119d5565b9150611967836119d5565b92508282101561197a57611979611a5e565b5b828203905092915050565b6000611990826119b5565b9050919050565b60006119a2826119b5565b9050919050565b60008115159050919050565b600073ffffffffffffffffffffffffffffffffffffffff82169050919050565b6000819050919050565b60006119ea826119f1565b9050919050565b60006119fc82611a03565b9050919050565b6000611a0e826119b5565b9050919050565b6000611a20826119d5565b91507fffffffffffffffffffffffffffffffffffffffffffffffffffffffffffffffff821415611a5357611a52611a5e565b5b600182019050919050565b7f4e487b7100000000000000000000000000000000000000000000000000000000600052601160045260246000fd5b611a9681611985565b8114611aa157600080fd5b50565b611aad816119d5565b8114611ab857600080fd5b5056fea264697066735822122016f8fdb7251003cebac534a3c15ebf726558551d38750a893a941019e710647d64736f6c63430008000033",
  "immutableReferences": {},
  "source": "// SPDX-License-Identifier: MIT\npragma solidity >=0.4.22 <0.9.0;\n\n// import \"https://github.com/OpenZeppelin/openzeppelin-contracts/blob/master/contracts/token/ERC721/ERC721.sol\";\n// import \"https://github.com/OpenZeppelin/openzeppelin-contracts/blob/master/contracts/utils/Counters.sol\";\n// import \"https://github.com/OpenZeppelin/openzeppelin-contracts/blob/master/contracts/security/ReentrancyGuard.sol\";\n\nimport \"@openzeppelin/contracts/token/ERC721/ERC721.sol\";\nimport \"@openzeppelin/contracts/utils/Counters.sol\";\nimport \"@openzeppelin/contracts/security/ReentrancyGuard.sol\";\n\n\ncontract NFTmarketplace is ReentrancyGuard {\n    using Counters for Counters.Counter;\n    Counters.Counter private _itemIds;\n    Counters.Counter private _itemSold;\n\n    address payable public owner;\n    uint listingPrice = 0.025 ether;\n\n    constructor(){\n    owner = payable(msg.sender) ;\n    }\n\n    struct MarketItem{\n        uint itemId;\n        address nftContracts;\n        uint tokenId;\n        address payable seller;\n        address payable owner;\n        uint price;\n        bool sold;\n    }\n     \n    mapping (uint => MarketItem) public idMarketItem;\n\n    event MarketItemCreated(\n        uint indexed itemId,\n        address indexed nftContracts,\n        uint indexed tokenId,\n        address  seller,\n        address owner,\n        uint price,\n        bool sold\n    );\n\n    function getListingPrice() public view returns(uint){\n        return listingPrice;\n    }\n    function marketItemCont() public view returns(uint){\n       uint newItemId = _itemIds.current();\n        return newItemId;\n    }\n\n    function createMarketplace(address nftContract, uint tokenId, uint price) public payable nonReentrant {\n        require(price > 0 , \"price must be graterthan zero\");\n        require(msg.value == listingPrice, \"value must equal to listing price\");\n\n        _itemIds.increment();\n        uint newItemId = _itemIds.current();\n\n        idMarketItem[newItemId] = MarketItem(\n            newItemId,\n            nftContract,\n            tokenId,\n            payable(msg.sender),\n            payable(address(0)),\n            price,\n            false\n\n        );\n        IERC721(nftContract).transferFrom(msg.sender, address(this), tokenId);\n\n        emit MarketItemCreated(\n            newItemId,\n            nftContract,\n            tokenId,\n            payable(msg.sender),\n            payable(address(0)),\n            price,\n            false\n        );\n    }\n\n      function sellMarketplace(address nftContract, uint Id, uint price) public payable nonReentrant {\n        require(price > 0 , \"price must be graterthan zero\");\n        require(msg.value == listingPrice, \"value must equal to listing price\");\n        uint tokenId = idMarketItem[Id].tokenId;\n        idMarketItem[Id].price = price;\n        idMarketItem[Id].sold = false;\n        // idMarketItem[Id].seller = msg.sender;\n\n      \n        IERC721(nftContract).transferFrom(msg.sender, address(this), tokenId);\n\n        emit MarketItemCreated(\n            Id,\n            nftContract,\n            tokenId,\n            payable(msg.sender),\n            payable(address(0)),\n            price,\n            false\n\n        );\n    }\n\n    function creatMarketSales(address nftContract, uint ItemId) public payable nonReentrant{\n        uint price = idMarketItem[ItemId].price;\n        uint tokenId = idMarketItem[ItemId].tokenId;\n        require(msg.value == price, \"to complit this transaction you should have asking price\");\n        require(msg.sender != idMarketItem[ItemId].owner, \"owner cannot buy\");\n        \n        idMarketItem[ItemId].seller.transfer(msg.value);\n        IERC721(nftContract).transferFrom(address(this), msg.sender, tokenId) ;\n        idMarketItem[ItemId].owner = payable(msg.sender);\n        idMarketItem[ItemId].sold = true;\n          _itemSold.increment();\n        payable(owner).transfer(listingPrice);\n        \n\n    }\n\n    function fetchMarketItems() public view returns (MarketItem[] memory) {\n      uint itemCount = _itemIds.current();\n      uint unsoldItemCount = _itemIds.current() - _itemSold.current();\n      uint currentIndex = 0;\n\n      MarketItem[] memory items = new MarketItem[](unsoldItemCount);\n      for (uint i = 0; i < itemCount; i++) {\n        if (idMarketItem[i + 1].sold == false) {\n          uint currentId = i + 1;\n          MarketItem storage currentItem = idMarketItem[currentId];\n          items[currentIndex] = currentItem;\n          currentIndex += 1;\n        }\n      }\n      return items;\n    }\n\n\n    function fetchMyNFTs() public view returns (MarketItem[] memory) {\n      uint totalItemCount = _itemIds.current();\n      uint itemCount = 0;\n      uint currentIndex = 0;\n\n      for (uint i = 0; i < totalItemCount; i++) {\n        if (idMarketItem[i + 1].owner == msg.sender) {\n          itemCount += 1;\n        }\n      }\n\n      MarketItem[] memory items = new MarketItem[](itemCount);\n      for (uint i = 0; i < totalItemCount; i++) {\n        if (idMarketItem[i + 1].owner == msg.sender) {\n          uint currentId = i + 1;\n          MarketItem storage currentItem = idMarketItem[currentId];\n          items[currentIndex] = currentItem;\n          currentIndex += 1;\n        }\n      }\n      return items;\n    }\n\n  \n\n}\n\n\n",
  "sourcePath": "/home/nisamdheen/sps/NFT_MARKETPLACE/contracts/NFTmarketplace.sol",
  "compiler": {
    "name": "solc",
    "version": "0.8.0+commit.c7dfd78e.Emscripten.clang"
  },
  "schemaVersion": "3.4.4",
  "updatedAt": "2022-01-28T16:48:38.612Z",
  "networkType": "ethereum",
  "devdoc": {
    "kind": "dev",
    "methods": {},
    "version": 1
  },
  "userdoc": {
    "kind": "user",
    "methods": {},
    "version": 1
  }
}