{
  "contractName": "NFTmarketplace",
  "abi": [
    {
      "inputs": [],
      "stateMutability": "nonpayable",
      "type": "constructor"
    },
    {
      "anonymous": false,
      "inputs": [
        {
          "indexed": true,
          "internalType": "uint256",
          "name": "itemId",
          "type": "uint256"
        },
        {
          "indexed": true,
          "internalType": "address",
          "name": "nftContracts",
          "type": "address"
        },
        {
          "indexed": true,
          "internalType": "uint256",
          "name": "tokenId",
          "type": "uint256"
        },
        {
          "indexed": false,
          "internalType": "address",
          "name": "seller",
          "type": "address"
        },
        {
          "indexed": false,
          "internalType": "address",
          "name": "owner",
          "type": "address"
        },
        {
          "indexed": false,
          "internalType": "uint256",
          "name": "price",
          "type": "uint256"
        },
        {
          "indexed": false,
          "internalType": "bool",
          "name": "sold",
          "type": "bool"
        }
      ],
      "name": "MarketItemCreated",
      "type": "event"
    },
    {
      "inputs": [
        {
          "internalType": "uint256",
          "name": "",
          "type": "uint256"
        }
      ],
      "name": "idMarketItem",
      "outputs": [
        {
          "internalType": "uint256",
          "name": "itemId",
          "type": "uint256"
        },
        {
          "internalType": "address",
          "name": "nftContracts",
          "type": "address"
        },
        {
          "internalType": "uint256",
          "name": "tokenId",
          "type": "uint256"
        },
        {
          "internalType": "address payable",
          "name": "seller",
          "type": "address"
        },
        {
          "internalType": "address payable",
          "name": "owner",
          "type": "address"
        },
        {
          "internalType": "uint256",
          "name": "price",
          "type": "uint256"
        },
        {
          "internalType": "bool",
          "name": "sold",
          "type": "bool"
        }
      ],
      "stateMutability": "view",
      "type": "function",
      "constant": true
    },
    {
      "inputs": [],
      "name": "owner",
      "outputs": [
        {
          "internalType": "address payable",
          "name": "",
          "type": "address"
        }
      ],
      "stateMutability": "view",
      "type": "function",
      "constant": true
    },
    {
      "inputs": [],
      "name": "getListingPrice",
      "outputs": [
        {
          "internalType": "uint256",
          "name": "",
          "type": "uint256"
        }
      ],
      "stateMutability": "view",
      "type": "function",
      "constant": true
    },
    {
      "inputs": [],
      "name": "marketItemCont",
      "outputs": [
        {
          "internalType": "uint256",
          "name": "",
          "type": "uint256"
        }
      ],
      "stateMutability": "view",
      "type": "function",
      "constant": true
    },
    {
      "inputs": [
        {
          "internalType": "address",
          "name": "nftContract",
          "type": "address"
        },
        {
          "internalType": "uint256",
          "name": "tokenId",
          "type": "uint256"
        },
        {
          "internalType": "uint256",
          "name": "price",
          "type": "uint256"
        }
      ],
      "name": "createMarketplace",
      "outputs": [],
      "stateMutability": "payable",
      "type": "function",
      "payable": true
    },
    {
      "inputs": [
        {
          "internalType": "address",
          "name": "nftContract",
          "type": "address"
        },
        {
          "internalType": "uint256",
          "name": "Id",
          "type": "uint256"
        },
        {
          "internalType": "uint256",
          "name": "price",
          "type": "uint256"
        }
      ],
      "name": "sellMarketplace",
      "outputs": [],
      "stateMutability": "payable",
      "type": "function",
      "payable": true
    },
    {
      "inputs": [
        {
          "internalType": "address",
          "name": "nftContract",
          "type": "address"
        },
        {
          "internalType": "uint256",
          "name": "ItemId",
          "type": "uint256"
        }
      ],
      "name": "creatMarketSales",
      "outputs": [],
      "stateMutability": "payable",
      "type": "function",
      "payable": true
    },
    {
      "inputs": [
        {
          "internalType": "address",
          "name": "nftContract",
          "type": "address"
        }
      ],
      "name": "approv",
      "outputs": [],
      "stateMutability": "nonpayable",
      "type": "function"
    },
    {
      "inputs": [],
      "name": "fetchMarketItems",
      "outputs": [
        {
          "components": [
            {
              "internalType": "uint256",
              "name": "itemId",
              "type": "uint256"
            },
            {
              "internalType": "address",
              "name": "nftContracts",
              "type": "address"
            },
            {
              "internalType": "uint256",
              "name": "tokenId",
              "type": "uint256"
            },
            {
              "internalType": "address payable",
              "name": "seller",
              "type": "address"
            },
            {
              "internalType": "address payable",
              "name": "owner",
              "type": "address"
            },
            {
              "internalType": "uint256",
              "name": "price",
              "type": "uint256"
            },
            {
              "internalType": "bool",
              "name": "sold",
              "type": "bool"
            }
          ],
          "internalType": "struct NFTmarketplace.MarketItem[]",
          "name": "",
          "type": "tuple[]"
        }
      ],
      "stateMutability": "view",
      "type": "function",
      "constant": true
    },
    {
      "inputs": [],
      "name": "fetchMyNFTs",
      "outputs": [
        {
          "components": [
            {
              "internalType": "uint256",
              "name": "itemId",
              "type": "uint256"
            },
            {
              "internalType": "address",
              "name": "nftContracts",
              "type": "address"
            },
            {
              "internalType": "uint256",
              "name": "tokenId",
              "type": "uint256"
            },
            {
              "internalType": "address payable",
              "name": "seller",
              "type": "address"
            },
            {
              "internalType": "address payable",
              "name": "owner",
              "type": "address"
            },
            {
              "internalType": "uint256",
              "name": "price",
              "type": "uint256"
            },
            {
              "internalType": "bool",
              "name": "sold",
              "type": "bool"
            }
          ],
          "internalType": "struct NFTmarketplace.MarketItem[]",
          "name": "",
          "type": "tuple[]"
        }
      ],
      "stateMutability": "view",
      "type": "function",
      "constant": true
    }
  ],
  "bytecode": "0x60806040526658d15e1762800060045534801561001b57600080fd5b50600160008190555033600360006101000a81548173ffffffffffffffffffffffffffffffffffffffff021916908373ffffffffffffffffffffffffffffffffffffffff160217905550611c54806100746000396000f3fe6080604052600436106100915760003560e01c8063316c994a11610059578063316c994a1461017657806342968c0b146101a1578063864325e1146101bd5780638da5cb5b146101d9578063c993ccb11461020457610091565b8063087ae8a2146100965780630f08efe0146100d957806312e85585146101045780631dbcf67a1461012f578063202e37401461014b575b600080fd5b3480156100a257600080fd5b506100bd60048036038101906100b891906114c8565b61022d565b6040516100d097969594939291906119a5565b60405180910390f35b3480156100e557600080fd5b506100ee6102dc565b6040516100fb91906118c8565b60405180910390f35b34801561011057600080fd5b506101196105b7565b604051610126919061198a565b60405180910390f35b61014960048036038101906101449190611479565b6105c1565b005b34801561015757600080fd5b50610160610925565b60405161016d91906118c8565b60405180910390f35b34801561018257600080fd5b5061018b610cbf565b604051610198919061198a565b60405180910390f35b6101bb60048036038101906101b6919061143d565b610cd5565b005b6101d760048036038101906101d29190611479565b610f8f565b005b3480156101e557600080fd5b506101ee611252565b6040516101fb9190611808565b60405180910390f35b34801561021057600080fd5b5061022b60048036038101906102269190611414565b611278565b005b60056020528060005260406000206000915090508060000154908060010160009054906101000a900473ffffffffffffffffffffffffffffffffffffffff16908060020154908060030160009054906101000a900473ffffffffffffffffffffffffffffffffffffffff16908060040160009054906101000a900473ffffffffffffffffffffffffffffffffffffffff16908060050154908060060160009054906101000a900460ff16905087565b606060006102ea60016112e9565b905060006102f860026112e9565b61030260016112e9565b61030c9190611ab4565b90506000808267ffffffffffffffff811115610351577f4e487b7100000000000000000000000000000000000000000000000000000000600052604160045260246000fd5b60405190808252806020026020018201604052801561038a57816020015b610377611369565b81526020019060019003908161036f5790505b50905060005b848110156105ac5760001515600560006001846103ad9190611a5e565b815260200190815260200160002060060160009054906101000a900460ff16151514156105995760006001826103e39190611a5e565b90506000600560008381526020019081526020016000209050806040518060e0016040529081600082015481526020016001820160009054906101000a900473ffffffffffffffffffffffffffffffffffffffff1673ffffffffffffffffffffffffffffffffffffffff1673ffffffffffffffffffffffffffffffffffffffff168152602001600282015481526020016003820160009054906101000a900473ffffffffffffffffffffffffffffffffffffffff1673ffffffffffffffffffffffffffffffffffffffff1673ffffffffffffffffffffffffffffffffffffffff1681526020016004820160009054906101000a900473ffffffffffffffffffffffffffffffffffffffff1673ffffffffffffffffffffffffffffffffffffffff1673ffffffffffffffffffffffffffffffffffffffff168152602001600582015481526020016006820160009054906101000a900460ff16151515158152505084868151811061057c577f4e487b7100000000000000000000000000000000000000000000000000000000600052603260045260246000fd5b60200260200101819052506001856105949190611a5e565b945050505b80806105a490611b78565b915050610390565b508094505050505090565b6000600454905090565b60026000541415610607576040517f08c379a00000000000000000000000000000000000000000000000000000000081526004016105fe9061194a565b60405180910390fd5b600260008190555060008111610652576040517f08c379a00000000000000000000000000000000000000000000000000000000081526004016106499061196a565b60405180910390fd5b6004543414610696576040517f08c379a000000000000000000000000000000000000000000000000000000000815260040161068d9061190a565b60405180910390fd5b6106a060016112f7565b60006106ac60016112e9565b90506040518060e001604052808281526020018573ffffffffffffffffffffffffffffffffffffffff1681526020018481526020013373ffffffffffffffffffffffffffffffffffffffff168152602001600073ffffffffffffffffffffffffffffffffffffffff16815260200183815260200160001515815250600560008381526020019081526020016000206000820151816000015560208201518160010160006101000a81548173ffffffffffffffffffffffffffffffffffffffff021916908373ffffffffffffffffffffffffffffffffffffffff1602179055506040820151816002015560608201518160030160006101000a81548173ffffffffffffffffffffffffffffffffffffffff021916908373ffffffffffffffffffffffffffffffffffffffff16021790555060808201518160040160006101000a81548173ffffffffffffffffffffffffffffffffffffffff021916908373ffffffffffffffffffffffffffffffffffffffff16021790555060a0820151816005015560c08201518160060160006101000a81548160ff0219169083151502179055509050508373ffffffffffffffffffffffffffffffffffffffff166323b872dd3330866040518463ffffffff1660e01b815260040161088d93929190611868565b600060405180830381600087803b1580156108a757600080fd5b505af11580156108bb573d6000803e3d6000fd5b50505050828473ffffffffffffffffffffffffffffffffffffffff16827f045dfa01dcba2b36aba1d3dc4a874f4b0c5d2fbeb8d2c4b34a7d88c8d8f929d133600087600060405161090f9493929190611823565b60405180910390a4506001600081905550505050565b6060600061093360016112e9565b905060008060005b838110156109dc573373ffffffffffffffffffffffffffffffffffffffff166005600060018461096b9190611a5e565b815260200190815260200160002060040160009054906101000a900473ffffffffffffffffffffffffffffffffffffffff1673ffffffffffffffffffffffffffffffffffffffff1614156109c9576001836109c69190611a5e565b92505b80806109d490611b78565b91505061093b565b5060008267ffffffffffffffff811115610a1f577f4e487b7100000000000000000000000000000000000000000000000000000000600052604160045260246000fd5b604051908082528060200260200182016040528015610a5857816020015b610a45611369565b815260200190600190039081610a3d5790505b50905060005b84811015610cb4573373ffffffffffffffffffffffffffffffffffffffff1660056000600184610a8e9190611a5e565b815260200190815260200160002060040160009054906101000a900473ffffffffffffffffffffffffffffffffffffffff1673ffffffffffffffffffffffffffffffffffffffff161415610ca1576000600182610aeb9190611a5e565b90506000600560008381526020019081526020016000209050806040518060e0016040529081600082015481526020016001820160009054906101000a900473ffffffffffffffffffffffffffffffffffffffff1673ffffffffffffffffffffffffffffffffffffffff1673ffffffffffffffffffffffffffffffffffffffff168152602001600282015481526020016003820160009054906101000a900473ffffffffffffffffffffffffffffffffffffffff1673ffffffffffffffffffffffffffffffffffffffff1673ffffffffffffffffffffffffffffffffffffffff1681526020016004820160009054906101000a900473ffffffffffffffffffffffffffffffffffffffff1673ffffffffffffffffffffffffffffffffffffffff1673ffffffffffffffffffffffffffffffffffffffff168152602001600582015481526020016006820160009054906101000a900460ff161515151581525050848681518110610c84577f4e487b7100000000000000000000000000000000000000000000000000000000600052603260045260246000fd5b6020026020010181905250600185610c9c9190611a5e565b945050505b8080610cac90611b78565b915050610a5e565b508094505050505090565b600080610ccc60016112e9565b90508091505090565b60026000541415610d1b576040517f08c379a0000000000000000000000000000000000000000000000000000000008152600401610d129061194a565b60405180910390fd5b600260008190555060006005600083815260200190815260200160002060050154905060006005600084815260200190815260200160002060020154905081341015610d9c576040517f08c379a0000000000000000000000000000000000000000000000000000000008152600401610d939061192a565b60405180910390fd5b6005600084815260200190815260200160002060030160009054906101000a900473ffffffffffffffffffffffffffffffffffffffff1673ffffffffffffffffffffffffffffffffffffffff166108fc349081150290604051600060405180830381858888f19350505050158015610e18573d6000803e3d6000fd5b508373ffffffffffffffffffffffffffffffffffffffff166323b872dd3033846040518463ffffffff1660e01b8152600401610e5693929190611868565b600060405180830381600087803b158015610e7057600080fd5b505af1158015610e84573d6000803e3d6000fd5b50505050336005600085815260200190815260200160002060040160006101000a81548173ffffffffffffffffffffffffffffffffffffffff021916908373ffffffffffffffffffffffffffffffffffffffff16021790555060016005600085815260200190815260200160002060060160006101000a81548160ff021916908315150217905550610f1660026112f7565b600360009054906101000a900473ffffffffffffffffffffffffffffffffffffffff1673ffffffffffffffffffffffffffffffffffffffff166108fc6004549081150290604051600060405180830381858888f19350505050158015610f80573d6000803e3d6000fd5b50505060016000819055505050565b60026000541415610fd5576040517f08c379a0000000000000000000000000000000000000000000000000000000008152600401610fcc9061194a565b60405180910390fd5b600260008190555060008111611020576040517f08c379a00000000000000000000000000000000000000000000000000000000081526004016110179061196a565b60405180910390fd5b600454341015611065576040517f08c379a000000000000000000000000000000000000000000000000000000000815260040161105c9061190a565b60405180910390fd5b60006005600084815260200190815260200160002060020154905081600560008581526020019081526020016000206005018190555060006005600085815260200190815260200160002060060160006101000a81548160ff021916908315150217905550306005600085815260200190815260200160002060040160006101000a81548173ffffffffffffffffffffffffffffffffffffffff021916908373ffffffffffffffffffffffffffffffffffffffff160217905550336005600085815260200190815260200160002060030160006101000a81548173ffffffffffffffffffffffffffffffffffffffff021916908373ffffffffffffffffffffffffffffffffffffffff1602179055508373ffffffffffffffffffffffffffffffffffffffff166323b872dd3330846040518463ffffffff1660e01b81526004016111b193929190611868565b600060405180830381600087803b1580156111cb57600080fd5b505af11580156111df573d6000803e3d6000fd5b50505050808473ffffffffffffffffffffffffffffffffffffffff16847f045dfa01dcba2b36aba1d3dc4a874f4b0c5d2fbeb8d2c4b34a7d88c8d8f929d130338760006040516112329493929190611823565b60405180910390a4611244600261130d565b506001600081905550505050565b600360009054906101000a900473ffffffffffffffffffffffffffffffffffffffff1681565b8073ffffffffffffffffffffffffffffffffffffffff1663a22cb4653060016040518363ffffffff1660e01b81526004016112b492919061189f565b600060405180830381600087803b1580156112ce57600080fd5b505af11580156112e2573d6000803e3d6000fd5b5050505050565b600081600001549050919050565b6001816000016000828254019250508190555050565b60008160000154905060008111611359576040517f08c379a0000000000000000000000000000000000000000000000000000000008152600401611350906118ea565b60405180910390fd5b6001810382600001819055505050565b6040518060e0016040528060008152602001600073ffffffffffffffffffffffffffffffffffffffff16815260200160008152602001600073ffffffffffffffffffffffffffffffffffffffff168152602001600073ffffffffffffffffffffffffffffffffffffffff168152602001600081526020016000151581525090565b6000813590506113f981611bf0565b92915050565b60008135905061140e81611c07565b92915050565b60006020828403121561142657600080fd5b6000611434848285016113ea565b91505092915050565b6000806040838503121561145057600080fd5b600061145e858286016113ea565b925050602061146f858286016113ff565b9150509250929050565b60008060006060848603121561148e57600080fd5b600061149c868287016113ea565b93505060206114ad868287016113ff565b92505060406114be868287016113ff565b9150509250925092565b6000602082840312156114da57600080fd5b60006114e8848285016113ff565b91505092915050565b60006114fd838361175c565b60e08301905092915050565b61151281611b42565b82525050565b61152181611afa565b82525050565b61153081611afa565b82525050565b61153f81611ae8565b82525050565b61154e81611ae8565b82525050565b600061155f82611a24565b6115698185611a3c565b935061157483611a14565b8060005b838110156115a557815161158c88826114f1565b975061159783611a2f565b925050600181019050611578565b5085935050505092915050565b6115bb81611b0c565b82525050565b6115ca81611b0c565b82525050565b60006115dd601b83611a4d565b91507f436f756e7465723a2064656372656d656e74206f766572666c6f7700000000006000830152602082019050919050565b600061161d602183611a4d565b91507f76616c7565206d75737420657175616c20746f206c697374696e67207072696360008301527f65000000000000000000000000000000000000000000000000000000000000006020830152604082019050919050565b6000611683603883611a4d565b91507f746f20636f6d706c69742074686973207472616e73616374696f6e20796f752060008301527f73686f756c6420686176652061736b696e6720707269636500000000000000006020830152604082019050919050565b60006116e9601f83611a4d565b91507f5265656e7472616e637947756172643a207265656e7472616e742063616c6c006000830152602082019050919050565b6000611729601d83611a4d565b91507f7072696365206d757374206265206772617465727468616e207a65726f0000006000830152602082019050919050565b60e08201600082015161177260008501826117ea565b5060208201516117856020850182611536565b50604082015161179860408501826117ea565b5060608201516117ab6060850182611518565b5060808201516117be6080850182611518565b5060a08201516117d160a08501826117ea565b5060c08201516117e460c08501826115b2565b50505050565b6117f381611b38565b82525050565b61180281611b38565b82525050565b600060208201905061181d6000830184611527565b92915050565b60006080820190506118386000830187611509565b6118456020830186611509565b61185260408301856117f9565b61185f60608301846115c1565b95945050505050565b600060608201905061187d6000830186611545565b61188a6020830185611545565b61189760408301846117f9565b949350505050565b60006040820190506118b46000830185611545565b6118c160208301846115c1565b9392505050565b600060208201905081810360008301526118e28184611554565b905092915050565b60006020820190508181036000830152611903816115d0565b9050919050565b6000602082019050818103600083015261192381611610565b9050919050565b6000602082019050818103600083015261194381611676565b9050919050565b60006020820190508181036000830152611963816116dc565b9050919050565b600060208201905081810360008301526119838161171c565b9050919050565b600060208201905061199f60008301846117f9565b92915050565b600060e0820190506119ba600083018a6117f9565b6119c76020830189611545565b6119d460408301886117f9565b6119e16060830187611527565b6119ee6080830186611527565b6119fb60a08301856117f9565b611a0860c08301846115c1565b98975050505050505050565b6000819050602082019050919050565b600081519050919050565b6000602082019050919050565b600082825260208201905092915050565b600082825260208201905092915050565b6000611a6982611b38565b9150611a7483611b38565b9250827fffffffffffffffffffffffffffffffffffffffffffffffffffffffffffffffff03821115611aa957611aa8611bc1565b5b828201905092915050565b6000611abf82611b38565b9150611aca83611b38565b925082821015611add57611adc611bc1565b5b828203905092915050565b6000611af382611b18565b9050919050565b6000611b0582611b18565b9050919050565b60008115159050919050565b600073ffffffffffffffffffffffffffffffffffffffff82169050919050565b6000819050919050565b6000611b4d82611b54565b9050919050565b6000611b5f82611b66565b9050919050565b6000611b7182611b18565b9050919050565b6000611b8382611b38565b91507fffffffffffffffffffffffffffffffffffffffffffffffffffffffffffffffff821415611bb657611bb5611bc1565b5b600182019050919050565b7f4e487b7100000000000000000000000000000000000000000000000000000000600052601160045260246000fd5b611bf981611ae8565b8114611c0457600080fd5b50565b611c1081611b38565b8114611c1b57600080fd5b5056fea2646970667358221220e5b2ada1bfdf0947b195f3b11329ac1c696979982a03e79360d97f755404ab0c64736f6c63430008000033",
  "immutableReferences": {},
  "source": "// SPDX-License-Identifier: MIT\npragma solidity >=0.4.22 <0.9.0;\n\n// import \"https://github.com/OpenZeppelin/openzeppelin-contracts/blob/master/contracts/token/ERC721/ERC721.sol\";\n// import \"https://github.com/OpenZeppelin/openzeppelin-contracts/blob/master/contracts/utils/Counters.sol\";\n// import \"https://github.com/OpenZeppelin/openzeppelin-contracts/blob/master/contracts/security/ReentrancyGuard.sol\";\n\nimport \"@openzeppelin/contracts/token/ERC721/ERC721.sol\";\nimport \"@openzeppelin/contracts/utils/Counters.sol\";\nimport \"@openzeppelin/contracts/security/ReentrancyGuard.sol\";\n\n\ncontract NFTmarketplace is ReentrancyGuard {\n    using Counters for Counters.Counter;\n    Counters.Counter private _itemIds;\n    Counters.Counter private _itemSold;\n\n    address payable public owner;\n    uint listingPrice = 0.025 ether;\n\n    constructor(){\n    owner = payable(msg.sender) ;\n    }\n\n    struct MarketItem{\n        uint itemId;\n        address nftContracts;\n        uint tokenId;\n        address payable seller;\n        address payable owner;\n        uint price;\n        bool sold;\n    }\n     \n    mapping (uint => MarketItem) public idMarketItem;\n\n    event MarketItemCreated(\n        uint indexed itemId,\n        address indexed nftContracts,\n        uint indexed tokenId,\n        address  seller,\n        address owner,\n        uint price,\n        bool sold\n    );\n\n    function getListingPrice() public view returns(uint){\n        return listingPrice;\n    }\n    function marketItemCont() public view returns(uint){\n       uint newItemId = _itemIds.current();\n        return newItemId;\n    }\n\n    function createMarketplace(address nftContract, uint tokenId, uint price) public payable nonReentrant {\n        require(price > 0 , \"price must be graterthan zero\");\n        require(msg.value == listingPrice, \"value must equal to listing price\");\n\n        _itemIds.increment();\n        uint newItemId = _itemIds.current();\n\n        idMarketItem[newItemId] = MarketItem(\n            newItemId,\n            nftContract,\n            tokenId,\n            payable(msg.sender),\n            payable(address(0)),\n            price,\n            false\n        );\n        IERC721(nftContract).transferFrom(msg.sender, address(this), tokenId);\n\n        emit MarketItemCreated(\n            newItemId,\n            nftContract,\n            tokenId,\n            payable(msg.sender),\n            payable(address(0)),\n            price,\n            false\n        );\n    }\n\n      function sellMarketplace(address nftContract, uint Id, uint price) public payable nonReentrant {\n        require(price > 0 , \"price must be graterthan zero\");\n        require(msg.value >= listingPrice, \"value must equal to listing price\");\n        uint tokenId = idMarketItem[Id].tokenId;\n        idMarketItem[Id].price = price;\n        idMarketItem[Id].sold = false;\n        idMarketItem[Id].owner = payable(address(this));\n        idMarketItem[Id].seller = payable(msg.sender) ;\n\n        IERC721(nftContract).transferFrom(msg.sender, address(this), tokenId);\n        emit MarketItemCreated(\n            Id,\n            nftContract,\n            tokenId,\n            payable(address(this)),\n            payable(msg.sender),\n            price,\n            false\n        );\n        _itemSold.decrement();\n    }\n\n    function creatMarketSales(address nftContract, uint ItemId) public payable nonReentrant{\n        uint price = idMarketItem[ItemId].price;\n        uint tokenId = idMarketItem[ItemId].tokenId;\n        require(msg.value >= price, \"to complit this transaction you should have asking price\");\n\n        \n        idMarketItem[ItemId].seller.transfer(msg.value);\n       \n        IERC721(nftContract).transferFrom(address(this), msg.sender, tokenId);\n        idMarketItem[ItemId].owner = payable(msg.sender);\n        idMarketItem[ItemId].sold = true;\n        _itemSold.increment();\n        payable(owner).transfer(listingPrice);\n\n        // approv(nftContract);\n\n    }\n\n    function approv(address nftContract) public {\n       IERC721(nftContract).setApprovalForAll(address(this), true);\n    }\n\n    function fetchMarketItems() public view returns (MarketItem[] memory) {\n      uint itemCount = _itemIds.current();\n      uint unsoldItemCount = _itemIds.current() - _itemSold.current();\n      uint currentIndex = 0;\n\n      MarketItem[] memory items = new MarketItem[](unsoldItemCount);\n      for (uint i = 0; i < itemCount; i++) {\n        if (idMarketItem[i + 1].sold == false) {\n          uint currentId = i + 1;\n          MarketItem storage currentItem = idMarketItem[currentId];\n          items[currentIndex] = currentItem;\n          currentIndex += 1;\n        }\n      }\n      return items;\n    }\n\n\n    function fetchMyNFTs() public view returns (MarketItem[] memory) {\n      uint totalItemCount = _itemIds.current();\n      uint itemCount = 0;\n      uint currentIndex = 0;\n\n      for (uint i = 0; i < totalItemCount; i++) {\n        if (idMarketItem[i + 1].owner == msg.sender) {\n          itemCount += 1;\n        }\n      }\n\n      MarketItem[] memory items = new MarketItem[](itemCount);\n      for (uint i = 0; i < totalItemCount; i++) {\n        if (idMarketItem[i + 1].owner == msg.sender) {\n          uint currentId = i + 1;\n          MarketItem storage currentItem = idMarketItem[currentId];\n          items[currentIndex] = currentItem;\n          currentIndex += 1;\n        }\n      }\n      return items;\n    }\n\n  \n\n}\n\n\n",
  "sourcePath": "/home/nisamdheen/sps/NFT_MARKETPLACE/contracts/NFTmarketplace.sol",
  "compiler": {
    "name": "solc",
    "version": "0.8.0+commit.c7dfd78e.Emscripten.clang"
  },
  "schemaVersion": "3.4.4",
  "updatedAt": "2022-01-30T12:06:12.966Z",
  "networkType": "ethereum",
  "devdoc": {
    "kind": "dev",
    "methods": {},
    "version": 1
  },
  "userdoc": {
    "kind": "user",
    "methods": {},
    "version": 1
  }
}