{
  "contractName": "NFTmarketplace",
  "abi": [
    {
      "inputs": [],
      "stateMutability": "nonpayable",
      "type": "constructor"
    },
    {
      "anonymous": false,
      "inputs": [
        {
          "indexed": true,
          "internalType": "uint256",
          "name": "itemId",
          "type": "uint256"
        },
        {
          "indexed": true,
          "internalType": "address",
          "name": "nftContracts",
          "type": "address"
        },
        {
          "indexed": true,
          "internalType": "uint256",
          "name": "tokenId",
          "type": "uint256"
        },
        {
          "indexed": false,
          "internalType": "address",
          "name": "seller",
          "type": "address"
        },
        {
          "indexed": false,
          "internalType": "address",
          "name": "owner",
          "type": "address"
        },
        {
          "indexed": false,
          "internalType": "uint256",
          "name": "price",
          "type": "uint256"
        },
        {
          "indexed": false,
          "internalType": "bool",
          "name": "sold",
          "type": "bool"
        }
      ],
      "name": "MarketItemCreated",
      "type": "event"
    },
    {
      "inputs": [
        {
          "internalType": "uint256",
          "name": "",
          "type": "uint256"
        }
      ],
      "name": "idMarketItem",
      "outputs": [
        {
          "internalType": "uint256",
          "name": "itemId",
          "type": "uint256"
        },
        {
          "internalType": "address",
          "name": "nftContracts",
          "type": "address"
        },
        {
          "internalType": "uint256",
          "name": "tokenId",
          "type": "uint256"
        },
        {
          "internalType": "address payable",
          "name": "seller",
          "type": "address"
        },
        {
          "internalType": "address payable",
          "name": "owner",
          "type": "address"
        },
        {
          "internalType": "uint256",
          "name": "price",
          "type": "uint256"
        },
        {
          "internalType": "bool",
          "name": "sold",
          "type": "bool"
        }
      ],
      "stateMutability": "view",
      "type": "function",
      "constant": true
    },
    {
      "inputs": [],
      "name": "owner",
      "outputs": [
        {
          "internalType": "address payable",
          "name": "",
          "type": "address"
        }
      ],
      "stateMutability": "view",
      "type": "function",
      "constant": true
    },
    {
      "inputs": [],
      "name": "getListingPrice",
      "outputs": [
        {
          "internalType": "uint256",
          "name": "",
          "type": "uint256"
        }
      ],
      "stateMutability": "view",
      "type": "function",
      "constant": true
    },
    {
      "inputs": [],
      "name": "marketItemCont",
      "outputs": [
        {
          "internalType": "uint256",
          "name": "",
          "type": "uint256"
        }
      ],
      "stateMutability": "view",
      "type": "function",
      "constant": true
    },
    {
      "inputs": [
        {
          "internalType": "address",
          "name": "nftContract",
          "type": "address"
        },
        {
          "internalType": "uint256",
          "name": "tokenId",
          "type": "uint256"
        },
        {
          "internalType": "uint256",
          "name": "price",
          "type": "uint256"
        }
      ],
      "name": "createMarketplace",
      "outputs": [],
      "stateMutability": "payable",
      "type": "function",
      "payable": true
    },
    {
      "inputs": [
        {
          "internalType": "address",
          "name": "nftContract",
          "type": "address"
        },
        {
          "internalType": "uint256",
          "name": "Id",
          "type": "uint256"
        },
        {
          "internalType": "uint256",
          "name": "price",
          "type": "uint256"
        }
      ],
      "name": "sellMarketplace",
      "outputs": [],
      "stateMutability": "payable",
      "type": "function",
      "payable": true
    },
    {
      "inputs": [
        {
          "internalType": "address",
          "name": "nftContract",
          "type": "address"
        },
        {
          "internalType": "uint256",
          "name": "ItemId",
          "type": "uint256"
        }
      ],
      "name": "creatMarketSales",
      "outputs": [],
      "stateMutability": "payable",
      "type": "function",
      "payable": true
    },
    {
      "inputs": [],
      "name": "fetchMarketItems",
      "outputs": [
        {
          "components": [
            {
              "internalType": "uint256",
              "name": "itemId",
              "type": "uint256"
            },
            {
              "internalType": "address",
              "name": "nftContracts",
              "type": "address"
            },
            {
              "internalType": "uint256",
              "name": "tokenId",
              "type": "uint256"
            },
            {
              "internalType": "address payable",
              "name": "seller",
              "type": "address"
            },
            {
              "internalType": "address payable",
              "name": "owner",
              "type": "address"
            },
            {
              "internalType": "uint256",
              "name": "price",
              "type": "uint256"
            },
            {
              "internalType": "bool",
              "name": "sold",
              "type": "bool"
            }
          ],
          "internalType": "struct NFTmarketplace.MarketItem[]",
          "name": "",
          "type": "tuple[]"
        }
      ],
      "stateMutability": "view",
      "type": "function",
      "constant": true
    },
    {
      "inputs": [],
      "name": "fetchMyNFTs",
      "outputs": [
        {
          "components": [
            {
              "internalType": "uint256",
              "name": "itemId",
              "type": "uint256"
            },
            {
              "internalType": "address",
              "name": "nftContracts",
              "type": "address"
            },
            {
              "internalType": "uint256",
              "name": "tokenId",
              "type": "uint256"
            },
            {
              "internalType": "address payable",
              "name": "seller",
              "type": "address"
            },
            {
              "internalType": "address payable",
              "name": "owner",
              "type": "address"
            },
            {
              "internalType": "uint256",
              "name": "price",
              "type": "uint256"
            },
            {
              "internalType": "bool",
              "name": "sold",
              "type": "bool"
            }
          ],
          "internalType": "struct NFTmarketplace.MarketItem[]",
          "name": "",
          "type": "tuple[]"
        }
      ],
      "stateMutability": "view",
      "type": "function",
      "constant": true
    },
    {
      "inputs": [],
      "name": "fetchItemsCreated",
      "outputs": [
        {
          "components": [
            {
              "internalType": "uint256",
              "name": "itemId",
              "type": "uint256"
            },
            {
              "internalType": "address",
              "name": "nftContracts",
              "type": "address"
            },
            {
              "internalType": "uint256",
              "name": "tokenId",
              "type": "uint256"
            },
            {
              "internalType": "address payable",
              "name": "seller",
              "type": "address"
            },
            {
              "internalType": "address payable",
              "name": "owner",
              "type": "address"
            },
            {
              "internalType": "uint256",
              "name": "price",
              "type": "uint256"
            },
            {
              "internalType": "bool",
              "name": "sold",
              "type": "bool"
            }
          ],
          "internalType": "struct NFTmarketplace.MarketItem[]",
          "name": "",
          "type": "tuple[]"
        }
      ],
      "stateMutability": "view",
      "type": "function",
      "constant": true
    }
  ],
  "bytecode": "0x60806040526658d15e1762800060045534801561001b57600080fd5b50600160008190555033600360006101000a81548173ffffffffffffffffffffffffffffffffffffffff021916908373ffffffffffffffffffffffffffffffffffffffff160217905550611ec1806100746000396000f3fe6080604052600436106100915760003560e01c8063316c994a11610059578063316c994a1461017657806342968c0b146101a1578063864325e1146101bd5780638da5cb5b146101d9578063f064c32e1461020457610091565b8063087ae8a2146100965780630f08efe0146100d957806312e85585146101045780631dbcf67a1461012f578063202e37401461014b575b600080fd5b3480156100a257600080fd5b506100bd60048036038101906100b8919061175e565b61022f565b6040516100d09796959493929190611c12565b60405180910390f35b3480156100e557600080fd5b506100ee6102de565b6040516100fb9190611b35565b60405180910390f35b34801561011057600080fd5b506101196105b9565b6040516101269190611bf7565b60405180910390f35b6101496004803603810190610144919061170f565b6105c3565b005b34801561015757600080fd5b50610160610927565b60405161016d9190611b35565b60405180910390f35b34801561018257600080fd5b5061018b610cc1565b6040516101989190611bf7565b60405180910390f35b6101bb60048036038101906101b691906116d3565b610cd7565b005b6101d760048036038101906101d2919061170f565b611035565b005b3480156101e557600080fd5b506101ee611244565b6040516101fb9190611a9e565b60405180910390f35b34801561021057600080fd5b5061021961126a565b6040516102269190611b35565b60405180910390f35b60056020528060005260406000206000915090508060000154908060010160009054906101000a900473ffffffffffffffffffffffffffffffffffffffff16908060020154908060030160009054906101000a900473ffffffffffffffffffffffffffffffffffffffff16908060040160009054906101000a900473ffffffffffffffffffffffffffffffffffffffff16908060050154908060060160009054906101000a900460ff16905087565b606060006102ec6001611604565b905060006102fa6002611604565b6103046001611604565b61030e9190611d21565b90506000808267ffffffffffffffff811115610353577f4e487b7100000000000000000000000000000000000000000000000000000000600052604160045260246000fd5b60405190808252806020026020018201604052801561038c57816020015b610379611628565b8152602001906001900390816103715790505b50905060005b848110156105ae5760001515600560006001846103af9190611ccb565b815260200190815260200160002060060160009054906101000a900460ff161515141561059b5760006001826103e59190611ccb565b90506000600560008381526020019081526020016000209050806040518060e0016040529081600082015481526020016001820160009054906101000a900473ffffffffffffffffffffffffffffffffffffffff1673ffffffffffffffffffffffffffffffffffffffff1673ffffffffffffffffffffffffffffffffffffffff168152602001600282015481526020016003820160009054906101000a900473ffffffffffffffffffffffffffffffffffffffff1673ffffffffffffffffffffffffffffffffffffffff1673ffffffffffffffffffffffffffffffffffffffff1681526020016004820160009054906101000a900473ffffffffffffffffffffffffffffffffffffffff1673ffffffffffffffffffffffffffffffffffffffff1673ffffffffffffffffffffffffffffffffffffffff168152602001600582015481526020016006820160009054906101000a900460ff16151515158152505084868151811061057e577f4e487b7100000000000000000000000000000000000000000000000000000000600052603260045260246000fd5b60200260200101819052506001856105969190611ccb565b945050505b80806105a690611de5565b915050610392565b508094505050505090565b6000600454905090565b60026000541415610609576040517f08c379a000000000000000000000000000000000000000000000000000000000815260040161060090611b97565b60405180910390fd5b600260008190555060008111610654576040517f08c379a000000000000000000000000000000000000000000000000000000000815260040161064b90611bb7565b60405180910390fd5b6004543414610698576040517f08c379a000000000000000000000000000000000000000000000000000000000815260040161068f90611b57565b60405180910390fd5b6106a26001611612565b60006106ae6001611604565b90506040518060e001604052808281526020018573ffffffffffffffffffffffffffffffffffffffff1681526020018481526020013373ffffffffffffffffffffffffffffffffffffffff168152602001600073ffffffffffffffffffffffffffffffffffffffff16815260200183815260200160001515815250600560008381526020019081526020016000206000820151816000015560208201518160010160006101000a81548173ffffffffffffffffffffffffffffffffffffffff021916908373ffffffffffffffffffffffffffffffffffffffff1602179055506040820151816002015560608201518160030160006101000a81548173ffffffffffffffffffffffffffffffffffffffff021916908373ffffffffffffffffffffffffffffffffffffffff16021790555060808201518160040160006101000a81548173ffffffffffffffffffffffffffffffffffffffff021916908373ffffffffffffffffffffffffffffffffffffffff16021790555060a0820151816005015560c08201518160060160006101000a81548160ff0219169083151502179055509050508373ffffffffffffffffffffffffffffffffffffffff166323b872dd3330866040518463ffffffff1660e01b815260040161088f93929190611afe565b600060405180830381600087803b1580156108a957600080fd5b505af11580156108bd573d6000803e3d6000fd5b50505050828473ffffffffffffffffffffffffffffffffffffffff16827f045dfa01dcba2b36aba1d3dc4a874f4b0c5d2fbeb8d2c4b34a7d88c8d8f929d13360008760006040516109119493929190611ab9565b60405180910390a4506001600081905550505050565b606060006109356001611604565b905060008060005b838110156109de573373ffffffffffffffffffffffffffffffffffffffff166005600060018461096d9190611ccb565b815260200190815260200160002060040160009054906101000a900473ffffffffffffffffffffffffffffffffffffffff1673ffffffffffffffffffffffffffffffffffffffff1614156109cb576001836109c89190611ccb565b92505b80806109d690611de5565b91505061093d565b5060008267ffffffffffffffff811115610a21577f4e487b7100000000000000000000000000000000000000000000000000000000600052604160045260246000fd5b604051908082528060200260200182016040528015610a5a57816020015b610a47611628565b815260200190600190039081610a3f5790505b50905060005b84811015610cb6573373ffffffffffffffffffffffffffffffffffffffff1660056000600184610a909190611ccb565b815260200190815260200160002060040160009054906101000a900473ffffffffffffffffffffffffffffffffffffffff1673ffffffffffffffffffffffffffffffffffffffff161415610ca3576000600182610aed9190611ccb565b90506000600560008381526020019081526020016000209050806040518060e0016040529081600082015481526020016001820160009054906101000a900473ffffffffffffffffffffffffffffffffffffffff1673ffffffffffffffffffffffffffffffffffffffff1673ffffffffffffffffffffffffffffffffffffffff168152602001600282015481526020016003820160009054906101000a900473ffffffffffffffffffffffffffffffffffffffff1673ffffffffffffffffffffffffffffffffffffffff1673ffffffffffffffffffffffffffffffffffffffff1681526020016004820160009054906101000a900473ffffffffffffffffffffffffffffffffffffffff1673ffffffffffffffffffffffffffffffffffffffff1673ffffffffffffffffffffffffffffffffffffffff168152602001600582015481526020016006820160009054906101000a900460ff161515151581525050848681518110610c86577f4e487b7100000000000000000000000000000000000000000000000000000000600052603260045260246000fd5b6020026020010181905250600185610c9e9190611ccb565b945050505b8080610cae90611de5565b915050610a60565b508094505050505090565b600080610cce6001611604565b90508091505090565b60026000541415610d1d576040517f08c379a0000000000000000000000000000000000000000000000000000000008152600401610d1490611b97565b60405180910390fd5b6002600081905550600060056000838152602001908152602001600020600501549050600060056000848152602001908152602001600020600201549050813414610d9d576040517f08c379a0000000000000000000000000000000000000000000000000000000008152600401610d9490611b77565b60405180910390fd5b6005600084815260200190815260200160002060040160009054906101000a900473ffffffffffffffffffffffffffffffffffffffff1673ffffffffffffffffffffffffffffffffffffffff163373ffffffffffffffffffffffffffffffffffffffff161415610e42576040517f08c379a0000000000000000000000000000000000000000000000000000000008152600401610e3990611bd7565b60405180910390fd5b6005600084815260200190815260200160002060030160009054906101000a900473ffffffffffffffffffffffffffffffffffffffff1673ffffffffffffffffffffffffffffffffffffffff166108fc349081150290604051600060405180830381858888f19350505050158015610ebe573d6000803e3d6000fd5b508373ffffffffffffffffffffffffffffffffffffffff166323b872dd3033846040518463ffffffff1660e01b8152600401610efc93929190611afe565b600060405180830381600087803b158015610f1657600080fd5b505af1158015610f2a573d6000803e3d6000fd5b50505050336005600085815260200190815260200160002060040160006101000a81548173ffffffffffffffffffffffffffffffffffffffff021916908373ffffffffffffffffffffffffffffffffffffffff16021790555060016005600085815260200190815260200160002060060160006101000a81548160ff021916908315150217905550610fbc6002611612565b600360009054906101000a900473ffffffffffffffffffffffffffffffffffffffff1673ffffffffffffffffffffffffffffffffffffffff166108fc6004549081150290604051600060405180830381858888f19350505050158015611026573d6000803e3d6000fd5b50505060016000819055505050565b6002600054141561107b576040517f08c379a000000000000000000000000000000000000000000000000000000000815260040161107290611b97565b60405180910390fd5b6002600081905550600081116110c6576040517f08c379a00000000000000000000000000000000000000000000000000000000081526004016110bd90611bb7565b60405180910390fd5b600454341461110a576040517f08c379a000000000000000000000000000000000000000000000000000000000815260040161110190611b57565b60405180910390fd5b60006005600084815260200190815260200160002060020154905081600560008581526020019081526020016000206005018190555060006005600085815260200190815260200160002060060160006101000a81548160ff0219169083151502179055508373ffffffffffffffffffffffffffffffffffffffff166323b872dd3330846040518463ffffffff1660e01b81526004016111ac93929190611afe565b600060405180830381600087803b1580156111c657600080fd5b505af11580156111da573d6000803e3d6000fd5b50505050808473ffffffffffffffffffffffffffffffffffffffff16847f045dfa01dcba2b36aba1d3dc4a874f4b0c5d2fbeb8d2c4b34a7d88c8d8f929d133600087600060405161122e9493929190611ab9565b60405180910390a4506001600081905550505050565b600360009054906101000a900473ffffffffffffffffffffffffffffffffffffffff1681565b606060006112786001611604565b905060008060005b83811015611321573373ffffffffffffffffffffffffffffffffffffffff16600560006001846112b09190611ccb565b815260200190815260200160002060030160009054906101000a900473ffffffffffffffffffffffffffffffffffffffff1673ffffffffffffffffffffffffffffffffffffffff16141561130e5760018361130b9190611ccb565b92505b808061131990611de5565b915050611280565b5060008267ffffffffffffffff811115611364577f4e487b7100000000000000000000000000000000000000000000000000000000600052604160045260246000fd5b60405190808252806020026020018201604052801561139d57816020015b61138a611628565b8152602001906001900390816113825790505b50905060005b848110156115f9573373ffffffffffffffffffffffffffffffffffffffff16600560006001846113d39190611ccb565b815260200190815260200160002060030160009054906101000a900473ffffffffffffffffffffffffffffffffffffffff1673ffffffffffffffffffffffffffffffffffffffff1614156115e65760006001826114309190611ccb565b90506000600560008381526020019081526020016000209050806040518060e0016040529081600082015481526020016001820160009054906101000a900473ffffffffffffffffffffffffffffffffffffffff1673ffffffffffffffffffffffffffffffffffffffff1673ffffffffffffffffffffffffffffffffffffffff168152602001600282015481526020016003820160009054906101000a900473ffffffffffffffffffffffffffffffffffffffff1673ffffffffffffffffffffffffffffffffffffffff1673ffffffffffffffffffffffffffffffffffffffff1681526020016004820160009054906101000a900473ffffffffffffffffffffffffffffffffffffffff1673ffffffffffffffffffffffffffffffffffffffff1673ffffffffffffffffffffffffffffffffffffffff168152602001600582015481526020016006820160009054906101000a900460ff1615151515815250508486815181106115c9577f4e487b7100000000000000000000000000000000000000000000000000000000600052603260045260246000fd5b60200260200101819052506001856115e19190611ccb565b945050505b80806115f190611de5565b9150506113a3565b508094505050505090565b600081600001549050919050565b6001816000016000828254019250508190555050565b6040518060e0016040528060008152602001600073ffffffffffffffffffffffffffffffffffffffff16815260200160008152602001600073ffffffffffffffffffffffffffffffffffffffff168152602001600073ffffffffffffffffffffffffffffffffffffffff168152602001600081526020016000151581525090565b6000813590506116b881611e5d565b92915050565b6000813590506116cd81611e74565b92915050565b600080604083850312156116e657600080fd5b60006116f4858286016116a9565b9250506020611705858286016116be565b9150509250929050565b60008060006060848603121561172457600080fd5b6000611732868287016116a9565b9350506020611743868287016116be565b9250506040611754868287016116be565b9150509250925092565b60006020828403121561177057600080fd5b600061177e848285016116be565b91505092915050565b600061179383836119f2565b60e08301905092915050565b6117a881611daf565b82525050565b6117b781611d67565b82525050565b6117c681611d67565b82525050565b6117d581611d55565b82525050565b6117e481611d55565b82525050565b60006117f582611c91565b6117ff8185611ca9565b935061180a83611c81565b8060005b8381101561183b5781516118228882611787565b975061182d83611c9c565b92505060018101905061180e565b5085935050505092915050565b61185181611d79565b82525050565b61186081611d79565b82525050565b6000611873602183611cba565b91507f76616c7565206d75737420657175616c20746f206c697374696e67207072696360008301527f65000000000000000000000000000000000000000000000000000000000000006020830152604082019050919050565b60006118d9603883611cba565b91507f746f20636f6d706c69742074686973207472616e73616374696f6e20796f752060008301527f73686f756c6420686176652061736b696e6720707269636500000000000000006020830152604082019050919050565b600061193f601f83611cba565b91507f5265656e7472616e637947756172643a207265656e7472616e742063616c6c006000830152602082019050919050565b600061197f601d83611cba565b91507f7072696365206d757374206265206772617465727468616e207a65726f0000006000830152602082019050919050565b60006119bf601083611cba565b91507f6f776e65722063616e6e6f7420627579000000000000000000000000000000006000830152602082019050919050565b60e082016000820151611a086000850182611a80565b506020820151611a1b60208501826117cc565b506040820151611a2e6040850182611a80565b506060820151611a4160608501826117ae565b506080820151611a5460808501826117ae565b5060a0820151611a6760a0850182611a80565b5060c0820151611a7a60c0850182611848565b50505050565b611a8981611da5565b82525050565b611a9881611da5565b82525050565b6000602082019050611ab360008301846117bd565b92915050565b6000608082019050611ace600083018761179f565b611adb602083018661179f565b611ae86040830185611a8f565b611af56060830184611857565b95945050505050565b6000606082019050611b1360008301866117db565b611b2060208301856117db565b611b2d6040830184611a8f565b949350505050565b60006020820190508181036000830152611b4f81846117ea565b905092915050565b60006020820190508181036000830152611b7081611866565b9050919050565b60006020820190508181036000830152611b90816118cc565b9050919050565b60006020820190508181036000830152611bb081611932565b9050919050565b60006020820190508181036000830152611bd081611972565b9050919050565b60006020820190508181036000830152611bf0816119b2565b9050919050565b6000602082019050611c0c6000830184611a8f565b92915050565b600060e082019050611c27600083018a611a8f565b611c3460208301896117db565b611c416040830188611a8f565b611c4e60608301876117bd565b611c5b60808301866117bd565b611c6860a0830185611a8f565b611c7560c0830184611857565b98975050505050505050565b6000819050602082019050919050565b600081519050919050565b6000602082019050919050565b600082825260208201905092915050565b600082825260208201905092915050565b6000611cd682611da5565b9150611ce183611da5565b9250827fffffffffffffffffffffffffffffffffffffffffffffffffffffffffffffffff03821115611d1657611d15611e2e565b5b828201905092915050565b6000611d2c82611da5565b9150611d3783611da5565b925082821015611d4a57611d49611e2e565b5b828203905092915050565b6000611d6082611d85565b9050919050565b6000611d7282611d85565b9050919050565b60008115159050919050565b600073ffffffffffffffffffffffffffffffffffffffff82169050919050565b6000819050919050565b6000611dba82611dc1565b9050919050565b6000611dcc82611dd3565b9050919050565b6000611dde82611d85565b9050919050565b6000611df082611da5565b91507fffffffffffffffffffffffffffffffffffffffffffffffffffffffffffffffff821415611e2357611e22611e2e565b5b600182019050919050565b7f4e487b7100000000000000000000000000000000000000000000000000000000600052601160045260246000fd5b611e6681611d55565b8114611e7157600080fd5b50565b611e7d81611da5565b8114611e8857600080fd5b5056fea2646970667358221220561d80a40f49c8fd2b40e98c5dcbfa3ef5f0a0fbe02159c6b26b6487ec68013a64736f6c63430008000033",
  "immutableReferences": {},
  "source": "// SPDX-License-Identifier: MIT\npragma solidity >=0.4.22 <0.9.0;\n\n// import \"https://github.com/OpenZeppelin/openzeppelin-contracts/blob/master/contracts/token/ERC721/ERC721.sol\";\n// import \"https://github.com/OpenZeppelin/openzeppelin-contracts/blob/master/contracts/utils/Counters.sol\";\n// import \"https://github.com/OpenZeppelin/openzeppelin-contracts/blob/master/contracts/security/ReentrancyGuard.sol\";\n\nimport \"@openzeppelin/contracts/token/ERC721/ERC721.sol\";\nimport \"@openzeppelin/contracts/utils/Counters.sol\";\nimport \"@openzeppelin/contracts/security/ReentrancyGuard.sol\";\n\n\ncontract NFTmarketplace is ReentrancyGuard {\n    using Counters for Counters.Counter;\n    Counters.Counter private _itemIds;\n    Counters.Counter private _itemSold;\n\n    address payable public owner;\n    uint listingPrice = 0.025 ether;\n\n    constructor(){\n    owner = payable(msg.sender) ;\n    }\n\n    struct MarketItem{\n        uint itemId;\n        address nftContracts;\n        uint tokenId;\n        address payable seller;\n        address payable owner;\n        uint price;\n        bool sold;\n    }\n     \n    mapping (uint => MarketItem) public idMarketItem;\n\n    event MarketItemCreated(\n        uint indexed itemId,\n        address indexed nftContracts,\n        uint indexed tokenId,\n        address  seller,\n        address owner,\n        uint price,\n        bool sold\n    );\n\n    function getListingPrice() public view returns(uint){\n        return listingPrice;\n    }\n     function marketItemCont() public view returns(uint){\n       uint newItemId = _itemIds.current();\n        return newItemId;\n    }\n\n\n    function createMarketplace(address nftContract, uint tokenId, uint price) public payable nonReentrant {\n        require(price > 0 , \"price must be graterthan zero\");\n        require(msg.value == listingPrice, \"value must equal to listing price\");\n\n        _itemIds.increment();\n        uint newItemId = _itemIds.current();\n\n        idMarketItem[newItemId] = MarketItem(\n            newItemId,\n            nftContract,\n            tokenId,\n            payable(msg.sender),\n            payable(address(0)),\n            price,\n            false\n\n        );\n        IERC721(nftContract).transferFrom(msg.sender, address(this), tokenId);\n\n        emit MarketItemCreated(\n            newItemId,\n            nftContract,\n            tokenId,\n            payable(msg.sender),\n            payable(address(0)),\n            price,\n            false\n\n        );\n    }\n\n      function sellMarketplace(address nftContract, uint Id, uint price) public payable nonReentrant {\n        require(price > 0 , \"price must be graterthan zero\");\n        require(msg.value == listingPrice, \"value must equal to listing price\");\n        uint tokenId = idMarketItem[Id].tokenId;\n        idMarketItem[Id].price = price;\n        idMarketItem[Id].sold = false;\n        // idMarketItem[Id].seller = msg.sender;\n\n      \n        IERC721(nftContract).transferFrom(msg.sender, address(this), tokenId);\n\n        emit MarketItemCreated(\n            Id,\n            nftContract,\n            tokenId,\n            payable(msg.sender),\n            payable(address(0)),\n            price,\n            false\n\n        );\n    }\n\n    function creatMarketSales(address nftContract, uint ItemId) public payable nonReentrant{\n        uint price = idMarketItem[ItemId].price;\n        uint tokenId = idMarketItem[ItemId].tokenId;\n        require(msg.value == price, \"to complit this transaction you should have asking price\");\n        require(msg.sender != idMarketItem[ItemId].owner, \"owner cannot buy\");\n        \n        idMarketItem[ItemId].seller.transfer(msg.value);\n        IERC721(nftContract).transferFrom(address(this), msg.sender, tokenId) ;\n        idMarketItem[ItemId].owner = payable(msg.sender);\n        idMarketItem[ItemId].sold = true;\n          _itemSold.increment();\n        payable(owner).transfer(listingPrice);\n        \n\n    }\n\n     function fetchMarketItems() public view returns (MarketItem[] memory) {\n    uint itemCount = _itemIds.current();\n    uint unsoldItemCount = _itemIds.current() - _itemSold.current();\n    uint currentIndex = 0;\n\n    MarketItem[] memory items = new MarketItem[](unsoldItemCount);\n    for (uint i = 0; i < itemCount; i++) {\n      if (idMarketItem[i + 1].sold == false) {\n        uint currentId = i + 1;\n        MarketItem storage currentItem = idMarketItem[currentId];\n        items[currentIndex] = currentItem;\n        currentIndex += 1;\n      }\n    }\n    return items;\n  }\n\n\n  function fetchMyNFTs() public view returns (MarketItem[] memory) {\n    uint totalItemCount = _itemIds.current();\n    uint itemCount = 0;\n    uint currentIndex = 0;\n\n    for (uint i = 0; i < totalItemCount; i++) {\n      if (idMarketItem[i + 1].owner == msg.sender) {\n        itemCount += 1;\n      }\n    }\n\n    MarketItem[] memory items = new MarketItem[](itemCount);\n    for (uint i = 0; i < totalItemCount; i++) {\n      if (idMarketItem[i + 1].owner == msg.sender) {\n        uint currentId = i + 1;\n        MarketItem storage currentItem = idMarketItem[currentId];\n        items[currentIndex] = currentItem;\n        currentIndex += 1;\n      }\n    }\n    return items;\n  }\n\n  /* Returns only items a user has created */\n  function fetchItemsCreated() public view returns (MarketItem[] memory) {\n    uint totalItemCount = _itemIds.current();\n    uint itemCount = 0;\n    uint currentIndex = 0;\n\n    for (uint i = 0; i < totalItemCount; i++) {\n      if (idMarketItem[i + 1].seller == msg.sender) {\n        itemCount += 1;\n      }\n    }\n\n    MarketItem[] memory items = new MarketItem[](itemCount);\n    for (uint i = 0; i < totalItemCount; i++) {\n      if (idMarketItem[i + 1].seller == msg.sender) {\n        uint currentId = i + 1;\n        MarketItem storage currentItem = idMarketItem[currentId];\n        items[currentIndex] = currentItem;\n        currentIndex += 1;\n      }\n    }\n    return items;\n  }\n\n\n}\n\n\n",
  "sourcePath": "/home/nisamudheen/Desktop/sps/NFT_MARKETPLACE/contracts/NFTmarketplace.sol",
  "compiler": {
    "name": "solc",
    "version": "0.8.0+commit.c7dfd78e.Emscripten.clang"
  },
  "schemaVersion": "3.4.3",
  "updatedAt": "2022-01-27T03:49:17.604Z",
  "networkType": "ethereum",
  "devdoc": {
    "kind": "dev",
    "methods": {},
    "version": 1
  },
  "userdoc": {
    "kind": "user",
    "methods": {},
    "version": 1
  }
}