{
  "contractName": "NFTmarketplace",
  "abi": [
    {
      "inputs": [],
      "stateMutability": "nonpayable",
      "type": "constructor"
    },
    {
      "anonymous": false,
      "inputs": [
        {
          "indexed": true,
          "internalType": "uint256",
          "name": "itemId",
          "type": "uint256"
        },
        {
          "indexed": true,
          "internalType": "address",
          "name": "nftContracts",
          "type": "address"
        },
        {
          "indexed": true,
          "internalType": "uint256",
          "name": "tokenId",
          "type": "uint256"
        },
        {
          "indexed": false,
          "internalType": "address",
          "name": "seller",
          "type": "address"
        },
        {
          "indexed": false,
          "internalType": "address",
          "name": "owner",
          "type": "address"
        },
        {
          "indexed": false,
          "internalType": "uint256",
          "name": "price",
          "type": "uint256"
        },
        {
          "indexed": false,
          "internalType": "bool",
          "name": "sold",
          "type": "bool"
        },
        {
          "indexed": false,
          "internalType": "bool",
          "name": "auction",
          "type": "bool"
        }
      ],
      "name": "MarketItemCreated",
      "type": "event"
    },
    {
      "inputs": [
        {
          "internalType": "uint256",
          "name": "",
          "type": "uint256"
        }
      ],
      "name": "auctions",
      "outputs": [
        {
          "internalType": "uint256",
          "name": "staringPrice",
          "type": "uint256"
        },
        {
          "internalType": "uint256",
          "name": "duration",
          "type": "uint256"
        },
        {
          "internalType": "uint256",
          "name": "auctiontime",
          "type": "uint256"
        },
        {
          "internalType": "bool",
          "name": "finished",
          "type": "bool"
        },
        {
          "internalType": "uint256",
          "name": "amount",
          "type": "uint256"
        },
        {
          "internalType": "uint256",
          "name": "highestPrice",
          "type": "uint256"
        },
        {
          "internalType": "address",
          "name": "highestBidder",
          "type": "address"
        },
        {
          "internalType": "address",
          "name": "seller",
          "type": "address"
        },
        {
          "internalType": "uint256",
          "name": "bidderCount",
          "type": "uint256"
        },
        {
          "internalType": "uint256",
          "name": "bidderId",
          "type": "uint256"
        }
      ],
      "stateMutability": "view",
      "type": "function",
      "constant": true
    },
    {
      "inputs": [
        {
          "internalType": "uint256",
          "name": "",
          "type": "uint256"
        },
        {
          "internalType": "uint256",
          "name": "",
          "type": "uint256"
        }
      ],
      "name": "bidders",
      "outputs": [
        {
          "internalType": "address payable",
          "name": "addr",
          "type": "address"
        },
        {
          "internalType": "uint256",
          "name": "amount",
          "type": "uint256"
        },
        {
          "internalType": "uint256",
          "name": "bitAt",
          "type": "uint256"
        }
      ],
      "stateMutability": "view",
      "type": "function",
      "constant": true
    },
    {
      "inputs": [],
      "name": "duration",
      "outputs": [
        {
          "internalType": "uint256",
          "name": "",
          "type": "uint256"
        }
      ],
      "stateMutability": "view",
      "type": "function",
      "constant": true
    },
    {
      "inputs": [
        {
          "internalType": "uint256",
          "name": "",
          "type": "uint256"
        }
      ],
      "name": "idMarketItem",
      "outputs": [
        {
          "internalType": "uint256",
          "name": "itemId",
          "type": "uint256"
        },
        {
          "internalType": "address",
          "name": "nftContracts",
          "type": "address"
        },
        {
          "internalType": "uint256",
          "name": "tokenId",
          "type": "uint256"
        },
        {
          "internalType": "address payable",
          "name": "minter",
          "type": "address"
        },
        {
          "internalType": "address payable",
          "name": "seller",
          "type": "address"
        },
        {
          "internalType": "address payable",
          "name": "owner",
          "type": "address"
        },
        {
          "internalType": "uint256",
          "name": "price",
          "type": "uint256"
        },
        {
          "internalType": "bool",
          "name": "sold",
          "type": "bool"
        },
        {
          "internalType": "bool",
          "name": "auction",
          "type": "bool"
        },
        {
          "internalType": "uint256",
          "name": "auctionId",
          "type": "uint256"
        }
      ],
      "stateMutability": "view",
      "type": "function",
      "constant": true
    },
    {
      "inputs": [],
      "name": "owner",
      "outputs": [
        {
          "internalType": "address payable",
          "name": "",
          "type": "address"
        }
      ],
      "stateMutability": "view",
      "type": "function",
      "constant": true
    },
    {
      "inputs": [],
      "name": "getListingPrice",
      "outputs": [
        {
          "internalType": "uint256",
          "name": "",
          "type": "uint256"
        }
      ],
      "stateMutability": "view",
      "type": "function",
      "constant": true
    },
    {
      "inputs": [],
      "name": "marketItemCont",
      "outputs": [
        {
          "internalType": "uint256",
          "name": "",
          "type": "uint256"
        }
      ],
      "stateMutability": "view",
      "type": "function",
      "constant": true
    },
    {
      "inputs": [
        {
          "internalType": "address",
          "name": "nftContract",
          "type": "address"
        },
        {
          "internalType": "uint256",
          "name": "tokenId",
          "type": "uint256"
        },
        {
          "internalType": "uint256",
          "name": "price",
          "type": "uint256"
        },
        {
          "internalType": "bool",
          "name": "_auction",
          "type": "bool"
        }
      ],
      "name": "createMarketplace",
      "outputs": [],
      "stateMutability": "payable",
      "type": "function",
      "payable": true
    },
    {
      "inputs": [
        {
          "internalType": "address",
          "name": "nftContract",
          "type": "address"
        },
        {
          "internalType": "uint256",
          "name": "Id",
          "type": "uint256"
        },
        {
          "internalType": "uint256",
          "name": "price",
          "type": "uint256"
        }
      ],
      "name": "sellMarketplace",
      "outputs": [],
      "stateMutability": "payable",
      "type": "function",
      "payable": true
    },
    {
      "inputs": [
        {
          "internalType": "address",
          "name": "nftContract",
          "type": "address"
        },
        {
          "internalType": "uint256",
          "name": "ItemId",
          "type": "uint256"
        }
      ],
      "name": "creatMarketSales",
      "outputs": [],
      "stateMutability": "payable",
      "type": "function",
      "payable": true
    },
    {
      "inputs": [
        {
          "internalType": "address",
          "name": "nftContract",
          "type": "address"
        },
        {
          "internalType": "uint256",
          "name": "itemId",
          "type": "uint256"
        },
        {
          "internalType": "uint256",
          "name": "_staringPrice",
          "type": "uint256"
        }
      ],
      "name": "createAuction",
      "outputs": [],
      "stateMutability": "payable",
      "type": "function",
      "payable": true
    },
    {
      "inputs": [
        {
          "internalType": "uint256",
          "name": "_tokenId",
          "type": "uint256"
        }
      ],
      "name": "bid",
      "outputs": [],
      "stateMutability": "payable",
      "type": "function",
      "payable": true
    },
    {
      "inputs": [
        {
          "internalType": "uint256",
          "name": "id",
          "type": "uint256"
        }
      ],
      "name": "getBidder",
      "outputs": [
        {
          "components": [
            {
              "internalType": "address payable",
              "name": "addr",
              "type": "address"
            },
            {
              "internalType": "uint256",
              "name": "amount",
              "type": "uint256"
            },
            {
              "internalType": "uint256",
              "name": "bitAt",
              "type": "uint256"
            }
          ],
          "internalType": "struct NFTmarketplace.Bidder[]",
          "name": "",
          "type": "tuple[]"
        }
      ],
      "stateMutability": "view",
      "type": "function",
      "constant": true
    },
    {
      "inputs": [
        {
          "internalType": "address",
          "name": "nftContract",
          "type": "address"
        },
        {
          "internalType": "uint256",
          "name": "_tokenId",
          "type": "uint256"
        }
      ],
      "name": "finish",
      "outputs": [],
      "stateMutability": "nonpayable",
      "type": "function"
    },
    {
      "inputs": [],
      "name": "fetchMarketItems",
      "outputs": [
        {
          "components": [
            {
              "internalType": "uint256",
              "name": "itemId",
              "type": "uint256"
            },
            {
              "internalType": "address",
              "name": "nftContracts",
              "type": "address"
            },
            {
              "internalType": "uint256",
              "name": "tokenId",
              "type": "uint256"
            },
            {
              "internalType": "address payable",
              "name": "minter",
              "type": "address"
            },
            {
              "internalType": "address payable",
              "name": "seller",
              "type": "address"
            },
            {
              "internalType": "address payable",
              "name": "owner",
              "type": "address"
            },
            {
              "internalType": "uint256",
              "name": "price",
              "type": "uint256"
            },
            {
              "internalType": "bool",
              "name": "sold",
              "type": "bool"
            },
            {
              "internalType": "bool",
              "name": "auction",
              "type": "bool"
            },
            {
              "internalType": "uint256",
              "name": "auctionId",
              "type": "uint256"
            }
          ],
          "internalType": "struct NFTmarketplace.MarketItem[]",
          "name": "",
          "type": "tuple[]"
        }
      ],
      "stateMutability": "view",
      "type": "function",
      "constant": true
    },
    {
      "inputs": [],
      "name": "fetchMyNFTs",
      "outputs": [
        {
          "components": [
            {
              "internalType": "uint256",
              "name": "itemId",
              "type": "uint256"
            },
            {
              "internalType": "address",
              "name": "nftContracts",
              "type": "address"
            },
            {
              "internalType": "uint256",
              "name": "tokenId",
              "type": "uint256"
            },
            {
              "internalType": "address payable",
              "name": "minter",
              "type": "address"
            },
            {
              "internalType": "address payable",
              "name": "seller",
              "type": "address"
            },
            {
              "internalType": "address payable",
              "name": "owner",
              "type": "address"
            },
            {
              "internalType": "uint256",
              "name": "price",
              "type": "uint256"
            },
            {
              "internalType": "bool",
              "name": "sold",
              "type": "bool"
            },
            {
              "internalType": "bool",
              "name": "auction",
              "type": "bool"
            },
            {
              "internalType": "uint256",
              "name": "auctionId",
              "type": "uint256"
            }
          ],
          "internalType": "struct NFTmarketplace.MarketItem[]",
          "name": "",
          "type": "tuple[]"
        }
      ],
      "stateMutability": "view",
      "type": "function",
      "constant": true
    }
  ],
  "bytecode": "0x60806040526658d15e176280006005556201518060065534801561002257600080fd5b50600160008190555033600460006101000a81548173ffffffffffffffffffffffffffffffffffffffff021916908373ffffffffffffffffffffffffffffffffffffffff1602179055506138668061007b6000396000f3fe6080604052600436106100f35760003560e01c806342968c0b1161008a578063865109f211610059578063865109f2146102f45780638da5cb5b14610331578063abb940511461035c578063d1c1120514610378576100f3565b806342968c0b1461025a578063454a2ab314610276578063571a26a014610292578063864325e1146102d8576100f3565b806316219ef8116100c657806316219ef8146101bf578063202e3740146101db5780632900882414610206578063316c994a1461022f576100f3565b8063087ae8a2146100f85780630f08efe01461013e5780630fb5a6b41461016957806312e8558514610194575b600080fd5b34801561010457600080fd5b5061011f600480360381019061011a9190612b04565b6103b7565b6040516101359a9998979695949392919061349e565b60405180910390f35b34801561014a57600080fd5b506101536104a5565b60405161016091906132c1565b60405180910390f35b34801561017557600080fd5b5061017e6107fc565b60405161018b9190613483565b60405180910390f35b3480156101a057600080fd5b506101a9610802565b6040516101b69190613483565b60405180910390f35b6101d960048036038101906101d49190612aa1565b61080c565b005b3480156101e757600080fd5b506101f0610d84565b6040516101fd91906132c1565b60405180910390f35b34801561021257600080fd5b5061022d60048036038101906102289190612a16565b61119a565b005b34801561023b57600080fd5b506102446116d8565b6040516102519190613483565b60405180910390f35b610274600480360381019061026f9190612a16565b6116ee565b005b610290600480360381019061028b9190612b04565b611a12565b005b34801561029e57600080fd5b506102b960048036038101906102b49190612b04565b611e7e565b6040516102cf9a9998979695949392919061353a565b60405180910390f35b6102f260048036038101906102ed9190612a52565b611f1f565b005b34801561030057600080fd5b5061031b60048036038101906103169190612b04565b6121e4565b604051610328919061329f565b60405180910390f35b34801561033d57600080fd5b506103466123da565b60405161035391906131c3565b60405180910390f35b61037660048036038101906103719190612a52565b612400565b005b34801561038457600080fd5b5061039f600480360381019061039a9190612b2d565b612798565b6040516103ae93929190613231565b60405180910390f35b60096020528060005260406000206000915090508060000154908060010160009054906101000a900473ffffffffffffffffffffffffffffffffffffffff16908060020154908060030160009054906101000a900473ffffffffffffffffffffffffffffffffffffffff16908060040160009054906101000a900473ffffffffffffffffffffffffffffffffffffffff16908060050160009054906101000a900473ffffffffffffffffffffffffffffffffffffffff16908060060154908060070160009054906101000a900460ff16908060070160019054906101000a900460ff1690806008015490508a565b606060006104b360016127ff565b905060006104c160036127ff565b6104cb60016127ff565b6104d591906136af565b90506000808267ffffffffffffffff81111561051a577f4e487b7100000000000000000000000000000000000000000000000000000000600052604160045260246000fd5b60405190808252806020026020018201604052801561055357816020015b61054061287f565b8152602001906001900390816105385790505b50905060005b848110156107f15760001515600960006001846105769190613659565b815260200190815260200160002060070160009054906101000a900460ff16151514156107de5760006001826105ac9190613659565b905060006009600083815260200190815260200160002090508060405180610140016040529081600082015481526020016001820160009054906101000a900473ffffffffffffffffffffffffffffffffffffffff1673ffffffffffffffffffffffffffffffffffffffff1673ffffffffffffffffffffffffffffffffffffffff168152602001600282015481526020016003820160009054906101000a900473ffffffffffffffffffffffffffffffffffffffff1673ffffffffffffffffffffffffffffffffffffffff1673ffffffffffffffffffffffffffffffffffffffff1681526020016004820160009054906101000a900473ffffffffffffffffffffffffffffffffffffffff1673ffffffffffffffffffffffffffffffffffffffff1673ffffffffffffffffffffffffffffffffffffffff1681526020016005820160009054906101000a900473ffffffffffffffffffffffffffffffffffffffff1673ffffffffffffffffffffffffffffffffffffffff1673ffffffffffffffffffffffffffffffffffffffff168152602001600682015481526020016007820160009054906101000a900460ff161515151581526020016007820160019054906101000a900460ff161515151581526020016008820154815250508486815181106107c1577f4e487b7100000000000000000000000000000000000000000000000000000000600052603260045260246000fd5b60200260200101819052506001856107d99190613659565b945050505b80806107e990613773565b915050610559565b508094505050505090565b60065481565b6000600554905090565b60026000541415610852576040517f08c379a000000000000000000000000000000000000000000000000000000000815260040161084990613443565b60405180910390fd5b60026000819055506000821161089d576040517f08c379a000000000000000000000000000000000000000000000000000000000815260040161089490613463565b60405180910390fd5b60055434146108e1576040517f08c379a00000000000000000000000000000000000000000000000000000000081526004016108d890613383565b60405180910390fd5b6108eb600161280d565b60006108f760016127ff565b9050806009600083815260200190815260200160002060000181905550846009600083815260200190815260200160002060010160006101000a81548173ffffffffffffffffffffffffffffffffffffffff021916908373ffffffffffffffffffffffffffffffffffffffff160217905550836009600083815260200190815260200160002060020181905550336009600083815260200190815260200160002060030160006101000a81548173ffffffffffffffffffffffffffffffffffffffff021916908373ffffffffffffffffffffffffffffffffffffffff160217905550336009600083815260200190815260200160002060040160006101000a81548173ffffffffffffffffffffffffffffffffffffffff021916908373ffffffffffffffffffffffffffffffffffffffff160217905550306009600083815260200190815260200160002060050160006101000a81548173ffffffffffffffffffffffffffffffffffffffff021916908373ffffffffffffffffffffffffffffffffffffffff16021790555060006009600083815260200190815260200160002060070160006101000a81548160ff021916908315150217905550600115158215151415610c61576000600960008381526020019081526020016000206006018190555060016009600083815260200190815260200160002060070160016101000a81548160ff02191690831515021790555061025842610b189190613659565b600760008681526020019081526020016000206001018190555042600760008681526020019081526020016000206002018190555082600760008681526020019081526020016000206000018190555060006007600086815260200190815260200160002060030160006101000a81548160ff021916908315150217905550336007600086815260200190815260200160002060070160006101000a81548173ffffffffffffffffffffffffffffffffffffffff021916908373ffffffffffffffffffffffffffffffffffffffff160217905550336007600086815260200190815260200160002060060160006101000a81548173ffffffffffffffffffffffffffffffffffffffff021916908373ffffffffffffffffffffffffffffffffffffffff160217905550836009600083815260200190815260200160002060080181905550610cac565b82600960008381526020019081526020016000206006018190555060006009600083815260200190815260200160002060070160016101000a81548160ff0219169083151502179055505b8473ffffffffffffffffffffffffffffffffffffffff166323b872dd3330876040518463ffffffff1660e01b8152600401610ce993929190613268565b600060405180830381600087803b158015610d0357600080fd5b505af1158015610d17573d6000803e3d6000fd5b50505050838573ffffffffffffffffffffffffffffffffffffffff16827fc99151f4453170a67bc7441775fde1a3bc3220c06645df1121e703aab5e7da5d60003388600080604051610d6d9594939291906131de565b60405180910390a450600160008190555050505050565b60606000610d9260016127ff565b905060008060005b83811015610e3b573373ffffffffffffffffffffffffffffffffffffffff1660096000600184610dca9190613659565b815260200190815260200160002060050160009054906101000a900473ffffffffffffffffffffffffffffffffffffffff1673ffffffffffffffffffffffffffffffffffffffff161415610e2857600183610e259190613659565b92505b8080610e3390613773565b915050610d9a565b5060008267ffffffffffffffff811115610e7e577f4e487b7100000000000000000000000000000000000000000000000000000000600052604160045260246000fd5b604051908082528060200260200182016040528015610eb757816020015b610ea461287f565b815260200190600190039081610e9c5790505b50905060005b8481101561118f573373ffffffffffffffffffffffffffffffffffffffff1660096000600184610eed9190613659565b815260200190815260200160002060050160009054906101000a900473ffffffffffffffffffffffffffffffffffffffff1673ffffffffffffffffffffffffffffffffffffffff16141561117c576000600182610f4a9190613659565b905060006009600083815260200190815260200160002090508060405180610140016040529081600082015481526020016001820160009054906101000a900473ffffffffffffffffffffffffffffffffffffffff1673ffffffffffffffffffffffffffffffffffffffff1673ffffffffffffffffffffffffffffffffffffffff168152602001600282015481526020016003820160009054906101000a900473ffffffffffffffffffffffffffffffffffffffff1673ffffffffffffffffffffffffffffffffffffffff1673ffffffffffffffffffffffffffffffffffffffff1681526020016004820160009054906101000a900473ffffffffffffffffffffffffffffffffffffffff1673ffffffffffffffffffffffffffffffffffffffff1673ffffffffffffffffffffffffffffffffffffffff1681526020016005820160009054906101000a900473ffffffffffffffffffffffffffffffffffffffff1673ffffffffffffffffffffffffffffffffffffffff1673ffffffffffffffffffffffffffffffffffffffff168152602001600682015481526020016007820160009054906101000a900460ff161515151581526020016007820160019054906101000a900460ff1615151515815260200160088201548152505084868151811061115f577f4e487b7100000000000000000000000000000000000000000000000000000000600052603260045260246000fd5b60200260200101819052506001856111779190613659565b945050505b808061118790613773565b915050610ebd565b508094505050505090565b3373ffffffffffffffffffffffffffffffffffffffff166009600083815260200190815260200160002060040160009054906101000a900473ffffffffffffffffffffffffffffffffffffffff1673ffffffffffffffffffffffffffffffffffffffff161461123e576040517f08c379a000000000000000000000000000000000000000000000000000000000815260040161123590613403565b60405180910390fd5b6007600082815260200190815260200160002060010154421015611297576040517f08c379a000000000000000000000000000000000000000000000000000000000815260040161128e906133e3565b60405180910390fd5b600115156009600083815260200190815260200160002060070160019054906101000a900460ff16151514611301576040517f08c379a00000000000000000000000000000000000000000000000000000000081526004016112f890613343565b60405180910390fd5b60005b6001600860008481526020019081526020016000208054905061132791906136af565b81101561154c576007600083815260200190815260200160002060060160009054906101000a900473ffffffffffffffffffffffffffffffffffffffff1673ffffffffffffffffffffffffffffffffffffffff166008600084815260200190815260200160002082815481106113c6577f4e487b7100000000000000000000000000000000000000000000000000000000600052603260045260246000fd5b906000526020600020906003020160000160009054906101000a900473ffffffffffffffffffffffffffffffffffffffff1673ffffffffffffffffffffffffffffffffffffffff1614611539576000600860008481526020019081526020016000208281548110611460577f4e487b7100000000000000000000000000000000000000000000000000000000600052603260045260246000fd5b90600052602060002090600302016001015490506008600084815260200190815260200160002082815481106114bf577f4e487b7100000000000000000000000000000000000000000000000000000000600052603260045260246000fd5b906000526020600020906003020160000160009054906101000a900473ffffffffffffffffffffffffffffffffffffffff1673ffffffffffffffffffffffffffffffffffffffff166108fc829081150290604051600060405180830381858888f19350505050158015611536573d6000803e3d6000fd5b50505b808061154490613773565b915050611304565b5060086000828152602001908152602001600020600061156c919061292e565b60006007600083815260200190815260200160002060060160009054906101000a900473ffffffffffffffffffffffffffffffffffffffff169050806009600084815260200190815260200160002060050160006101000a81548173ffffffffffffffffffffffffffffffffffffffff021916908373ffffffffffffffffffffffffffffffffffffffff16021790555060016009600084815260200190815260200160002060070160006101000a81548160ff02191690831515021790555060016007600084815260200190815260200160002060030160006101000a81548160ff021916908315150217905550611664600361280d565b8273ffffffffffffffffffffffffffffffffffffffff166323b872dd3083856040518463ffffffff1660e01b81526004016116a193929190613268565b600060405180830381600087803b1580156116bb57600080fd5b505af11580156116cf573d6000803e3d6000fd5b50505050505050565b6000806116e560016127ff565b90508091505090565b60026000541415611734576040517f08c379a000000000000000000000000000000000000000000000000000000000815260040161172b90613443565b60405180910390fd5b6002600081905550600060096000838152602001908152602001600020600601549050600060096000848152602001908152602001600020600201549050813410156117b5576040517f08c379a00000000000000000000000000000000000000000000000000000000081526004016117ac906133c3565b60405180910390fd5b600015156009600085815260200190815260200160002060070160019054906101000a900460ff1615151461181f576040517f08c379a000000000000000000000000000000000000000000000000000000000815260040161181690613343565b60405180910390fd5b6009600084815260200190815260200160002060040160009054906101000a900473ffffffffffffffffffffffffffffffffffffffff1673ffffffffffffffffffffffffffffffffffffffff166108fc349081150290604051600060405180830381858888f1935050505015801561189b573d6000803e3d6000fd5b508373ffffffffffffffffffffffffffffffffffffffff166323b872dd3033846040518463ffffffff1660e01b81526004016118d993929190613268565b600060405180830381600087803b1580156118f357600080fd5b505af1158015611907573d6000803e3d6000fd5b50505050336009600085815260200190815260200160002060050160006101000a81548173ffffffffffffffffffffffffffffffffffffffff021916908373ffffffffffffffffffffffffffffffffffffffff16021790555060016009600085815260200190815260200160002060070160006101000a81548160ff021916908315150217905550611999600361280d565b600460009054906101000a900473ffffffffffffffffffffffffffffffffffffffff1673ffffffffffffffffffffffffffffffffffffffff166108fc6005549081150290604051600060405180830381858888f19350505050158015611a03573d6000803e3d6000fd5b50505060016000819055505050565b6007600082815260200190815260200160002060010154421115611a6b576040517f08c379a0000000000000000000000000000000000000000000000000000000008152600401611a6290613423565b60405180910390fd5b6000600190505b60076000838152602001908152602001600020600801548111611b995760086000838152602001908152602001600020600182611aaf91906136af565b81548110611ae6577f4e487b7100000000000000000000000000000000000000000000000000000000600052603260045260246000fd5b906000526020600020906003020160000160009054906101000a900473ffffffffffffffffffffffffffffffffffffffff1673ffffffffffffffffffffffffffffffffffffffff163373ffffffffffffffffffffffffffffffffffffffff161415611b86576040517f08c379a0000000000000000000000000000000000000000000000000000000008152600401611b7d906133a3565b60405180910390fd5b8080611b9190613773565b915050611a72565b506007600082815260200190815260200160002060000154341015611bf3576040517f08c379a0000000000000000000000000000000000000000000000000000000008152600401611bea90613363565b60405180910390fd5b6007600082815260200190815260200160002060030160009054906101000a900460ff1615611c57576040517f08c379a0000000000000000000000000000000000000000000000000000000008152600401611c4e90613323565b60405180910390fd5b60076000828152602001908152602001600020600501543411611caf576040517f08c379a0000000000000000000000000000000000000000000000000000000008152600401611ca690613303565b60405180910390fd5b6008600082815260200190815260200160002060405180606001604052803373ffffffffffffffffffffffffffffffffffffffff16815260200134815260200142815250908060018154018082558091505060019003906000526020600020906003020160009091909190915060008201518160000160006101000a81548173ffffffffffffffffffffffffffffffffffffffff021916908373ffffffffffffffffffffffffffffffffffffffff16021790555060208201518160010155604082015181600201555050600760008281526020019081526020016000206008016000815480929190611da090613773565b919050555080600760008381526020019081526020016000206009018190555034600760008381526020019081526020016000206004016000828254611de69190613659565b9250508190555060076000828152602001908152602001600020600501543410611e7b57346007600083815260200190815260200160002060050181905550336007600083815260200190815260200160002060060160006101000a81548173ffffffffffffffffffffffffffffffffffffffff021916908373ffffffffffffffffffffffffffffffffffffffff1602179055505b50565b60076020528060005260406000206000915090508060000154908060010154908060020154908060030160009054906101000a900460ff16908060040154908060050154908060060160009054906101000a900473ffffffffffffffffffffffffffffffffffffffff16908060070160009054906101000a900473ffffffffffffffffffffffffffffffffffffffff1690806008015490806009015490508a565b60026000541415611f65576040517f08c379a0000000000000000000000000000000000000000000000000000000008152600401611f5c90613443565b60405180910390fd5b600260008190555060008111611fb0576040517f08c379a0000000000000000000000000000000000000000000000000000000008152600401611fa790613463565b60405180910390fd5b600554341015611ff5576040517f08c379a0000000000000000000000000000000000000000000000000000000008152600401611fec90613383565b60405180910390fd5b60006009600084815260200190815260200160002060020154905081600960008581526020019081526020016000206006018190555060006009600085815260200190815260200160002060070160006101000a81548160ff021916908315150217905550306009600085815260200190815260200160002060050160006101000a81548173ffffffffffffffffffffffffffffffffffffffff021916908373ffffffffffffffffffffffffffffffffffffffff160217905550336009600085815260200190815260200160002060040160006101000a81548173ffffffffffffffffffffffffffffffffffffffff021916908373ffffffffffffffffffffffffffffffffffffffff1602179055508373ffffffffffffffffffffffffffffffffffffffff166323b872dd3330846040518463ffffffff1660e01b815260040161214193929190613268565b600060405180830381600087803b15801561215b57600080fd5b505af115801561216f573d6000803e3d6000fd5b50505050808473ffffffffffffffffffffffffffffffffffffffff16847fc99151f4453170a67bc7441775fde1a3bc3220c06645df1121e703aab5e7da5d3033876000806040516121c49594939291906131de565b60405180910390a46121d66003612823565b506001600081905550505050565b60606000600860008481526020019081526020016000208054905067ffffffffffffffff81111561223e577f4e487b7100000000000000000000000000000000000000000000000000000000600052604160045260246000fd5b60405190808252806020026020018201604052801561227757816020015b612264612952565b81526020019060019003908161225c5790505b5090506000805b60086000868152602001908152602001600020805490508110156123cf576008600086815260200190815260200160002081815481106122e7577f4e487b7100000000000000000000000000000000000000000000000000000000600052603260045260246000fd5b90600052602060002090600302016040518060600160405290816000820160009054906101000a900473ffffffffffffffffffffffffffffffffffffffff1673ffffffffffffffffffffffffffffffffffffffff1673ffffffffffffffffffffffffffffffffffffffff168152602001600182015481526020016002820154815250508383815181106123a3577f4e487b7100000000000000000000000000000000000000000000000000000000600052603260045260246000fd5b602002602001018190525081806123b990613773565b92505080806123c790613773565b91505061227e565b508192505050919050565b600460009054906101000a900473ffffffffffffffffffffffffffffffffffffffff1681565b60026000541415612446576040517f08c379a000000000000000000000000000000000000000000000000000000000815260040161243d90613443565b60405180910390fd5b600260008190555060008111612491576040517f08c379a000000000000000000000000000000000000000000000000000000000815260040161248890613463565b60405180910390fd5b60055434146124d5576040517f08c379a00000000000000000000000000000000000000000000000000000000081526004016124cc90613383565b60405180910390fd5b600060096000848152602001908152602001600020600201549050610258426124fe9190613659565b6007600083815260200190815260200160002060010181905550426007600083815260200190815260200160002060020181905550816007600083815260200190815260200160002060000181905550336007600083815260200190815260200160002060070160006101000a81548173ffffffffffffffffffffffffffffffffffffffff021916908373ffffffffffffffffffffffffffffffffffffffff16021790555060006007600083815260200190815260200160002060030160006101000a81548160ff021916908315150217905550336009600085815260200190815260200160002060040160006101000a81548173ffffffffffffffffffffffffffffffffffffffff021916908373ffffffffffffffffffffffffffffffffffffffff160217905550306009600085815260200190815260200160002060050160006101000a81548173ffffffffffffffffffffffffffffffffffffffff021916908373ffffffffffffffffffffffffffffffffffffffff1602179055506000600960008581526020019081526020016000206006018190555060006009600085815260200190815260200160002060070160006101000a81548160ff02191690831515021790555060016009600085815260200190815260200160002060070160016101000a81548160ff0219169083151502179055508060096000858152602001908152602001600020600801819055508373ffffffffffffffffffffffffffffffffffffffff166323b872dd3330846040518463ffffffff1660e01b815260040161274e93929190613268565b600060405180830381600087803b15801561276857600080fd5b505af115801561277c573d6000803e3d6000fd5b5050505061278a6003612823565b506001600081905550505050565b600860205281600052604060002081815481106127b457600080fd5b9060005260206000209060030201600091509150508060000160009054906101000a900473ffffffffffffffffffffffffffffffffffffffff16908060010154908060020154905083565b600081600001549050919050565b6001816000016000828254019250508190555050565b6000816000015490506000811161286f576040517f08c379a0000000000000000000000000000000000000000000000000000000008152600401612866906132e3565b60405180910390fd5b6001810382600001819055505050565b60405180610140016040528060008152602001600073ffffffffffffffffffffffffffffffffffffffff16815260200160008152602001600073ffffffffffffffffffffffffffffffffffffffff168152602001600073ffffffffffffffffffffffffffffffffffffffff168152602001600073ffffffffffffffffffffffffffffffffffffffff16815260200160008152602001600015158152602001600015158152602001600081525090565b508054600082556003029060005260206000209081019061294f9190612989565b50565b6040518060600160405280600073ffffffffffffffffffffffffffffffffffffffff16815260200160008152602001600081525090565b5b808211156129d357600080820160006101000a81549073ffffffffffffffffffffffffffffffffffffffff0219169055600182016000905560028201600090555060030161298a565b5090565b6000813590506129e6816137eb565b92915050565b6000813590506129fb81613802565b92915050565b600081359050612a1081613819565b92915050565b60008060408385031215612a2957600080fd5b6000612a37858286016129d7565b9250506020612a4885828601612a01565b9150509250929050565b600080600060608486031215612a6757600080fd5b6000612a75868287016129d7565b9350506020612a8686828701612a01565b9250506040612a9786828701612a01565b9150509250925092565b60008060008060808587031215612ab757600080fd5b6000612ac5878288016129d7565b9450506020612ad687828801612a01565b9350506040612ae787828801612a01565b9250506060612af8878288016129ec565b91505092959194509250565b600060208284031215612b1657600080fd5b6000612b2484828501612a01565b91505092915050565b60008060408385031215612b4057600080fd5b6000612b4e85828601612a01565b9250506020612b5f85828601612a01565b9150509250929050565b6000612b758383613097565b60608301905092915050565b6000612b8d83836130d9565b6101408301905092915050565b612ba38161373d565b82525050565b612bb2816136f5565b82525050565b612bc1816136f5565b82525050565b612bd0816136e3565b82525050565b612bdf816136e3565b82525050565b6000612bf0826135f6565b612bfa8185613626565b9350612c05836135d6565b8060005b83811015612c36578151612c1d8882612b69565b9750612c288361360c565b925050600181019050612c09565b5085935050505092915050565b6000612c4e82613601565b612c588185613637565b9350612c63836135e6565b8060005b83811015612c94578151612c7b8882612b81565b9750612c8683613619565b925050600181019050612c67565b5085935050505092915050565b612caa81613707565b82525050565b612cb981613707565b82525050565b6000612ccc601b83613648565b91507f436f756e7465723a2064656372656d656e74206f766572666c6f7700000000006000830152602082019050919050565b6000612d0c602a83613648565b91507f50726963652073686f756420626520677261747465726572207468616e20686960008301527f67687374206269646572000000000000000000000000000000000000000000006020830152604082019050919050565b6000612d72600f83613648565b91507f617574696f6e2066696e697368656400000000000000000000000000000000006000830152602082019050919050565b6000612db2600783613648565b91507f616374696f6e20000000000000000000000000000000000000000000000000006000830152602082019050919050565b6000612df2602383613648565b91507f6d67732e73656e646572206973206c6573737468616e2073746172696e67507260008301527f69636500000000000000000000000000000000000000000000000000000000006020830152604082019050919050565b6000612e58602183613648565b91507f76616c7565206d75737420657175616c20746f206c697374696e67207072696360008301527f65000000000000000000000000000000000000000000000000000000000000006020830152604082019050919050565b6000612ebe601083613648565b91507f796f7520616c72656179206269646564000000000000000000000000000000006000830152602082019050919050565b6000612efe603883613648565b91507f746f20636f6d706c69742074686973207472616e73616374696f6e20796f752060008301527f73686f756c6420686176652061736b696e6720707269636500000000000000006020830152604082019050919050565b6000612f64601183613648565b91507f54696d65206e6f742065787061697265640000000000000000000000000000006000830152602082019050919050565b6000612fa4601783613648565b91507f73656c6c65722063616e206f6e6c7920617070726f76650000000000000000006000830152602082019050919050565b6000612fe4601083613648565b91507f4249442054696d652065787061697265000000000000000000000000000000006000830152602082019050919050565b6000613024601f83613648565b91507f5265656e7472616e637947756172643a207265656e7472616e742063616c6c006000830152602082019050919050565b6000613064601d83613648565b91507f7072696365206d757374206265206772617465727468616e207a65726f0000006000830152602082019050919050565b6060820160008201516130ad6000850182612ba9565b5060208201516130c060208501826131a5565b5060408201516130d360408501826131a5565b50505050565b610140820160008201516130f060008501826131a5565b5060208201516131036020850182612bc7565b50604082015161311660408501826131a5565b5060608201516131296060850182612ba9565b50608082015161313c6080850182612ba9565b5060a082015161314f60a0850182612ba9565b5060c082015161316260c08501826131a5565b5060e082015161317560e0850182612ca1565b5061010082015161318a610100850182612ca1565b5061012082015161319f6101208501826131a5565b50505050565b6131ae81613733565b82525050565b6131bd81613733565b82525050565b60006020820190506131d86000830184612bb8565b92915050565b600060a0820190506131f36000830188612b9a565b6132006020830187612b9a565b61320d60408301866131b4565b61321a6060830185612cb0565b6132276080830184612cb0565b9695505050505050565b60006060820190506132466000830186612bb8565b61325360208301856131b4565b61326060408301846131b4565b949350505050565b600060608201905061327d6000830186612bd6565b61328a6020830185612bd6565b61329760408301846131b4565b949350505050565b600060208201905081810360008301526132b98184612be5565b905092915050565b600060208201905081810360008301526132db8184612c43565b905092915050565b600060208201905081810360008301526132fc81612cbf565b9050919050565b6000602082019050818103600083015261331c81612cff565b9050919050565b6000602082019050818103600083015261333c81612d65565b9050919050565b6000602082019050818103600083015261335c81612da5565b9050919050565b6000602082019050818103600083015261337c81612de5565b9050919050565b6000602082019050818103600083015261339c81612e4b565b9050919050565b600060208201905081810360008301526133bc81612eb1565b9050919050565b600060208201905081810360008301526133dc81612ef1565b9050919050565b600060208201905081810360008301526133fc81612f57565b9050919050565b6000602082019050818103600083015261341c81612f97565b9050919050565b6000602082019050818103600083015261343c81612fd7565b9050919050565b6000602082019050818103600083015261345c81613017565b9050919050565b6000602082019050818103600083015261347c81613057565b9050919050565b600060208201905061349860008301846131b4565b92915050565b6000610140820190506134b4600083018d6131b4565b6134c1602083018c612bd6565b6134ce604083018b6131b4565b6134db606083018a612bb8565b6134e86080830189612bb8565b6134f560a0830188612bb8565b61350260c08301876131b4565b61350f60e0830186612cb0565b61351d610100830185612cb0565b61352b6101208301846131b4565b9b9a5050505050505050505050565b600061014082019050613550600083018d6131b4565b61355d602083018c6131b4565b61356a604083018b6131b4565b613577606083018a612cb0565b61358460808301896131b4565b61359160a08301886131b4565b61359e60c0830187612bd6565b6135ab60e0830186612bd6565b6135b96101008301856131b4565b6135c76101208301846131b4565b9b9a5050505050505050505050565b6000819050602082019050919050565b6000819050602082019050919050565b600081519050919050565b600081519050919050565b6000602082019050919050565b6000602082019050919050565b600082825260208201905092915050565b600082825260208201905092915050565b600082825260208201905092915050565b600061366482613733565b915061366f83613733565b9250827fffffffffffffffffffffffffffffffffffffffffffffffffffffffffffffffff038211156136a4576136a36137bc565b5b828201905092915050565b60006136ba82613733565b91506136c583613733565b9250828210156136d8576136d76137bc565b5b828203905092915050565b60006136ee82613713565b9050919050565b600061370082613713565b9050919050565b60008115159050919050565b600073ffffffffffffffffffffffffffffffffffffffff82169050919050565b6000819050919050565b60006137488261374f565b9050919050565b600061375a82613761565b9050919050565b600061376c82613713565b9050919050565b600061377e82613733565b91507fffffffffffffffffffffffffffffffffffffffffffffffffffffffffffffffff8214156137b1576137b06137bc565b5b600182019050919050565b7f4e487b7100000000000000000000000000000000000000000000000000000000600052601160045260246000fd5b6137f4816136e3565b81146137ff57600080fd5b50565b61380b81613707565b811461381657600080fd5b50565b61382281613733565b811461382d57600080fd5b5056fea2646970667358221220b16788043641ba406efe17f5f54f1e732d0e204673310a7ae98d96f922d429b964736f6c63430008000033",
  "immutableReferences": {},
  "source": "// SPDX-License-Identifier: MIT\npragma solidity >=0.4.22 <0.9.0;\n\nimport \"@openzeppelin/contracts/token/ERC721/ERC721.sol\";\nimport \"@openzeppelin/contracts/utils/Counters.sol\";\nimport \"@openzeppelin/contracts/security/ReentrancyGuard.sol\";\n\ncontract NFTmarketplace is ReentrancyGuard {\n    using Counters for Counters.Counter;\n    Counters.Counter private _itemIds;\n    Counters.Counter private _auctionId;\n    Counters.Counter private _itemSold;\n\n    address payable public owner;\n    uint listingPrice = 0.025 ether;\n    uint public duration = 1 days;\n\n    constructor(){\n    owner = payable(msg.sender) ;\n    }\n\n    struct Bidder {\n        address payable addr;\n        uint amount;\n        uint bitAt;\n    }\n\n    struct Auction {\n        uint staringPrice;\n        uint duration;\n        uint auctiontime;\n        bool finished;\n        uint amount;\n        uint highestPrice;\n        address highestBidder; \n        address seller;\n        uint bidderCount;       \n        uint bidderId;\n    }\n     struct MarketItem{\n        uint itemId;\n        address nftContracts;\n        uint tokenId;\n        address payable minter;\n        address payable seller;\n        address payable owner;\n        uint price;\n        bool sold;\n        bool auction;\n        uint auctionId;\n    }\n\n    mapping(uint => Auction) public auctions;\n    mapping(uint => Bidder []) public bidders;\n    mapping(uint => MarketItem) public idMarketItem;\n\n    event MarketItemCreated(\n        uint indexed itemId,\n        address indexed nftContracts,\n        uint indexed tokenId,\n        address  seller,\n        address owner,\n        uint price,\n        bool sold,\n        bool auction\n    );\n    \n\n    function getListingPrice() public view returns(uint){\n        return listingPrice;\n    }\n    function marketItemCont() public view returns(uint){\n       uint newItemId = _itemIds.current();\n        return newItemId;\n    }\n    function createMarketplace(address nftContract, uint tokenId, uint price, bool _auction) public payable nonReentrant {\n        require(price > 0 , \"price must be graterthan zero\");\n        require(msg.value == listingPrice, \"value must equal to listing price\");\n\n        _itemIds.increment();\n        uint newItemId = _itemIds.current();\n        idMarketItem[newItemId].itemId = newItemId;\n        idMarketItem[newItemId].nftContracts = nftContract;\n        idMarketItem[newItemId].tokenId = tokenId;\n        idMarketItem[newItemId].minter = payable(msg.sender);\n        idMarketItem[newItemId].seller = payable(msg.sender);\n        idMarketItem[newItemId].owner = payable (address(this)) ;\n        idMarketItem[newItemId].sold = false;\n        if(_auction == true){\n          idMarketItem[newItemId].price = 0;\n          idMarketItem[newItemId].auction = true;\n          auctions[tokenId].duration = block.timestamp + (10 * 1 minutes);\n          auctions[tokenId].auctiontime = block.timestamp;\n          auctions[tokenId].staringPrice = price;\n          auctions[tokenId].finished = false;\n          auctions[tokenId].seller = msg.sender;\n           auctions[tokenId].highestBidder = msg.sender;\n          idMarketItem[newItemId].auctionId = tokenId;\n         }else{\n          idMarketItem[newItemId].price = price;\n          idMarketItem[newItemId].auction = false;\n         }\n        IERC721(nftContract).transferFrom(msg.sender, address(this), tokenId);\n        emit MarketItemCreated(\n            newItemId,\n            nftContract,\n            tokenId,\n            payable(address(0)),\n            payable(msg.sender),\n            price,\n            false,\n            false\n        );\n    }\n\n    function sellMarketplace(address nftContract, uint Id, uint price) public payable nonReentrant {\n      require(price > 0 , \"price must be graterthan zero\");\n      require(msg.value >= listingPrice, \"value must equal to listing price\");\n\n      uint tokenId = idMarketItem[Id].tokenId;\n      idMarketItem[Id].price = price;\n      idMarketItem[Id].sold = false;\n      idMarketItem[Id].owner = payable(address(this));\n      idMarketItem[Id].seller = payable(msg.sender);\n      IERC721(nftContract).transferFrom(msg.sender, address(this), tokenId);\n      emit MarketItemCreated(\n            Id,\n            nftContract,\n            tokenId,\n            payable(address(this)),\n            payable(msg.sender),\n            price,\n            false,\n            false\n      );\n      _itemSold.decrement();\n    }\n\n    function creatMarketSales(address nftContract, uint ItemId) public payable nonReentrant{\n        uint price = idMarketItem[ItemId].price;\n        uint tokenId = idMarketItem[ItemId].tokenId;\n        require(msg.value >= price, \"to complit this transaction you should have asking price\");\n        require(idMarketItem[ItemId].auction == false, \"action \");\n\n        idMarketItem[ItemId].seller.transfer(msg.value);\n        IERC721(nftContract).transferFrom(address(this), msg.sender, tokenId);\n        idMarketItem[ItemId].owner = payable(msg.sender);\n        idMarketItem[ItemId].sold = true;\n        _itemSold.increment();\n        payable(owner).transfer(listingPrice);\n    }\n    // auction\n    function createAuction(address nftContract,uint itemId,uint _staringPrice) public payable nonReentrant  {\n      require(_staringPrice > 0 , \"price must be graterthan zero\");\n      require(msg.value == listingPrice, \"value must equal to listing price\");\n\n      uint tokenId = idMarketItem[itemId].tokenId;\n      auctions[tokenId].duration = block.timestamp + (10 * 1 minutes);\n      auctions[tokenId].auctiontime = block.timestamp;\n      auctions[tokenId].staringPrice = _staringPrice;\n      auctions[tokenId].seller = msg.sender;\n      auctions[tokenId].finished = false;\n      idMarketItem[itemId].seller = payable(msg.sender);\n      idMarketItem[itemId].owner = payable (address(this)) ;\n      idMarketItem[itemId].price = 0;\n      idMarketItem[itemId].sold = false;\n      idMarketItem[itemId].auction = true;\n      idMarketItem[itemId].auctionId = tokenId;\n      IERC721(nftContract).transferFrom(msg.sender, address(this), tokenId);\n        _itemSold.decrement();\n\n    }\n\n    function bid (uint _tokenId) public payable {\n      require(block.timestamp  <= auctions[_tokenId].duration , \"BID Time expaire\");\n        for(uint i = 1; i<=auctions[_tokenId].bidderCount; i++ ){\n           require(msg.sender != bidders[_tokenId][i-1].addr, \"you alreay bided\");\n        }\n       \n        require(msg.value >= auctions[_tokenId].staringPrice,\"mgs.sender is lessthan staringPrice\" );\n        require(!auctions[_tokenId].finished, \"aution finished\");\n        require(msg.value > auctions[_tokenId].highestPrice,\"Price shoud be gratterer than highst bider\" );\n        \n        bidders[_tokenId].push(Bidder(payable(msg.sender), msg.value, block.timestamp));\n        auctions[_tokenId].bidderCount++;\n        auctions[_tokenId].bidderId = _tokenId;\n        auctions[_tokenId].amount += msg.value;\n        if(msg.value >= auctions[_tokenId].highestPrice){\n          auctions[_tokenId].highestPrice = msg.value;\n          auctions[_tokenId].highestBidder = msg.sender;\n        }\n\n    }\n     function getBidder(uint id) public view returns(Bidder[] memory){\n        Bidder[] memory bidderArray = new Bidder[](bidders[id].length);\n        uint numberOfMediaAssets = 0;\n        for(uint i = 0; i < bidders[id].length;  i++) {\n        bidderArray[numberOfMediaAssets] = bidders[id][i];\n        numberOfMediaAssets++;\n    }\n    return bidderArray;\n    }\n\n    function finish(address nftContract, uint _tokenId) public {\n      require(idMarketItem[_tokenId].seller == msg.sender, \"seller can only approve\");\n      require( block.timestamp  >= auctions[_tokenId].duration, \"Time not expaired\");\n      require(idMarketItem[_tokenId].auction == true, \"action \");\n        for (uint i = 0; i < bidders[_tokenId].length - 1; i++) {\n          if( bidders[_tokenId][i].addr != auctions[_tokenId].highestBidder){\n              uint amount = bidders[_tokenId][i].amount;\n              bidders[_tokenId][i].addr.transfer(amount);\n          }\n        }\n        delete bidders[_tokenId];\n        address bidder = auctions[_tokenId].highestBidder;\n        idMarketItem[_tokenId].owner = payable(bidder);\n        idMarketItem[_tokenId].sold = true;\n        auctions[_tokenId].finished = true;\n        _itemSold.increment();\n        IERC721(nftContract).transferFrom(address(this), bidder, _tokenId);\n        // emit AuctionFinished(_tokenId, awarder.addr);\n    }\n\n\n    function fetchMarketItems() public view returns (MarketItem[] memory) {\n      uint itemCount = _itemIds.current();\n      uint unsoldItemCount = _itemIds.current() - _itemSold.current();\n      uint currentIndex = 0;\n      MarketItem[] memory items = new MarketItem[](unsoldItemCount);\n      for (uint i = 0; i < itemCount; i++) {\n        if (idMarketItem[i + 1].sold == false) {\n          uint currentId = i + 1;\n          MarketItem storage currentItem = idMarketItem[currentId];\n          items[currentIndex] = currentItem;\n          currentIndex += 1;\n        }\n      }\n      return items;\n    }\n\n    function fetchMyNFTs() public view returns (MarketItem[] memory) {\n      uint totalItemCount = _itemIds.current();\n      uint itemCount = 0;\n      uint currentIndex = 0;\n\n      for (uint i = 0; i < totalItemCount; i++) {\n        if (idMarketItem[i + 1].owner == msg.sender) {\n          itemCount += 1;\n        }\n      }\n\n      MarketItem[] memory items = new MarketItem[](itemCount);\n      for (uint i = 0; i < totalItemCount; i++) {\n        if (idMarketItem[i + 1].owner == msg.sender) {\n          uint currentId = i + 1;\n          MarketItem storage currentItem = idMarketItem[currentId];\n          items[currentIndex] = currentItem;\n          currentIndex += 1;\n        }\n      }\n      return items;\n    }\n\n}\n\n\n",
  "sourcePath": "/home/nisamdheen/sps/NFT_MARKETPLACE/contracts/NFTmarketplace.sol",
  "compiler": {
    "name": "solc",
    "version": "0.8.0+commit.c7dfd78e.Emscripten.clang"
  },
  "schemaVersion": "3.4.4",
  "updatedAt": "2022-02-12T08:50:26.379Z",
  "networkType": "ethereum",
  "devdoc": {
    "kind": "dev",
    "methods": {},
    "version": 1
  },
  "userdoc": {
    "kind": "user",
    "methods": {},
    "version": 1
  }
}