{
  "contractName": "NFTmarketplace",
  "abi": [
    {
      "inputs": [],
      "stateMutability": "nonpayable",
      "type": "constructor"
    },
    {
      "anonymous": false,
      "inputs": [
        {
          "indexed": true,
          "internalType": "uint256",
          "name": "itemId",
          "type": "uint256"
        },
        {
          "indexed": true,
          "internalType": "address",
          "name": "nftContracts",
          "type": "address"
        },
        {
          "indexed": true,
          "internalType": "uint256",
          "name": "tokenId",
          "type": "uint256"
        },
        {
          "indexed": false,
          "internalType": "address",
          "name": "seller",
          "type": "address"
        },
        {
          "indexed": false,
          "internalType": "address",
          "name": "owner",
          "type": "address"
        },
        {
          "indexed": false,
          "internalType": "uint256",
          "name": "price",
          "type": "uint256"
        },
        {
          "indexed": false,
          "internalType": "bool",
          "name": "sold",
          "type": "bool"
        },
        {
          "indexed": false,
          "internalType": "bool",
          "name": "auction",
          "type": "bool"
        }
      ],
      "name": "MarketItemCreated",
      "type": "event"
    },
    {
      "inputs": [
        {
          "internalType": "uint256",
          "name": "",
          "type": "uint256"
        }
      ],
      "name": "auctions",
      "outputs": [
        {
          "internalType": "uint256",
          "name": "tokenId",
          "type": "uint256"
        },
        {
          "internalType": "address payable",
          "name": "seller",
          "type": "address"
        },
        {
          "internalType": "uint256",
          "name": "staringPrice",
          "type": "uint256"
        },
        {
          "internalType": "uint256",
          "name": "duration",
          "type": "uint256"
        },
        {
          "internalType": "bool",
          "name": "finished",
          "type": "bool"
        },
        {
          "internalType": "uint256",
          "name": "amount",
          "type": "uint256"
        },
        {
          "internalType": "uint256",
          "name": "highestPrice",
          "type": "uint256"
        },
        {
          "internalType": "address",
          "name": "highestBidder",
          "type": "address"
        }
      ],
      "stateMutability": "view",
      "type": "function",
      "constant": true
    },
    {
      "inputs": [],
      "name": "duration",
      "outputs": [
        {
          "internalType": "uint256",
          "name": "",
          "type": "uint256"
        }
      ],
      "stateMutability": "view",
      "type": "function",
      "constant": true
    },
    {
      "inputs": [
        {
          "internalType": "uint256",
          "name": "",
          "type": "uint256"
        }
      ],
      "name": "idMarketItem",
      "outputs": [
        {
          "internalType": "uint256",
          "name": "itemId",
          "type": "uint256"
        },
        {
          "internalType": "address",
          "name": "nftContracts",
          "type": "address"
        },
        {
          "internalType": "uint256",
          "name": "tokenId",
          "type": "uint256"
        },
        {
          "internalType": "address payable",
          "name": "seller",
          "type": "address"
        },
        {
          "internalType": "address payable",
          "name": "owner",
          "type": "address"
        },
        {
          "internalType": "uint256",
          "name": "price",
          "type": "uint256"
        },
        {
          "internalType": "bool",
          "name": "sold",
          "type": "bool"
        },
        {
          "internalType": "bool",
          "name": "auction",
          "type": "bool"
        }
      ],
      "stateMutability": "view",
      "type": "function",
      "constant": true
    },
    {
      "inputs": [],
      "name": "owner",
      "outputs": [
        {
          "internalType": "address payable",
          "name": "",
          "type": "address"
        }
      ],
      "stateMutability": "view",
      "type": "function",
      "constant": true
    },
    {
      "inputs": [],
      "name": "getListingPrice",
      "outputs": [
        {
          "internalType": "uint256",
          "name": "",
          "type": "uint256"
        }
      ],
      "stateMutability": "view",
      "type": "function",
      "constant": true
    },
    {
      "inputs": [],
      "name": "marketItemCont",
      "outputs": [
        {
          "internalType": "uint256",
          "name": "",
          "type": "uint256"
        }
      ],
      "stateMutability": "view",
      "type": "function",
      "constant": true
    },
    {
      "inputs": [
        {
          "internalType": "address",
          "name": "nftContract",
          "type": "address"
        },
        {
          "internalType": "uint256",
          "name": "tokenId",
          "type": "uint256"
        },
        {
          "internalType": "uint256",
          "name": "price",
          "type": "uint256"
        }
      ],
      "name": "createMarketplace",
      "outputs": [],
      "stateMutability": "payable",
      "type": "function",
      "payable": true
    },
    {
      "inputs": [
        {
          "internalType": "address",
          "name": "nftContract",
          "type": "address"
        },
        {
          "internalType": "uint256",
          "name": "Id",
          "type": "uint256"
        },
        {
          "internalType": "uint256",
          "name": "price",
          "type": "uint256"
        }
      ],
      "name": "sellMarketplace",
      "outputs": [],
      "stateMutability": "payable",
      "type": "function",
      "payable": true
    },
    {
      "inputs": [
        {
          "internalType": "address",
          "name": "nftContract",
          "type": "address"
        },
        {
          "internalType": "uint256",
          "name": "ItemId",
          "type": "uint256"
        }
      ],
      "name": "creatMarketSales",
      "outputs": [],
      "stateMutability": "payable",
      "type": "function",
      "payable": true
    },
    {
      "inputs": [
        {
          "internalType": "address",
          "name": "nftContract",
          "type": "address"
        },
        {
          "internalType": "uint256",
          "name": "_tokenId",
          "type": "uint256"
        },
        {
          "internalType": "uint256",
          "name": "_staringPrice",
          "type": "uint256"
        }
      ],
      "name": "createAuction",
      "outputs": [],
      "stateMutability": "nonpayable",
      "type": "function"
    },
    {
      "inputs": [
        {
          "internalType": "uint256",
          "name": "_tokenId",
          "type": "uint256"
        }
      ],
      "name": "bid",
      "outputs": [],
      "stateMutability": "payable",
      "type": "function",
      "payable": true
    },
    {
      "inputs": [
        {
          "internalType": "address",
          "name": "nftContract",
          "type": "address"
        },
        {
          "internalType": "uint256",
          "name": "_tokenId",
          "type": "uint256"
        }
      ],
      "name": "finish",
      "outputs": [],
      "stateMutability": "nonpayable",
      "type": "function"
    },
    {
      "inputs": [],
      "name": "fetchMarketItems",
      "outputs": [
        {
          "components": [
            {
              "internalType": "uint256",
              "name": "itemId",
              "type": "uint256"
            },
            {
              "internalType": "address",
              "name": "nftContracts",
              "type": "address"
            },
            {
              "internalType": "uint256",
              "name": "tokenId",
              "type": "uint256"
            },
            {
              "internalType": "address payable",
              "name": "seller",
              "type": "address"
            },
            {
              "internalType": "address payable",
              "name": "owner",
              "type": "address"
            },
            {
              "internalType": "uint256",
              "name": "price",
              "type": "uint256"
            },
            {
              "internalType": "bool",
              "name": "sold",
              "type": "bool"
            },
            {
              "internalType": "bool",
              "name": "auction",
              "type": "bool"
            }
          ],
          "internalType": "struct NFTmarketplace.MarketItem[]",
          "name": "",
          "type": "tuple[]"
        }
      ],
      "stateMutability": "view",
      "type": "function",
      "constant": true
    },
    {
      "inputs": [],
      "name": "fetchMyNFTs",
      "outputs": [
        {
          "components": [
            {
              "internalType": "uint256",
              "name": "itemId",
              "type": "uint256"
            },
            {
              "internalType": "address",
              "name": "nftContracts",
              "type": "address"
            },
            {
              "internalType": "uint256",
              "name": "tokenId",
              "type": "uint256"
            },
            {
              "internalType": "address payable",
              "name": "seller",
              "type": "address"
            },
            {
              "internalType": "address payable",
              "name": "owner",
              "type": "address"
            },
            {
              "internalType": "uint256",
              "name": "price",
              "type": "uint256"
            },
            {
              "internalType": "bool",
              "name": "sold",
              "type": "bool"
            },
            {
              "internalType": "bool",
              "name": "auction",
              "type": "bool"
            }
          ],
          "internalType": "struct NFTmarketplace.MarketItem[]",
          "name": "",
          "type": "tuple[]"
        }
      ],
      "stateMutability": "view",
      "type": "function",
      "constant": true
    }
  ],
  "bytecode": "0x60806040526658d15e176280006005556201518060065534801561002257600080fd5b50600160008190555033600460006101000a81548173ffffffffffffffffffffffffffffffffffffffff021916908373ffffffffffffffffffffffffffffffffffffffff1602179055506126998061007b6000396000f3fe6080604052600436106100dd5760003560e01c8063316c994a1161007f578063571a26a011610059578063571a26a01461027a578063864325e1146102be5780638da5cb5b146102da578063abb9405114610305576100dd565b8063316c994a1461021757806342968c0b14610242578063454a2ab31461025e576100dd565b806312e85585116100bb57806312e855851461017c5780631dbcf67a146101a7578063202e3740146101c357806329008824146101ee576100dd565b8063087ae8a2146100e25780630f08efe0146101265780630fb5a6b414610151575b600080fd5b3480156100ee57600080fd5b5061010960048036038101906101049190611e86565b61032e565b60405161011d9897969594939291906123db565b60405180910390f35b34801561013257600080fd5b5061013b6103f0565b6040516101489190612280565b60405180910390f35b34801561015d57600080fd5b506101666106e7565b6040516101739190612342565b60405180910390f35b34801561018857600080fd5b506101916106ed565b60405161019e9190612342565b60405180910390f35b6101c160048036038101906101bc9190611e37565b6106f7565b005b3480156101cf57600080fd5b506101d8610a87565b6040516101e59190612280565b60405180910390f35b3480156101fa57600080fd5b5061021560048036038101906102109190611dfb565b610e3d565b005b34801561022357600080fd5b5061022c611173565b6040516102399190612342565b60405180910390f35b61025c60048036038101906102579190611dfb565b611189565b005b61027860048036038101906102739190611e86565b611443565b005b34801561028657600080fd5b506102a1600480360381019061029c9190611e86565b61160e565b6040516102b598979695949392919061235d565b60405180910390f35b6102d860048036038101906102d39190611e37565b6116a3565b005b3480156102e657600080fd5b506102ef611968565b6040516102fc91906121db565b60405180910390f35b34801561031157600080fd5b5061032c60048036038101906103279190611e37565b61198e565b005b60086020528060005260406000206000915090508060000154908060010160009054906101000a900473ffffffffffffffffffffffffffffffffffffffff16908060020154908060030160009054906101000a900473ffffffffffffffffffffffffffffffffffffffff16908060040160009054906101000a900473ffffffffffffffffffffffffffffffffffffffff16908060050154908060060160009054906101000a900460ff16908060060160019054906101000a900460ff16905088565b606060006103fe6001611cc6565b9050600061040c6003611cc6565b6104166001611cc6565b61042091906124f9565b90506000808267ffffffffffffffff811115610465577f4e487b7100000000000000000000000000000000000000000000000000000000600052604160045260246000fd5b60405190808252806020026020018201604052801561049e57816020015b61048b611d46565b8152602001906001900390816104835790505b50905060005b848110156106dc5760001515600860006001846104c191906124a3565b815260200190815260200160002060060160009054906101000a900460ff16151514156106c95760006001826104f791906124a3565b905060006008600083815260200190815260200160002090508060405180610100016040529081600082015481526020016001820160009054906101000a900473ffffffffffffffffffffffffffffffffffffffff1673ffffffffffffffffffffffffffffffffffffffff1673ffffffffffffffffffffffffffffffffffffffff168152602001600282015481526020016003820160009054906101000a900473ffffffffffffffffffffffffffffffffffffffff1673ffffffffffffffffffffffffffffffffffffffff1673ffffffffffffffffffffffffffffffffffffffff1681526020016004820160009054906101000a900473ffffffffffffffffffffffffffffffffffffffff1673ffffffffffffffffffffffffffffffffffffffff1673ffffffffffffffffffffffffffffffffffffffff168152602001600582015481526020016006820160009054906101000a900460ff161515151581526020016006820160019054906101000a900460ff1615151515815250508486815181106106ac577f4e487b7100000000000000000000000000000000000000000000000000000000600052603260045260246000fd5b60200260200101819052506001856106c491906124a3565b945050505b80806106d4906125bd565b9150506104a4565b508094505050505090565b60065481565b6000600554905090565b6002600054141561073d576040517f08c379a000000000000000000000000000000000000000000000000000000000815260040161073490612302565b60405180910390fd5b600260008190555060008111610788576040517f08c379a000000000000000000000000000000000000000000000000000000000815260040161077f90612322565b60405180910390fd5b60055434146107cc576040517f08c379a00000000000000000000000000000000000000000000000000000000081526004016107c3906122c2565b60405180910390fd5b6107d66001611cd4565b60006107e26001611cc6565b90506040518061010001604052808281526020018573ffffffffffffffffffffffffffffffffffffffff1681526020018481526020013373ffffffffffffffffffffffffffffffffffffffff168152602001600073ffffffffffffffffffffffffffffffffffffffff16815260200183815260200160001515815260200160001515815250600860008381526020019081526020016000206000820151816000015560208201518160010160006101000a81548173ffffffffffffffffffffffffffffffffffffffff021916908373ffffffffffffffffffffffffffffffffffffffff1602179055506040820151816002015560608201518160030160006101000a81548173ffffffffffffffffffffffffffffffffffffffff021916908373ffffffffffffffffffffffffffffffffffffffff16021790555060808201518160040160006101000a81548173ffffffffffffffffffffffffffffffffffffffff021916908373ffffffffffffffffffffffffffffffffffffffff16021790555060a0820151816005015560c08201518160060160006101000a81548160ff02191690831515021790555060e08201518160060160016101000a81548160ff0219169083151502179055509050508373ffffffffffffffffffffffffffffffffffffffff166323b872dd3330866040518463ffffffff1660e01b81526004016109ed93929190612249565b600060405180830381600087803b158015610a0757600080fd5b505af1158015610a1b573d6000803e3d6000fd5b50505050828473ffffffffffffffffffffffffffffffffffffffff16827fc99151f4453170a67bc7441775fde1a3bc3220c06645df1121e703aab5e7da5d33600087600080604051610a719594939291906121f6565b60405180910390a4506001600081905550505050565b60606000610a956001611cc6565b905060008060005b83811015610b3e573373ffffffffffffffffffffffffffffffffffffffff1660086000600184610acd91906124a3565b815260200190815260200160002060040160009054906101000a900473ffffffffffffffffffffffffffffffffffffffff1673ffffffffffffffffffffffffffffffffffffffff161415610b2b57600183610b2891906124a3565b92505b8080610b36906125bd565b915050610a9d565b5060008267ffffffffffffffff811115610b81577f4e487b7100000000000000000000000000000000000000000000000000000000600052604160045260246000fd5b604051908082528060200260200182016040528015610bba57816020015b610ba7611d46565b815260200190600190039081610b9f5790505b50905060005b84811015610e32573373ffffffffffffffffffffffffffffffffffffffff1660086000600184610bf091906124a3565b815260200190815260200160002060040160009054906101000a900473ffffffffffffffffffffffffffffffffffffffff1673ffffffffffffffffffffffffffffffffffffffff161415610e1f576000600182610c4d91906124a3565b905060006008600083815260200190815260200160002090508060405180610100016040529081600082015481526020016001820160009054906101000a900473ffffffffffffffffffffffffffffffffffffffff1673ffffffffffffffffffffffffffffffffffffffff1673ffffffffffffffffffffffffffffffffffffffff168152602001600282015481526020016003820160009054906101000a900473ffffffffffffffffffffffffffffffffffffffff1673ffffffffffffffffffffffffffffffffffffffff1673ffffffffffffffffffffffffffffffffffffffff1681526020016004820160009054906101000a900473ffffffffffffffffffffffffffffffffffffffff1673ffffffffffffffffffffffffffffffffffffffff1673ffffffffffffffffffffffffffffffffffffffff168152602001600582015481526020016006820160009054906101000a900460ff161515151581526020016006820160019054906101000a900460ff161515151581525050848681518110610e02577f4e487b7100000000000000000000000000000000000000000000000000000000600052603260045260246000fd5b6020026020010181905250600185610e1a91906124a3565b945050505b8080610e2a906125bd565b915050610bc0565b508094505050505090565b60005b60016007600084815260200190815260200160002060080180549050610e6691906124f9565b811015611094576007600083815260200190815260200160002060070160009054906101000a900473ffffffffffffffffffffffffffffffffffffffff1673ffffffffffffffffffffffffffffffffffffffff16600760008481526020019081526020016000206008018281548110610f08577f4e487b7100000000000000000000000000000000000000000000000000000000600052603260045260246000fd5b906000526020600020906002020160000160009054906101000a900473ffffffffffffffffffffffffffffffffffffffff1673ffffffffffffffffffffffffffffffffffffffff1614611081576000600760008481526020019081526020016000206008018281548110610fa5577f4e487b7100000000000000000000000000000000000000000000000000000000600052603260045260246000fd5b9060005260206000209060020201600101549050600760008481526020019081526020016000206008018281548110611007577f4e487b7100000000000000000000000000000000000000000000000000000000600052603260045260246000fd5b906000526020600020906002020160000160009054906101000a900473ffffffffffffffffffffffffffffffffffffffff1673ffffffffffffffffffffffffffffffffffffffff166108fc829081150290604051600060405180830381858888f1935050505015801561107e573d6000803e3d6000fd5b50505b808061108c906125bd565b915050610e40565b5060006007600083815260200190815260200160002060070160009054906101000a900473ffffffffffffffffffffffffffffffffffffffff1690508273ffffffffffffffffffffffffffffffffffffffff166323b872dd3083856040518463ffffffff1660e01b815260040161110d93929190612249565b600060405180830381600087803b15801561112757600080fd5b505af115801561113b573d6000803e3d6000fd5b5050505060016007600084815260200190815260200160002060040160006101000a81548160ff021916908315150217905550505050565b6000806111806001611cc6565b90508091505090565b600260005414156111cf576040517f08c379a00000000000000000000000000000000000000000000000000000000081526004016111c690612302565b60405180910390fd5b600260008190555060006008600083815260200190815260200160002060050154905060006008600084815260200190815260200160002060020154905081341015611250576040517f08c379a0000000000000000000000000000000000000000000000000000000008152600401611247906122e2565b60405180910390fd5b6008600084815260200190815260200160002060030160009054906101000a900473ffffffffffffffffffffffffffffffffffffffff1673ffffffffffffffffffffffffffffffffffffffff166108fc349081150290604051600060405180830381858888f193505050501580156112cc573d6000803e3d6000fd5b508373ffffffffffffffffffffffffffffffffffffffff166323b872dd3033846040518463ffffffff1660e01b815260040161130a93929190612249565b600060405180830381600087803b15801561132457600080fd5b505af1158015611338573d6000803e3d6000fd5b50505050336008600085815260200190815260200160002060040160006101000a81548173ffffffffffffffffffffffffffffffffffffffff021916908373ffffffffffffffffffffffffffffffffffffffff16021790555060016008600085815260200190815260200160002060060160006101000a81548160ff0219169083151502179055506113ca6003611cd4565b600460009054906101000a900473ffffffffffffffffffffffffffffffffffffffff1673ffffffffffffffffffffffffffffffffffffffff166108fc6005549081150290604051600060405180830381858888f19350505050158015611434573d6000803e3d6000fd5b50505060016000819055505050565b6007600082815260200190815260200160002060020154341161146557600080fd5b6007600082815260200190815260200160002060040160009054906101000a900460ff161561149357600080fd5b346007600083815260200190815260200160002060050160008282546114b991906124a3565b925050819055506007600082815260200190815260200160002060060154341061154e57346007600083815260200190815260200160002060060181905550336007600083815260200190815260200160002060070160006101000a81548173ffffffffffffffffffffffffffffffffffffffff021916908373ffffffffffffffffffffffffffffffffffffffff1602179055505b6007600082815260200190815260200160002060080160405180604001604052803373ffffffffffffffffffffffffffffffffffffffff16815260200134815250908060018154018082558091505060019003906000526020600020906002020160009091909190915060008201518160000160006101000a81548173ffffffffffffffffffffffffffffffffffffffff021916908373ffffffffffffffffffffffffffffffffffffffff16021790555060208201518160010155505050565b60076020528060005260406000206000915090508060000154908060010160009054906101000a900473ffffffffffffffffffffffffffffffffffffffff16908060020154908060030154908060040160009054906101000a900460ff16908060050154908060060154908060070160009054906101000a900473ffffffffffffffffffffffffffffffffffffffff16905088565b600260005414156116e9576040517f08c379a00000000000000000000000000000000000000000000000000000000081526004016116e090612302565b60405180910390fd5b600260008190555060008111611734576040517f08c379a000000000000000000000000000000000000000000000000000000000815260040161172b90612322565b60405180910390fd5b600554341015611779576040517f08c379a0000000000000000000000000000000000000000000000000000000008152600401611770906122c2565b60405180910390fd5b60006008600084815260200190815260200160002060020154905081600860008581526020019081526020016000206005018190555060006008600085815260200190815260200160002060060160006101000a81548160ff021916908315150217905550306008600085815260200190815260200160002060040160006101000a81548173ffffffffffffffffffffffffffffffffffffffff021916908373ffffffffffffffffffffffffffffffffffffffff160217905550336008600085815260200190815260200160002060030160006101000a81548173ffffffffffffffffffffffffffffffffffffffff021916908373ffffffffffffffffffffffffffffffffffffffff1602179055508373ffffffffffffffffffffffffffffffffffffffff166323b872dd3330846040518463ffffffff1660e01b81526004016118c593929190612249565b600060405180830381600087803b1580156118df57600080fd5b505af11580156118f3573d6000803e3d6000fd5b50505050808473ffffffffffffffffffffffffffffffffffffffff16847fc99151f4453170a67bc7441775fde1a3bc3220c06645df1121e703aab5e7da5d3033876000806040516119489594939291906121f6565b60405180910390a461195a6003611cea565b506001600081905550505050565b600460009054906101000a900473ffffffffffffffffffffffffffffffffffffffff1681565b816007600084815260200190815260200160002060000181905550306007600084815260200190815260200160002060010160006101000a81548173ffffffffffffffffffffffffffffffffffffffff021916908373ffffffffffffffffffffffffffffffffffffffff16021790555042600760008481526020019081526020016000206003018190555080600760008481526020019081526020016000206002018190555060006007600084815260200190815260200160002060040160006101000a81548160ff021916908315150217905550611a6d6001611cd4565b6000611a796001611cc6565b90506040518061010001604052808281526020018573ffffffffffffffffffffffffffffffffffffffff1681526020018481526020013373ffffffffffffffffffffffffffffffffffffffff168152602001600073ffffffffffffffffffffffffffffffffffffffff16815260200183815260200160001515815260200160011515815250600860008381526020019081526020016000206000820151816000015560208201518160010160006101000a81548173ffffffffffffffffffffffffffffffffffffffff021916908373ffffffffffffffffffffffffffffffffffffffff1602179055506040820151816002015560608201518160030160006101000a81548173ffffffffffffffffffffffffffffffffffffffff021916908373ffffffffffffffffffffffffffffffffffffffff16021790555060808201518160040160006101000a81548173ffffffffffffffffffffffffffffffffffffffff021916908373ffffffffffffffffffffffffffffffffffffffff16021790555060a0820151816005015560c08201518160060160006101000a81548160ff02191690831515021790555060e08201518160060160016101000a81548160ff0219169083151502179055509050508373ffffffffffffffffffffffffffffffffffffffff166323b872dd3330866040518463ffffffff1660e01b8152600401611c8493929190612249565b600060405180830381600087803b158015611c9e57600080fd5b505af1158015611cb2573d6000803e3d6000fd5b50505050611cc06003611cea565b50505050565b600081600001549050919050565b6001816000016000828254019250508190555050565b60008160000154905060008111611d36576040517f08c379a0000000000000000000000000000000000000000000000000000000008152600401611d2d906122a2565b60405180910390fd5b6001810382600001819055505050565b60405180610100016040528060008152602001600073ffffffffffffffffffffffffffffffffffffffff16815260200160008152602001600073ffffffffffffffffffffffffffffffffffffffff168152602001600073ffffffffffffffffffffffffffffffffffffffff168152602001600081526020016000151581526020016000151581525090565b600081359050611de081612635565b92915050565b600081359050611df58161264c565b92915050565b60008060408385031215611e0e57600080fd5b6000611e1c85828601611dd1565b9250506020611e2d85828601611de6565b9150509250929050565b600080600060608486031215611e4c57600080fd5b6000611e5a86828701611dd1565b9350506020611e6b86828701611de6565b9250506040611e7c86828701611de6565b9150509250925092565b600060208284031215611e9857600080fd5b6000611ea684828501611de6565b91505092915050565b6000611ebb838361211b565b6101008301905092915050565b611ed181612587565b82525050565b611ee08161253f565b82525050565b611eef8161253f565b82525050565b611efe8161252d565b82525050565b611f0d8161252d565b82525050565b6000611f1e82612469565b611f288185612481565b9350611f3383612459565b8060005b83811015611f64578151611f4b8882611eaf565b9750611f5683612474565b925050600181019050611f37565b5085935050505092915050565b611f7a81612551565b82525050565b611f8981612551565b82525050565b6000611f9c601b83612492565b91507f436f756e7465723a2064656372656d656e74206f766572666c6f7700000000006000830152602082019050919050565b6000611fdc602183612492565b91507f76616c7565206d75737420657175616c20746f206c697374696e67207072696360008301527f65000000000000000000000000000000000000000000000000000000000000006020830152604082019050919050565b6000612042603883612492565b91507f746f20636f6d706c69742074686973207472616e73616374696f6e20796f752060008301527f73686f756c6420686176652061736b696e6720707269636500000000000000006020830152604082019050919050565b60006120a8601f83612492565b91507f5265656e7472616e637947756172643a207265656e7472616e742063616c6c006000830152602082019050919050565b60006120e8601d83612492565b91507f7072696365206d757374206265206772617465727468616e207a65726f0000006000830152602082019050919050565b6101008201600082015161213260008501826121bd565b5060208201516121456020850182611ef5565b50604082015161215860408501826121bd565b50606082015161216b6060850182611ed7565b50608082015161217e6080850182611ed7565b5060a082015161219160a08501826121bd565b5060c08201516121a460c0850182611f71565b5060e08201516121b760e0850182611f71565b50505050565b6121c68161257d565b82525050565b6121d58161257d565b82525050565b60006020820190506121f06000830184611ee6565b92915050565b600060a08201905061220b6000830188611ec8565b6122186020830187611ec8565b61222560408301866121cc565b6122326060830185611f80565b61223f6080830184611f80565b9695505050505050565b600060608201905061225e6000830186611f04565b61226b6020830185611f04565b61227860408301846121cc565b949350505050565b6000602082019050818103600083015261229a8184611f13565b905092915050565b600060208201905081810360008301526122bb81611f8f565b9050919050565b600060208201905081810360008301526122db81611fcf565b9050919050565b600060208201905081810360008301526122fb81612035565b9050919050565b6000602082019050818103600083015261231b8161209b565b9050919050565b6000602082019050818103600083015261233b816120db565b9050919050565b600060208201905061235760008301846121cc565b92915050565b600061010082019050612373600083018b6121cc565b612380602083018a611ee6565b61238d60408301896121cc565b61239a60608301886121cc565b6123a76080830187611f80565b6123b460a08301866121cc565b6123c160c08301856121cc565b6123ce60e0830184611f04565b9998505050505050505050565b6000610100820190506123f1600083018b6121cc565b6123fe602083018a611f04565b61240b60408301896121cc565b6124186060830188611ee6565b6124256080830187611ee6565b61243260a08301866121cc565b61243f60c0830185611f80565b61244c60e0830184611f80565b9998505050505050505050565b6000819050602082019050919050565b600081519050919050565b6000602082019050919050565b600082825260208201905092915050565b600082825260208201905092915050565b60006124ae8261257d565b91506124b98361257d565b9250827fffffffffffffffffffffffffffffffffffffffffffffffffffffffffffffffff038211156124ee576124ed612606565b5b828201905092915050565b60006125048261257d565b915061250f8361257d565b92508282101561252257612521612606565b5b828203905092915050565b60006125388261255d565b9050919050565b600061254a8261255d565b9050919050565b60008115159050919050565b600073ffffffffffffffffffffffffffffffffffffffff82169050919050565b6000819050919050565b600061259282612599565b9050919050565b60006125a4826125ab565b9050919050565b60006125b68261255d565b9050919050565b60006125c88261257d565b91507fffffffffffffffffffffffffffffffffffffffffffffffffffffffffffffffff8214156125fb576125fa612606565b5b600182019050919050565b7f4e487b7100000000000000000000000000000000000000000000000000000000600052601160045260246000fd5b61263e8161252d565b811461264957600080fd5b50565b6126558161257d565b811461266057600080fd5b5056fea264697066735822122067b154181bc3ba042d4fb54b1804c02718fcc5889a814da094b66a92e23ecde964736f6c63430008000033",
  "immutableReferences": {},
  "source": "// SPDX-License-Identifier: MIT\npragma solidity >=0.4.22 <0.9.0;\n\nimport \"@openzeppelin/contracts/token/ERC721/ERC721.sol\";\nimport \"@openzeppelin/contracts/utils/Counters.sol\";\nimport \"@openzeppelin/contracts/security/ReentrancyGuard.sol\";\n\ncontract NFTmarketplace is ReentrancyGuard {\n    using Counters for Counters.Counter;\n    Counters.Counter private _itemIds;\n    Counters.Counter private _auctionId;\n    Counters.Counter private _itemSold;\n\n    address payable public owner;\n    uint listingPrice = 0.025 ether;\n    uint256 public duration = 1 days;\n\n    constructor(){\n    owner = payable(msg.sender) ;\n    }\n\n    struct MarketItem{\n        uint itemId;\n        address nftContracts;\n        uint tokenId;\n        address payable seller;\n        address payable owner;\n        uint price;\n        bool sold;\n        bool auction;\n    }\n\n     struct Bidder {\n        address payable addr;\n        uint256 amount;\n    }\n\n    struct Auction {\n        uint256 tokenId;\n        address payable seller;\n        uint256 staringPrice;\n        uint256 duration;\n        bool finished;\n        uint256 amount;\n        uint256 highestPrice;\n        address highestBidder;        \n        Bidder[] bidders;\n    }\n\n    // Auction[] auctions;\n    mapping(uint256 => Auction) public auctions;\n    mapping(uint => MarketItem) public idMarketItem;\n\n    event MarketItemCreated(\n        uint indexed itemId,\n        address indexed nftContracts,\n        uint indexed tokenId,\n        address  seller,\n        address owner,\n        uint price,\n        bool sold,\n        bool auction\n    );\n    \n\n    function getListingPrice() public view returns(uint){\n        return listingPrice;\n    }\n    function marketItemCont() public view returns(uint){\n       uint newItemId = _itemIds.current();\n        return newItemId;\n    }\n\n    function createMarketplace(address nftContract, uint tokenId, uint price) public payable nonReentrant {\n        require(price > 0 , \"price must be graterthan zero\");\n        require(msg.value == listingPrice, \"value must equal to listing price\");\n\n        _itemIds.increment();\n        uint newItemId = _itemIds.current();\n\n        idMarketItem[newItemId] = MarketItem(\n            newItemId,\n            nftContract,\n            tokenId,\n            payable(msg.sender),\n            payable(address(0)),\n            price,\n            false,\n            false\n        );\n        IERC721(nftContract).transferFrom(msg.sender, address(this), tokenId);\n\n        emit MarketItemCreated(\n            newItemId,\n            nftContract,\n            tokenId,\n            payable(msg.sender),\n            payable(address(0)),\n            price,\n            false,\n            false\n        );\n    }\n\n      function sellMarketplace(address nftContract, uint Id, uint price) public payable nonReentrant {\n        require(price > 0 , \"price must be graterthan zero\");\n        require(msg.value >= listingPrice, \"value must equal to listing price\");\n        uint tokenId = idMarketItem[Id].tokenId;\n        idMarketItem[Id].price = price;\n        idMarketItem[Id].sold = false;\n        idMarketItem[Id].owner = payable(address(this));\n        idMarketItem[Id].seller = payable(msg.sender);\n\n        IERC721(nftContract).transferFrom(msg.sender, address(this), tokenId);\n        emit MarketItemCreated(\n            Id,\n            nftContract,\n            tokenId,\n            payable(address(this)),\n            payable(msg.sender),\n            price,\n            false,\n            false\n        );\n        _itemSold.decrement();\n    }\n\n    function creatMarketSales(address nftContract, uint ItemId) public payable nonReentrant{\n        uint price = idMarketItem[ItemId].price;\n        uint tokenId = idMarketItem[ItemId].tokenId;\n        require(msg.value >= price, \"to complit this transaction you should have asking price\");\n\n        \n        idMarketItem[ItemId].seller.transfer(msg.value);\n       \n        IERC721(nftContract).transferFrom(address(this), msg.sender, tokenId);\n        idMarketItem[ItemId].owner = payable(msg.sender);\n        idMarketItem[ItemId].sold = true;\n        _itemSold.increment();\n        payable(owner).transfer(listingPrice);\n\n    }\n    // auction\n    function createAuction(\n      address nftContract,\n        uint256 _tokenId,\n        uint256 _staringPrice\n    ) public  {\n      \n        auctions[_tokenId].tokenId = _tokenId;\n        auctions[_tokenId].seller = payable(address(this));\n        auctions[_tokenId].duration = block.timestamp;\n        auctions[_tokenId].staringPrice =  _staringPrice;\n         auctions[_tokenId].finished = false;\n         _itemIds.increment();\n        uint newItemId = _itemIds.current();\n\n        idMarketItem[newItemId] = MarketItem(\n            newItemId,\n            nftContract,\n            _tokenId,\n            payable(msg.sender),\n            payable(address(0)),\n            _staringPrice,\n            false,\n            true\n        );\n          IERC721(nftContract).transferFrom(msg.sender, address(this), _tokenId);\n\n           _itemSold.decrement();\n        \n\n      // emit AuctionCreated(_tokenId, _seller, _price);\n    }\n\n\n    function bid (uint256 _tokenId) public payable {\n        // require(auction.seller != address(0));\n        require(msg.value > auctions[_tokenId].staringPrice );\n        require(!auctions[_tokenId].finished);\n        auctions[_tokenId].amount += msg.value;\n        if(msg.value >= auctions[_tokenId].highestPrice){\n          auctions[_tokenId].highestPrice = msg.value;\n          auctions[_tokenId].highestBidder = msg.sender;\n        }\n        auctions[_tokenId].bidders.push(\n            Bidder(payable(msg.sender), msg.value)\n        );\n        // emit AuctionBidden(_tokenId, msg.sender, msg.value);\n    }\n\n    function finish(address nftContract, uint256 _tokenId) public {\n\n        for (uint256 i = 0; i < auctions[_tokenId].bidders.length - 1; i++) {\n          if( auctions[_tokenId].bidders[i].addr != auctions[_tokenId].highestBidder){\n\n              uint256 amount = auctions[_tokenId].bidders[i].amount;\n              auctions[_tokenId].bidders[i].addr.transfer(amount);\n          }\n        }\n        address bidder = auctions[_tokenId].highestBidder;\n \n        IERC721(nftContract).transferFrom(address(this), bidder, _tokenId);\n        auctions[_tokenId].finished = true;\n        // emit AuctionFinished(_tokenId, awarder.addr);\n    }\n\n    function fetchMarketItems() public view returns (MarketItem[] memory) {\n      uint itemCount = _itemIds.current();\n      uint unsoldItemCount = _itemIds.current() - _itemSold.current();\n      uint currentIndex = 0;\n      MarketItem[] memory items = new MarketItem[](unsoldItemCount);\n      for (uint i = 0; i < itemCount; i++) {\n        if (idMarketItem[i + 1].sold == false) {\n          uint currentId = i + 1;\n          MarketItem storage currentItem = idMarketItem[currentId];\n          items[currentIndex] = currentItem;\n          currentIndex += 1;\n        }\n      }\n      return items;\n    }\n\n    function fetchMyNFTs() public view returns (MarketItem[] memory) {\n      uint totalItemCount = _itemIds.current();\n      uint itemCount = 0;\n      uint currentIndex = 0;\n\n      for (uint i = 0; i < totalItemCount; i++) {\n        if (idMarketItem[i + 1].owner == msg.sender) {\n          itemCount += 1;\n        }\n      }\n\n      MarketItem[] memory items = new MarketItem[](itemCount);\n      for (uint i = 0; i < totalItemCount; i++) {\n        if (idMarketItem[i + 1].owner == msg.sender) {\n          uint currentId = i + 1;\n          MarketItem storage currentItem = idMarketItem[currentId];\n          items[currentIndex] = currentItem;\n          currentIndex += 1;\n        }\n      }\n      return items;\n    }\n}\n\n\n",
  "sourcePath": "/home/nisamdheen/sps/NFT_MARKETPLACE/contracts/NFTmarketplace.sol",
  "compiler": {
    "name": "solc",
    "version": "0.8.0+commit.c7dfd78e.Emscripten.clang"
  },
  "schemaVersion": "3.4.4",
  "updatedAt": "2022-02-03T09:22:22.759Z",
  "networkType": "ethereum",
  "devdoc": {
    "kind": "dev",
    "methods": {},
    "version": 1
  },
  "userdoc": {
    "kind": "user",
    "methods": {},
    "version": 1
  }
}