{
  "contractName": "NFTmarketplace",
  "abi": [
    {
      "inputs": [],
      "stateMutability": "nonpayable",
      "type": "constructor"
    },
    {
      "anonymous": false,
      "inputs": [
        {
          "indexed": true,
          "internalType": "uint256",
          "name": "itemId",
          "type": "uint256"
        },
        {
          "indexed": true,
          "internalType": "address",
          "name": "nftContracts",
          "type": "address"
        },
        {
          "indexed": true,
          "internalType": "uint256",
          "name": "tokenId",
          "type": "uint256"
        },
        {
          "indexed": false,
          "internalType": "address",
          "name": "seller",
          "type": "address"
        },
        {
          "indexed": false,
          "internalType": "address",
          "name": "owner",
          "type": "address"
        },
        {
          "indexed": false,
          "internalType": "uint256",
          "name": "price",
          "type": "uint256"
        },
        {
          "indexed": false,
          "internalType": "bool",
          "name": "sold",
          "type": "bool"
        },
        {
          "indexed": false,
          "internalType": "bool",
          "name": "auction",
          "type": "bool"
        }
      ],
      "name": "MarketItemCreated",
      "type": "event"
    },
    {
      "inputs": [
        {
          "internalType": "uint256",
          "name": "",
          "type": "uint256"
        }
      ],
      "name": "auctions",
      "outputs": [
        {
          "internalType": "uint256",
          "name": "staringPrice",
          "type": "uint256"
        },
        {
          "internalType": "uint256",
          "name": "duration",
          "type": "uint256"
        },
        {
          "internalType": "uint256",
          "name": "auctiontime",
          "type": "uint256"
        },
        {
          "internalType": "bool",
          "name": "finished",
          "type": "bool"
        },
        {
          "internalType": "uint256",
          "name": "amount",
          "type": "uint256"
        },
        {
          "internalType": "uint256",
          "name": "highestPrice",
          "type": "uint256"
        },
        {
          "internalType": "address",
          "name": "highestBidder",
          "type": "address"
        },
        {
          "internalType": "uint256",
          "name": "bidderCount",
          "type": "uint256"
        },
        {
          "internalType": "uint256",
          "name": "bidderId",
          "type": "uint256"
        }
      ],
      "stateMutability": "view",
      "type": "function",
      "constant": true
    },
    {
      "inputs": [
        {
          "internalType": "uint256",
          "name": "",
          "type": "uint256"
        },
        {
          "internalType": "uint256",
          "name": "",
          "type": "uint256"
        }
      ],
      "name": "bidders",
      "outputs": [
        {
          "internalType": "address payable",
          "name": "addr",
          "type": "address"
        },
        {
          "internalType": "uint256",
          "name": "amount",
          "type": "uint256"
        },
        {
          "internalType": "uint256",
          "name": "bitAt",
          "type": "uint256"
        }
      ],
      "stateMutability": "view",
      "type": "function",
      "constant": true
    },
    {
      "inputs": [],
      "name": "duration",
      "outputs": [
        {
          "internalType": "uint256",
          "name": "",
          "type": "uint256"
        }
      ],
      "stateMutability": "view",
      "type": "function",
      "constant": true
    },
    {
      "inputs": [
        {
          "internalType": "uint256",
          "name": "",
          "type": "uint256"
        }
      ],
      "name": "idMarketItem",
      "outputs": [
        {
          "internalType": "uint256",
          "name": "itemId",
          "type": "uint256"
        },
        {
          "internalType": "address",
          "name": "nftContracts",
          "type": "address"
        },
        {
          "internalType": "uint256",
          "name": "tokenId",
          "type": "uint256"
        },
        {
          "internalType": "address payable",
          "name": "minter",
          "type": "address"
        },
        {
          "internalType": "address payable",
          "name": "seller",
          "type": "address"
        },
        {
          "internalType": "address payable",
          "name": "owner",
          "type": "address"
        },
        {
          "internalType": "uint256",
          "name": "price",
          "type": "uint256"
        },
        {
          "internalType": "bool",
          "name": "sold",
          "type": "bool"
        },
        {
          "internalType": "bool",
          "name": "auction",
          "type": "bool"
        },
        {
          "internalType": "uint256",
          "name": "auctionId",
          "type": "uint256"
        }
      ],
      "stateMutability": "view",
      "type": "function",
      "constant": true
    },
    {
      "inputs": [],
      "name": "owner",
      "outputs": [
        {
          "internalType": "address payable",
          "name": "",
          "type": "address"
        }
      ],
      "stateMutability": "view",
      "type": "function",
      "constant": true
    },
    {
      "inputs": [],
      "name": "getListingPrice",
      "outputs": [
        {
          "internalType": "uint256",
          "name": "",
          "type": "uint256"
        }
      ],
      "stateMutability": "view",
      "type": "function",
      "constant": true
    },
    {
      "inputs": [],
      "name": "marketItemCont",
      "outputs": [
        {
          "internalType": "uint256",
          "name": "",
          "type": "uint256"
        }
      ],
      "stateMutability": "view",
      "type": "function",
      "constant": true
    },
    {
      "inputs": [
        {
          "internalType": "address",
          "name": "nftContract",
          "type": "address"
        },
        {
          "internalType": "uint256",
          "name": "tokenId",
          "type": "uint256"
        },
        {
          "internalType": "uint256",
          "name": "price",
          "type": "uint256"
        }
      ],
      "name": "createMarketplace",
      "outputs": [],
      "stateMutability": "payable",
      "type": "function",
      "payable": true
    },
    {
      "inputs": [
        {
          "internalType": "address",
          "name": "nftContract",
          "type": "address"
        },
        {
          "internalType": "uint256",
          "name": "Id",
          "type": "uint256"
        },
        {
          "internalType": "uint256",
          "name": "price",
          "type": "uint256"
        }
      ],
      "name": "sellMarketplace",
      "outputs": [],
      "stateMutability": "payable",
      "type": "function",
      "payable": true
    },
    {
      "inputs": [
        {
          "internalType": "address",
          "name": "nftContract",
          "type": "address"
        },
        {
          "internalType": "uint256",
          "name": "ItemId",
          "type": "uint256"
        }
      ],
      "name": "creatMarketSales",
      "outputs": [],
      "stateMutability": "payable",
      "type": "function",
      "payable": true
    },
    {
      "inputs": [
        {
          "internalType": "address",
          "name": "nftContract",
          "type": "address"
        },
        {
          "internalType": "uint256",
          "name": "itemId",
          "type": "uint256"
        },
        {
          "internalType": "uint256",
          "name": "_staringPrice",
          "type": "uint256"
        }
      ],
      "name": "createAuction",
      "outputs": [],
      "stateMutability": "payable",
      "type": "function",
      "payable": true
    },
    {
      "inputs": [
        {
          "internalType": "uint256",
          "name": "_tokenId",
          "type": "uint256"
        }
      ],
      "name": "bid",
      "outputs": [],
      "stateMutability": "payable",
      "type": "function",
      "payable": true
    },
    {
      "inputs": [
        {
          "internalType": "address",
          "name": "nftContract",
          "type": "address"
        },
        {
          "internalType": "uint256",
          "name": "_tokenId",
          "type": "uint256"
        }
      ],
      "name": "finish",
      "outputs": [],
      "stateMutability": "nonpayable",
      "type": "function"
    },
    {
      "inputs": [],
      "name": "fetchMarketItems",
      "outputs": [
        {
          "components": [
            {
              "internalType": "uint256",
              "name": "itemId",
              "type": "uint256"
            },
            {
              "internalType": "address",
              "name": "nftContracts",
              "type": "address"
            },
            {
              "internalType": "uint256",
              "name": "tokenId",
              "type": "uint256"
            },
            {
              "internalType": "address payable",
              "name": "minter",
              "type": "address"
            },
            {
              "internalType": "address payable",
              "name": "seller",
              "type": "address"
            },
            {
              "internalType": "address payable",
              "name": "owner",
              "type": "address"
            },
            {
              "internalType": "uint256",
              "name": "price",
              "type": "uint256"
            },
            {
              "internalType": "bool",
              "name": "sold",
              "type": "bool"
            },
            {
              "internalType": "bool",
              "name": "auction",
              "type": "bool"
            },
            {
              "internalType": "uint256",
              "name": "auctionId",
              "type": "uint256"
            }
          ],
          "internalType": "struct NFTmarketplace.MarketItem[]",
          "name": "",
          "type": "tuple[]"
        }
      ],
      "stateMutability": "view",
      "type": "function",
      "constant": true
    },
    {
      "inputs": [],
      "name": "fetchMyNFTs",
      "outputs": [
        {
          "components": [
            {
              "internalType": "uint256",
              "name": "itemId",
              "type": "uint256"
            },
            {
              "internalType": "address",
              "name": "nftContracts",
              "type": "address"
            },
            {
              "internalType": "uint256",
              "name": "tokenId",
              "type": "uint256"
            },
            {
              "internalType": "address payable",
              "name": "minter",
              "type": "address"
            },
            {
              "internalType": "address payable",
              "name": "seller",
              "type": "address"
            },
            {
              "internalType": "address payable",
              "name": "owner",
              "type": "address"
            },
            {
              "internalType": "uint256",
              "name": "price",
              "type": "uint256"
            },
            {
              "internalType": "bool",
              "name": "sold",
              "type": "bool"
            },
            {
              "internalType": "bool",
              "name": "auction",
              "type": "bool"
            },
            {
              "internalType": "uint256",
              "name": "auctionId",
              "type": "uint256"
            }
          ],
          "internalType": "struct NFTmarketplace.MarketItem[]",
          "name": "",
          "type": "tuple[]"
        }
      ],
      "stateMutability": "view",
      "type": "function",
      "constant": true
    }
  ],
  "bytecode": "0x60806040526658d15e176280006005556201518060065534801561002257600080fd5b50600160008190555033600460006101000a81548173ffffffffffffffffffffffffffffffffffffffff021916908373ffffffffffffffffffffffffffffffffffffffff160217905550612e0c8061007b6000396000f3fe6080604052600436106100e85760003560e01c8063316c994a1161008a578063864325e111610059578063864325e1146102cc5780638da5cb5b146102e8578063abb9405114610313578063d1c112051461032f576100e8565b8063316c994a1461022457806342968c0b1461024f578063454a2ab31461026b578063571a26a014610287576100e8565b806312e85585116100c657806312e85585146101895780631dbcf67a146101b4578063202e3740146101d057806329008824146101fb576100e8565b8063087ae8a2146100ed5780630f08efe0146101335780630fb5a6b41461015e575b600080fd5b3480156100f957600080fd5b50610114600480360381019061010f919061240f565b61036e565b60405161012a9a99989796959493929190612aa3565b60405180910390f35b34801561013f57600080fd5b5061014861045c565b6040516101559190612966565b60405180910390f35b34801561016a57600080fd5b506101736107b3565b6040516101809190612a88565b60405180910390f35b34801561019557600080fd5b5061019e6107b9565b6040516101ab9190612a88565b60405180910390f35b6101ce60048036038101906101c991906123c0565b6107c3565b005b3480156101dc57600080fd5b506101e5610b8b565b6040516101f29190612966565b60405180910390f35b34801561020757600080fd5b50610222600480360381019061021d9190612384565b610fa1565b005b34801561023057600080fd5b5061023961143c565b6040516102469190612a88565b60405180910390f35b61026960048036038101906102649190612384565b611452565b005b6102856004803603810190610280919061240f565b61170c565b005b34801561029357600080fd5b506102ae60048036038101906102a9919061240f565b611aa7565b6040516102c399989796959493929190612b3f565b60405180910390f35b6102e660048036038101906102e191906123c0565b611b22565b005b3480156102f457600080fd5b506102fd611de7565b60405161030a919061288a565b60405180910390f35b61032d600480360381019061032891906123c0565b611e0d565b005b34801561033b57600080fd5b5061035660048036038101906103519190612438565b612152565b604051610365939291906128f8565b60405180910390f35b60096020528060005260406000206000915090508060000154908060010160009054906101000a900473ffffffffffffffffffffffffffffffffffffffff16908060020154908060030160009054906101000a900473ffffffffffffffffffffffffffffffffffffffff16908060040160009054906101000a900473ffffffffffffffffffffffffffffffffffffffff16908060050160009054906101000a900473ffffffffffffffffffffffffffffffffffffffff16908060060154908060070160009054906101000a900460ff16908060070160019054906101000a900460ff1690806008015490508a565b6060600061046a60016121b9565b9050600061047860036121b9565b61048260016121b9565b61048c9190612c6c565b90506000808267ffffffffffffffff8111156104d1577f4e487b7100000000000000000000000000000000000000000000000000000000600052604160045260246000fd5b60405190808252806020026020018201604052801561050a57816020015b6104f7612239565b8152602001906001900390816104ef5790505b50905060005b848110156107a857600015156009600060018461052d9190612c16565b815260200190815260200160002060070160009054906101000a900460ff16151514156107955760006001826105639190612c16565b905060006009600083815260200190815260200160002090508060405180610140016040529081600082015481526020016001820160009054906101000a900473ffffffffffffffffffffffffffffffffffffffff1673ffffffffffffffffffffffffffffffffffffffff1673ffffffffffffffffffffffffffffffffffffffff168152602001600282015481526020016003820160009054906101000a900473ffffffffffffffffffffffffffffffffffffffff1673ffffffffffffffffffffffffffffffffffffffff1673ffffffffffffffffffffffffffffffffffffffff1681526020016004820160009054906101000a900473ffffffffffffffffffffffffffffffffffffffff1673ffffffffffffffffffffffffffffffffffffffff1673ffffffffffffffffffffffffffffffffffffffff1681526020016005820160009054906101000a900473ffffffffffffffffffffffffffffffffffffffff1673ffffffffffffffffffffffffffffffffffffffff1673ffffffffffffffffffffffffffffffffffffffff168152602001600682015481526020016007820160009054906101000a900460ff161515151581526020016007820160019054906101000a900460ff16151515158152602001600882015481525050848681518110610778577f4e487b7100000000000000000000000000000000000000000000000000000000600052603260045260246000fd5b60200260200101819052506001856107909190612c16565b945050505b80806107a090612d30565b915050610510565b508094505050505090565b60065481565b6000600554905090565b60026000541415610809576040517f08c379a000000000000000000000000000000000000000000000000000000000815260040161080090612a48565b60405180910390fd5b600260008190555060008111610854576040517f08c379a000000000000000000000000000000000000000000000000000000000815260040161084b90612a68565b60405180910390fd5b6005543414610898576040517f08c379a000000000000000000000000000000000000000000000000000000000815260040161088f906129c8565b60405180910390fd5b6108a260016121c7565b60006108ae60016121b9565b9050806009600083815260200190815260200160002060000181905550836009600083815260200190815260200160002060010160006101000a81548173ffffffffffffffffffffffffffffffffffffffff021916908373ffffffffffffffffffffffffffffffffffffffff160217905550826009600083815260200190815260200160002060020181905550336009600083815260200190815260200160002060030160006101000a81548173ffffffffffffffffffffffffffffffffffffffff021916908373ffffffffffffffffffffffffffffffffffffffff160217905550336009600083815260200190815260200160002060040160006101000a81548173ffffffffffffffffffffffffffffffffffffffff021916908373ffffffffffffffffffffffffffffffffffffffff16021790555060006009600083815260200190815260200160002060050160006101000a81548173ffffffffffffffffffffffffffffffffffffffff021916908373ffffffffffffffffffffffffffffffffffffffff16021790555081600960008381526020019081526020016000206006018190555060006009600083815260200190815260200160002060070160006101000a81548160ff02191690831515021790555060006009600083815260200190815260200160002060070160016101000a81548160ff0219169083151502179055508373ffffffffffffffffffffffffffffffffffffffff166323b872dd3330866040518463ffffffff1660e01b8152600401610af19392919061292f565b600060405180830381600087803b158015610b0b57600080fd5b505af1158015610b1f573d6000803e3d6000fd5b50505050828473ffffffffffffffffffffffffffffffffffffffff16827fc99151f4453170a67bc7441775fde1a3bc3220c06645df1121e703aab5e7da5d60003387600080604051610b759594939291906128a5565b60405180910390a4506001600081905550505050565b60606000610b9960016121b9565b905060008060005b83811015610c42573373ffffffffffffffffffffffffffffffffffffffff1660096000600184610bd19190612c16565b815260200190815260200160002060050160009054906101000a900473ffffffffffffffffffffffffffffffffffffffff1673ffffffffffffffffffffffffffffffffffffffff161415610c2f57600183610c2c9190612c16565b92505b8080610c3a90612d30565b915050610ba1565b5060008267ffffffffffffffff811115610c85577f4e487b7100000000000000000000000000000000000000000000000000000000600052604160045260246000fd5b604051908082528060200260200182016040528015610cbe57816020015b610cab612239565b815260200190600190039081610ca35790505b50905060005b84811015610f96573373ffffffffffffffffffffffffffffffffffffffff1660096000600184610cf49190612c16565b815260200190815260200160002060050160009054906101000a900473ffffffffffffffffffffffffffffffffffffffff1673ffffffffffffffffffffffffffffffffffffffff161415610f83576000600182610d519190612c16565b905060006009600083815260200190815260200160002090508060405180610140016040529081600082015481526020016001820160009054906101000a900473ffffffffffffffffffffffffffffffffffffffff1673ffffffffffffffffffffffffffffffffffffffff1673ffffffffffffffffffffffffffffffffffffffff168152602001600282015481526020016003820160009054906101000a900473ffffffffffffffffffffffffffffffffffffffff1673ffffffffffffffffffffffffffffffffffffffff1673ffffffffffffffffffffffffffffffffffffffff1681526020016004820160009054906101000a900473ffffffffffffffffffffffffffffffffffffffff1673ffffffffffffffffffffffffffffffffffffffff1673ffffffffffffffffffffffffffffffffffffffff1681526020016005820160009054906101000a900473ffffffffffffffffffffffffffffffffffffffff1673ffffffffffffffffffffffffffffffffffffffff1673ffffffffffffffffffffffffffffffffffffffff168152602001600682015481526020016007820160009054906101000a900460ff161515151581526020016007820160019054906101000a900460ff16151515158152602001600882015481525050848681518110610f66577f4e487b7100000000000000000000000000000000000000000000000000000000600052603260045260246000fd5b6020026020010181905250600185610f7e9190612c16565b945050505b8080610f8e90612d30565b915050610cc4565b508094505050505090565b4260076000838152602001908152602001600020600101541015610ffa576040517f08c379a0000000000000000000000000000000000000000000000000000000008152600401610ff190612a28565b60405180910390fd5b60005b600160086000848152602001908152602001600020805490506110209190612c6c565b811015611245576007600083815260200190815260200160002060060160009054906101000a900473ffffffffffffffffffffffffffffffffffffffff1673ffffffffffffffffffffffffffffffffffffffff166008600084815260200190815260200160002082815481106110bf577f4e487b7100000000000000000000000000000000000000000000000000000000600052603260045260246000fd5b906000526020600020906003020160000160009054906101000a900473ffffffffffffffffffffffffffffffffffffffff1673ffffffffffffffffffffffffffffffffffffffff1614611232576000600860008481526020019081526020016000208281548110611159577f4e487b7100000000000000000000000000000000000000000000000000000000600052603260045260246000fd5b90600052602060002090600302016001015490506008600084815260200190815260200160002082815481106111b8577f4e487b7100000000000000000000000000000000000000000000000000000000600052603260045260246000fd5b906000526020600020906003020160000160009054906101000a900473ffffffffffffffffffffffffffffffffffffffff1673ffffffffffffffffffffffffffffffffffffffff166108fc829081150290604051600060405180830381858888f1935050505015801561122f573d6000803e3d6000fd5b50505b808061123d90612d30565b915050610ffd565b5060086000828152602001908152602001600020600061126591906122e8565b60006007600083815260200190815260200160002060060160009054906101000a900473ffffffffffffffffffffffffffffffffffffffff169050806009600084815260200190815260200160002060050160006101000a81548173ffffffffffffffffffffffffffffffffffffffff021916908373ffffffffffffffffffffffffffffffffffffffff16021790555060016009600084815260200190815260200160002060070160006101000a81548160ff02191690831515021790555060016007600084815260200190815260200160002060030160006101000a81548160ff02191690831515021790555061135d60036121c7565b600460009054906101000a900473ffffffffffffffffffffffffffffffffffffffff1673ffffffffffffffffffffffffffffffffffffffff166108fc6005549081150290604051600060405180830381858888f193505050501580156113c7573d6000803e3d6000fd5b508273ffffffffffffffffffffffffffffffffffffffff166323b872dd3083856040518463ffffffff1660e01b81526004016114059392919061292f565b600060405180830381600087803b15801561141f57600080fd5b505af1158015611433573d6000803e3d6000fd5b50505050505050565b60008061144960016121b9565b90508091505090565b60026000541415611498576040517f08c379a000000000000000000000000000000000000000000000000000000000815260040161148f90612a48565b60405180910390fd5b600260008190555060006009600083815260200190815260200160002060060154905060006009600084815260200190815260200160002060020154905081341015611519576040517f08c379a000000000000000000000000000000000000000000000000000000000815260040161151090612a08565b60405180910390fd5b6009600084815260200190815260200160002060040160009054906101000a900473ffffffffffffffffffffffffffffffffffffffff1673ffffffffffffffffffffffffffffffffffffffff166108fc349081150290604051600060405180830381858888f19350505050158015611595573d6000803e3d6000fd5b508373ffffffffffffffffffffffffffffffffffffffff166323b872dd3033846040518463ffffffff1660e01b81526004016115d39392919061292f565b600060405180830381600087803b1580156115ed57600080fd5b505af1158015611601573d6000803e3d6000fd5b50505050336009600085815260200190815260200160002060050160006101000a81548173ffffffffffffffffffffffffffffffffffffffff021916908373ffffffffffffffffffffffffffffffffffffffff16021790555060016009600085815260200190815260200160002060070160006101000a81548160ff02191690831515021790555061169360036121c7565b600460009054906101000a900473ffffffffffffffffffffffffffffffffffffffff1673ffffffffffffffffffffffffffffffffffffffff166108fc6005549081150290604051600060405180830381858888f193505050501580156116fd573d6000803e3d6000fd5b50505060016000819055505050565b4260076000838152602001908152602001600020600101541115611765576040517f08c379a000000000000000000000000000000000000000000000000000000000815260040161175c90612988565b60405180910390fd5b6000600190505b60076000838152602001908152602001600020600701548111611887576008600083815260200190815260200160002081815481106117d4577f4e487b7100000000000000000000000000000000000000000000000000000000600052603260045260246000fd5b906000526020600020906003020160000160009054906101000a900473ffffffffffffffffffffffffffffffffffffffff1673ffffffffffffffffffffffffffffffffffffffff163373ffffffffffffffffffffffffffffffffffffffff161415611874576040517f08c379a000000000000000000000000000000000000000000000000000000000815260040161186b906129e8565b60405180910390fd5b808061187f90612d30565b91505061176c565b50600760008281526020019081526020016000206000015434116118aa57600080fd5b6007600082815260200190815260200160002060030160009054906101000a900460ff16156118d857600080fd5b6008600082815260200190815260200160002060405180606001604052803373ffffffffffffffffffffffffffffffffffffffff16815260200134815260200142815250908060018154018082558091505060019003906000526020600020906003020160009091909190915060008201518160000160006101000a81548173ffffffffffffffffffffffffffffffffffffffff021916908373ffffffffffffffffffffffffffffffffffffffff160217905550602082015181600101556040820151816002015550506007600082815260200190815260200160002060070160008154809291906119c990612d30565b919050555080600760008381526020019081526020016000206008018190555034600760008381526020019081526020016000206004016000828254611a0f9190612c16565b9250508190555060076000828152602001908152602001600020600501543410611aa457346007600083815260200190815260200160002060050181905550336007600083815260200190815260200160002060060160006101000a81548173ffffffffffffffffffffffffffffffffffffffff021916908373ffffffffffffffffffffffffffffffffffffffff1602179055505b50565b60076020528060005260406000206000915090508060000154908060010154908060020154908060030160009054906101000a900460ff16908060040154908060050154908060060160009054906101000a900473ffffffffffffffffffffffffffffffffffffffff16908060070154908060080154905089565b60026000541415611b68576040517f08c379a0000000000000000000000000000000000000000000000000000000008152600401611b5f90612a48565b60405180910390fd5b600260008190555060008111611bb3576040517f08c379a0000000000000000000000000000000000000000000000000000000008152600401611baa90612a68565b60405180910390fd5b600554341015611bf8576040517f08c379a0000000000000000000000000000000000000000000000000000000008152600401611bef906129c8565b60405180910390fd5b60006009600084815260200190815260200160002060020154905081600960008581526020019081526020016000206006018190555060006009600085815260200190815260200160002060070160006101000a81548160ff021916908315150217905550306009600085815260200190815260200160002060050160006101000a81548173ffffffffffffffffffffffffffffffffffffffff021916908373ffffffffffffffffffffffffffffffffffffffff160217905550336009600085815260200190815260200160002060040160006101000a81548173ffffffffffffffffffffffffffffffffffffffff021916908373ffffffffffffffffffffffffffffffffffffffff1602179055508373ffffffffffffffffffffffffffffffffffffffff166323b872dd3330846040518463ffffffff1660e01b8152600401611d449392919061292f565b600060405180830381600087803b158015611d5e57600080fd5b505af1158015611d72573d6000803e3d6000fd5b50505050808473ffffffffffffffffffffffffffffffffffffffff16847fc99151f4453170a67bc7441775fde1a3bc3220c06645df1121e703aab5e7da5d303387600080604051611dc79594939291906128a5565b60405180910390a4611dd960036121dd565b506001600081905550505050565b600460009054906101000a900473ffffffffffffffffffffffffffffffffffffffff1681565b60026000541415611e53576040517f08c379a0000000000000000000000000000000000000000000000000000000008152600401611e4a90612a48565b60405180910390fd5b600260008190555060008111611e9e576040517f08c379a0000000000000000000000000000000000000000000000000000000008152600401611e9590612a68565b60405180910390fd5b6005543414611ee2576040517f08c379a0000000000000000000000000000000000000000000000000000000008152600401611ed9906129c8565b60405180910390fd5b600060096000848152602001908152602001600020600201549050610258600654611f0d9190612c16565b600760008381526020019081526020016000206001018190555042600760008381526020019081526020016000206002018190555081600760008381526020019081526020016000206000018190555060006007600083815260200190815260200160002060030160006101000a81548160ff021916908315150217905550336009600085815260200190815260200160002060040160006101000a81548173ffffffffffffffffffffffffffffffffffffffff021916908373ffffffffffffffffffffffffffffffffffffffff160217905550306009600085815260200190815260200160002060050160006101000a81548173ffffffffffffffffffffffffffffffffffffffff021916908373ffffffffffffffffffffffffffffffffffffffff1602179055506000600960008581526020019081526020016000206006018190555060006009600085815260200190815260200160002060070160006101000a81548160ff02191690831515021790555060016009600085815260200190815260200160002060070160016101000a81548160ff0219169083151502179055508060096000858152602001908152602001600020600801819055508373ffffffffffffffffffffffffffffffffffffffff166323b872dd3330846040518463ffffffff1660e01b81526004016121089392919061292f565b600060405180830381600087803b15801561212257600080fd5b505af1158015612136573d6000803e3d6000fd5b5050505061214460036121dd565b506001600081905550505050565b6008602052816000526040600020818154811061216e57600080fd5b9060005260206000209060030201600091509150508060000160009054906101000a900473ffffffffffffffffffffffffffffffffffffffff16908060010154908060020154905083565b600081600001549050919050565b6001816000016000828254019250508190555050565b60008160000154905060008111612229576040517f08c379a0000000000000000000000000000000000000000000000000000000008152600401612220906129a8565b60405180910390fd5b6001810382600001819055505050565b60405180610140016040528060008152602001600073ffffffffffffffffffffffffffffffffffffffff16815260200160008152602001600073ffffffffffffffffffffffffffffffffffffffff168152602001600073ffffffffffffffffffffffffffffffffffffffff168152602001600073ffffffffffffffffffffffffffffffffffffffff16815260200160008152602001600015158152602001600015158152602001600081525090565b5080546000825560030290600052602060002090810190612309919061230c565b50565b5b8082111561235657600080820160006101000a81549073ffffffffffffffffffffffffffffffffffffffff0219169055600182016000905560028201600090555060030161230d565b5090565b60008135905061236981612da8565b92915050565b60008135905061237e81612dbf565b92915050565b6000806040838503121561239757600080fd5b60006123a58582860161235a565b92505060206123b68582860161236f565b9150509250929050565b6000806000606084860312156123d557600080fd5b60006123e38682870161235a565b93505060206123f48682870161236f565b92505060406124058682870161236f565b9150509250925092565b60006020828403121561242157600080fd5b600061242f8482850161236f565b91505092915050565b6000806040838503121561244b57600080fd5b60006124598582860161236f565b925050602061246a8582860161236f565b9150509250929050565b600061248083836127a0565b6101408301905092915050565b61249681612cfa565b82525050565b6124a581612cb2565b82525050565b6124b481612cb2565b82525050565b6124c381612ca0565b82525050565b6124d281612ca0565b82525050565b60006124e382612bdc565b6124ed8185612bf4565b93506124f883612bcc565b8060005b838110156125295781516125108882612474565b975061251b83612be7565b9250506001810190506124fc565b5085935050505092915050565b61253f81612cc4565b82525050565b61254e81612cc4565b82525050565b6000612561600c83612c05565b91507f54696d65206578706169726500000000000000000000000000000000000000006000830152602082019050919050565b60006125a1601b83612c05565b91507f436f756e7465723a2064656372656d656e74206f766572666c6f7700000000006000830152602082019050919050565b60006125e1602183612c05565b91507f76616c7565206d75737420657175616c20746f206c697374696e67207072696360008301527f65000000000000000000000000000000000000000000000000000000000000006020830152604082019050919050565b6000612647601083612c05565b91507f796f7520616c72656179206269646564000000000000000000000000000000006000830152602082019050919050565b6000612687603883612c05565b91507f746f20636f6d706c69742074686973207472616e73616374696f6e20796f752060008301527f73686f756c6420686176652061736b696e6720707269636500000000000000006020830152604082019050919050565b60006126ed601183612c05565b91507f54696d65206e6f742065787061697265640000000000000000000000000000006000830152602082019050919050565b600061272d601f83612c05565b91507f5265656e7472616e637947756172643a207265656e7472616e742063616c6c006000830152602082019050919050565b600061276d601d83612c05565b91507f7072696365206d757374206265206772617465727468616e207a65726f0000006000830152602082019050919050565b610140820160008201516127b7600085018261286c565b5060208201516127ca60208501826124ba565b5060408201516127dd604085018261286c565b5060608201516127f0606085018261249c565b506080820151612803608085018261249c565b5060a082015161281660a085018261249c565b5060c082015161282960c085018261286c565b5060e082015161283c60e0850182612536565b50610100820151612851610100850182612536565b5061012082015161286661012085018261286c565b50505050565b61287581612cf0565b82525050565b61288481612cf0565b82525050565b600060208201905061289f60008301846124ab565b92915050565b600060a0820190506128ba600083018861248d565b6128c7602083018761248d565b6128d4604083018661287b565b6128e16060830185612545565b6128ee6080830184612545565b9695505050505050565b600060608201905061290d60008301866124ab565b61291a602083018561287b565b612927604083018461287b565b949350505050565b600060608201905061294460008301866124c9565b61295160208301856124c9565b61295e604083018461287b565b949350505050565b6000602082019050818103600083015261298081846124d8565b905092915050565b600060208201905081810360008301526129a181612554565b9050919050565b600060208201905081810360008301526129c181612594565b9050919050565b600060208201905081810360008301526129e1816125d4565b9050919050565b60006020820190508181036000830152612a018161263a565b9050919050565b60006020820190508181036000830152612a218161267a565b9050919050565b60006020820190508181036000830152612a41816126e0565b9050919050565b60006020820190508181036000830152612a6181612720565b9050919050565b60006020820190508181036000830152612a8181612760565b9050919050565b6000602082019050612a9d600083018461287b565b92915050565b600061014082019050612ab9600083018d61287b565b612ac6602083018c6124c9565b612ad3604083018b61287b565b612ae0606083018a6124ab565b612aed60808301896124ab565b612afa60a08301886124ab565b612b0760c083018761287b565b612b1460e0830186612545565b612b22610100830185612545565b612b3061012083018461287b565b9b9a5050505050505050505050565b600061012082019050612b55600083018c61287b565b612b62602083018b61287b565b612b6f604083018a61287b565b612b7c6060830189612545565b612b89608083018861287b565b612b9660a083018761287b565b612ba360c08301866124c9565b612bb060e083018561287b565b612bbe61010083018461287b565b9a9950505050505050505050565b6000819050602082019050919050565b600081519050919050565b6000602082019050919050565b600082825260208201905092915050565b600082825260208201905092915050565b6000612c2182612cf0565b9150612c2c83612cf0565b9250827fffffffffffffffffffffffffffffffffffffffffffffffffffffffffffffffff03821115612c6157612c60612d79565b5b828201905092915050565b6000612c7782612cf0565b9150612c8283612cf0565b925082821015612c9557612c94612d79565b5b828203905092915050565b6000612cab82612cd0565b9050919050565b6000612cbd82612cd0565b9050919050565b60008115159050919050565b600073ffffffffffffffffffffffffffffffffffffffff82169050919050565b6000819050919050565b6000612d0582612d0c565b9050919050565b6000612d1782612d1e565b9050919050565b6000612d2982612cd0565b9050919050565b6000612d3b82612cf0565b91507fffffffffffffffffffffffffffffffffffffffffffffffffffffffffffffffff821415612d6e57612d6d612d79565b5b600182019050919050565b7f4e487b7100000000000000000000000000000000000000000000000000000000600052601160045260246000fd5b612db181612ca0565b8114612dbc57600080fd5b50565b612dc881612cf0565b8114612dd357600080fd5b5056fea2646970667358221220c300f55bdc7bdf5208bfdfdfb71fc1140c8bf09889c28b97f154ba7e002776ec64736f6c63430008000033",
  "immutableReferences": {},
  "source": "// SPDX-License-Identifier: MIT\npragma solidity >=0.4.22 <0.9.0;\n\nimport \"@openzeppelin/contracts/token/ERC721/ERC721.sol\";\nimport \"@openzeppelin/contracts/utils/Counters.sol\";\nimport \"@openzeppelin/contracts/security/ReentrancyGuard.sol\";\n\ncontract NFTmarketplace is ReentrancyGuard {\n    using Counters for Counters.Counter;\n    Counters.Counter private _itemIds;\n    Counters.Counter private _auctionId;\n    Counters.Counter private _itemSold;\n\n    address payable public owner;\n    uint listingPrice = 0.025 ether;\n    uint public duration = 1 days;\n\n    constructor(){\n    owner = payable(msg.sender) ;\n    }\n\n   \n     struct Bidder {\n        address payable addr;\n        uint amount;\n        uint bitAt;\n    }\n\n    struct Auction {\n        // uint256 tokenId;\n        // address payable seller;\n        uint staringPrice;\n        uint duration;\n        uint auctiontime;\n        bool finished;\n        uint amount;\n        uint highestPrice;\n        address highestBidder; \n        uint bidderCount;       \n        uint bidderId;\n    }\n     struct MarketItem{\n        uint itemId;\n        address nftContracts;\n        uint tokenId;\n        address payable minter;\n        address payable seller;\n        address payable owner;\n        uint price;\n        bool sold;\n        bool auction;\n        uint auctionId;\n    }\n\n\n    // Auction[] auctions;\n    mapping(uint => Auction) public auctions;\n    mapping(uint => Bidder []) public bidders;\n    //  Bidder [] public bidders;\n    mapping(uint => MarketItem) public idMarketItem;\n\n    event MarketItemCreated(\n        uint indexed itemId,\n        address indexed nftContracts,\n        uint indexed tokenId,\n        address  seller,\n        address owner,\n        uint price,\n        bool sold,\n        bool auction\n        // Auction auctionDetails\n    );\n    \n\n    function getListingPrice() public view returns(uint){\n        return listingPrice;\n    }\n    function marketItemCont() public view returns(uint){\n       uint newItemId = _itemIds.current();\n        return newItemId;\n    }\n\n    function createMarketplace(address nftContract, uint tokenId, uint price) public payable nonReentrant {\n        require(price > 0 , \"price must be graterthan zero\");\n        require(msg.value == listingPrice, \"value must equal to listing price\");\n\n        _itemIds.increment();\n        uint newItemId = _itemIds.current();\n\n        idMarketItem[newItemId].itemId = newItemId;\n        idMarketItem[newItemId].nftContracts = nftContract;\n        idMarketItem[newItemId].tokenId = tokenId;\n        idMarketItem[newItemId].minter = payable(msg.sender);\n        idMarketItem[newItemId].seller = payable(msg.sender);\n        idMarketItem[newItemId].owner = payable (address(0)) ;\n        idMarketItem[newItemId].price = price;\n        idMarketItem[newItemId].sold = false;\n        idMarketItem[newItemId].auction = false;\n\n        \n        IERC721(nftContract).transferFrom(msg.sender, address(this), tokenId);\n\n        emit MarketItemCreated(\n            newItemId,\n            nftContract,\n            tokenId,\n            payable(address(0)),\n            payable(msg.sender),\n            price,\n            false,\n            false\n        );\n    }\n\n      function sellMarketplace(address nftContract, uint Id, uint price) public payable nonReentrant {\n        require(price > 0 , \"price must be graterthan zero\");\n        require(msg.value >= listingPrice, \"value must equal to listing price\");\n        uint tokenId = idMarketItem[Id].tokenId;\n        idMarketItem[Id].price = price;\n        idMarketItem[Id].sold = false;\n        idMarketItem[Id].owner = payable(address(this));\n        idMarketItem[Id].seller = payable(msg.sender);\n\n        IERC721(nftContract).transferFrom(msg.sender, address(this), tokenId);\n        emit MarketItemCreated(\n            Id,\n            nftContract,\n            tokenId,\n            payable(address(this)),\n            payable(msg.sender),\n            price,\n            false,\n            false\n        );\n        _itemSold.decrement();\n    }\n\n    function creatMarketSales(address nftContract, uint ItemId) public payable nonReentrant{\n        uint price = idMarketItem[ItemId].price;\n        uint tokenId = idMarketItem[ItemId].tokenId;\n        require(msg.value >= price, \"to complit this transaction you should have asking price\");\n\n        \n        idMarketItem[ItemId].seller.transfer(msg.value);\n       \n        IERC721(nftContract).transferFrom(address(this), msg.sender, tokenId);\n        idMarketItem[ItemId].owner = payable(msg.sender);\n        idMarketItem[ItemId].sold = true;\n        _itemSold.increment();\n        payable(owner).transfer(listingPrice);\n\n    }\n    // auction\n    function createAuction(\n      address nftContract,\n        uint itemId,\n        uint _staringPrice\n    ) public payable nonReentrant  {\n      require(_staringPrice > 0 , \"price must be graterthan zero\");\n      require(msg.value == listingPrice, \"value must equal to listing price\");\n\n        uint tokenId = idMarketItem[itemId].tokenId;\n        auctions[tokenId].duration = duration + (10 * 1 minutes);\n        auctions[tokenId].auctiontime = block.timestamp;\n        auctions[tokenId].staringPrice = _staringPrice;\n        auctions[tokenId].finished = false;\n\n        idMarketItem[itemId].seller = payable(msg.sender);\n        idMarketItem[itemId].owner = payable (address(this)) ;\n        idMarketItem[itemId].price = 0;\n        idMarketItem[itemId].sold = false;\n        idMarketItem[itemId].auction = true;\n        idMarketItem[itemId].auctionId = tokenId;\n \n          IERC721(nftContract).transferFrom(msg.sender, address(this), tokenId);\n        // emit MarketItemCreated(\n        //     itemId,\n        //     nftContract,\n        //     tokenId,\n        //     payable(address(this)),\n        //     payable(msg.sender),\n        //     0,\n        //     false,\n        //     true\n        // );\n        _itemSold.decrement();\n\n      // emit AuctionCreated(_tokenId, _seller, _price);\n    }\n\n\n    function bid (uint _tokenId) public payable {\n      require(auctions[_tokenId].duration <= block.timestamp, \"Time expaire\");\n      \n        // require(auction.seller != address(0));\n        for(uint i = 1; i<=auctions[_tokenId].bidderCount; i++ ){\n           require(msg.sender != bidders[_tokenId][i].addr, \"you alreay bided\");\n        }\n       \n        require(msg.value > auctions[_tokenId].staringPrice );\n        require(!auctions[_tokenId].finished);\n        bidders[_tokenId].push(Bidder(payable(msg.sender), msg.value, block.timestamp));\n        auctions[_tokenId].bidderCount++;\n       \n        auctions[_tokenId].bidderId = _tokenId;\n        auctions[_tokenId].amount += msg.value;\n        if(msg.value >= auctions[_tokenId].highestPrice){\n          auctions[_tokenId].highestPrice = msg.value;\n          auctions[_tokenId].highestBidder = msg.sender;\n          \n        }\n        \n        // emit AuctionBidden(_tokenId, msg.sender, msg.value);\n    }\n\n    function finish(address nftContract, uint _tokenId) public {\n      require(auctions[_tokenId].duration >= block.timestamp, \"Time not expaired\");\n\n        for (uint i = 0; i < bidders[_tokenId].length - 1; i++) {\n          if( bidders[_tokenId][i].addr != auctions[_tokenId].highestBidder){\n\n              uint amount = bidders[_tokenId][i].amount;\n              bidders[_tokenId][i].addr.transfer(amount);\n          }\n        }\n        delete bidders[_tokenId];\n        address bidder = auctions[_tokenId].highestBidder;\n\n        idMarketItem[_tokenId].owner = payable(bidder);\n        idMarketItem[_tokenId].sold = true;\n        auctions[_tokenId].finished = true;\n        _itemSold.increment();\n        payable(owner).transfer(listingPrice);\n        IERC721(nftContract).transferFrom(address(this), bidder, _tokenId);\n        // emit AuctionFinished(_tokenId, awarder.addr);\n    }\n\n    function fetchMarketItems() public view returns (MarketItem[] memory) {\n      uint itemCount = _itemIds.current();\n      uint unsoldItemCount = _itemIds.current() - _itemSold.current();\n      uint currentIndex = 0;\n      MarketItem[] memory items = new MarketItem[](unsoldItemCount);\n      for (uint i = 0; i < itemCount; i++) {\n        if (idMarketItem[i + 1].sold == false) {\n          uint currentId = i + 1;\n          MarketItem storage currentItem = idMarketItem[currentId];\n          items[currentIndex] = currentItem;\n          currentIndex += 1;\n        }\n      }\n      return items;\n    }\n\n    function fetchMyNFTs() public view returns (MarketItem[] memory) {\n      uint totalItemCount = _itemIds.current();\n      uint itemCount = 0;\n      uint currentIndex = 0;\n\n      for (uint i = 0; i < totalItemCount; i++) {\n        if (idMarketItem[i + 1].owner == msg.sender) {\n          itemCount += 1;\n        }\n      }\n\n      MarketItem[] memory items = new MarketItem[](itemCount);\n      for (uint i = 0; i < totalItemCount; i++) {\n        if (idMarketItem[i + 1].owner == msg.sender) {\n          uint currentId = i + 1;\n          MarketItem storage currentItem = idMarketItem[currentId];\n          items[currentIndex] = currentItem;\n          currentIndex += 1;\n        }\n      }\n      return items;\n    }\n\n}\n\n\n",
  "sourcePath": "/home/nisamdheen/sps/NFT_MARKETPLACE/contracts/NFTmarketplace.sol",
  "compiler": {
    "name": "solc",
    "version": "0.8.0+commit.c7dfd78e.Emscripten.clang"
  },
  "schemaVersion": "3.4.4",
  "updatedAt": "2022-02-04T16:34:12.411Z",
  "networkType": "ethereum",
  "devdoc": {
    "kind": "dev",
    "methods": {},
    "version": 1
  },
  "userdoc": {
    "kind": "user",
    "methods": {},
    "version": 1
  }
}