{
  "contractName": "NFTmarketplace",
  "abi": [
    {
      "inputs": [],
      "stateMutability": "nonpayable",
      "type": "constructor"
    },
    {
      "anonymous": false,
      "inputs": [
        {
          "indexed": true,
          "internalType": "uint256",
          "name": "itemId",
          "type": "uint256"
        },
        {
          "indexed": true,
          "internalType": "address",
          "name": "nftContracts",
          "type": "address"
        },
        {
          "indexed": true,
          "internalType": "uint256",
          "name": "tokenId",
          "type": "uint256"
        },
        {
          "indexed": false,
          "internalType": "address",
          "name": "seller",
          "type": "address"
        },
        {
          "indexed": false,
          "internalType": "address",
          "name": "owner",
          "type": "address"
        },
        {
          "indexed": false,
          "internalType": "uint256",
          "name": "price",
          "type": "uint256"
        },
        {
          "indexed": false,
          "internalType": "bool",
          "name": "sold",
          "type": "bool"
        }
      ],
      "name": "MarketItemCreated",
      "type": "event"
    },
    {
      "inputs": [
        {
          "internalType": "uint256",
          "name": "",
          "type": "uint256"
        }
      ],
      "name": "idMarketItem",
      "outputs": [
        {
          "internalType": "uint256",
          "name": "itemId",
          "type": "uint256"
        },
        {
          "internalType": "address",
          "name": "nftContracts",
          "type": "address"
        },
        {
          "internalType": "uint256",
          "name": "tokenId",
          "type": "uint256"
        },
        {
          "internalType": "address payable",
          "name": "seller",
          "type": "address"
        },
        {
          "internalType": "address payable",
          "name": "owner",
          "type": "address"
        },
        {
          "internalType": "uint256",
          "name": "price",
          "type": "uint256"
        },
        {
          "internalType": "bool",
          "name": "sold",
          "type": "bool"
        }
      ],
      "stateMutability": "view",
      "type": "function",
      "constant": true
    },
    {
      "inputs": [],
      "name": "owner",
      "outputs": [
        {
          "internalType": "address payable",
          "name": "",
          "type": "address"
        }
      ],
      "stateMutability": "view",
      "type": "function",
      "constant": true
    },
    {
      "inputs": [],
      "name": "getListingPrice",
      "outputs": [
        {
          "internalType": "uint256",
          "name": "",
          "type": "uint256"
        }
      ],
      "stateMutability": "view",
      "type": "function",
      "constant": true
    },
    {
      "inputs": [],
      "name": "marketItemCont",
      "outputs": [
        {
          "internalType": "uint256",
          "name": "",
          "type": "uint256"
        }
      ],
      "stateMutability": "view",
      "type": "function",
      "constant": true
    },
    {
      "inputs": [
        {
          "internalType": "address",
          "name": "nftContract",
          "type": "address"
        },
        {
          "internalType": "uint256",
          "name": "tokenId",
          "type": "uint256"
        },
        {
          "internalType": "uint256",
          "name": "price",
          "type": "uint256"
        }
      ],
      "name": "createMarketplace",
      "outputs": [],
      "stateMutability": "payable",
      "type": "function",
      "payable": true
    },
    {
      "inputs": [
        {
          "internalType": "address",
          "name": "nftContract",
          "type": "address"
        },
        {
          "internalType": "uint256",
          "name": "Id",
          "type": "uint256"
        },
        {
          "internalType": "uint256",
          "name": "price",
          "type": "uint256"
        }
      ],
      "name": "sellMarketplace",
      "outputs": [],
      "stateMutability": "payable",
      "type": "function",
      "payable": true
    },
    {
      "inputs": [
        {
          "internalType": "address",
          "name": "nftContract",
          "type": "address"
        },
        {
          "internalType": "uint256",
          "name": "ItemId",
          "type": "uint256"
        }
      ],
      "name": "creatMarketSales",
      "outputs": [],
      "stateMutability": "payable",
      "type": "function",
      "payable": true
    },
    {
      "inputs": [],
      "name": "fetchMarketItems",
      "outputs": [
        {
          "components": [
            {
              "internalType": "uint256",
              "name": "itemId",
              "type": "uint256"
            },
            {
              "internalType": "address",
              "name": "nftContracts",
              "type": "address"
            },
            {
              "internalType": "uint256",
              "name": "tokenId",
              "type": "uint256"
            },
            {
              "internalType": "address payable",
              "name": "seller",
              "type": "address"
            },
            {
              "internalType": "address payable",
              "name": "owner",
              "type": "address"
            },
            {
              "internalType": "uint256",
              "name": "price",
              "type": "uint256"
            },
            {
              "internalType": "bool",
              "name": "sold",
              "type": "bool"
            }
          ],
          "internalType": "struct NFTmarketplace.MarketItem[]",
          "name": "",
          "type": "tuple[]"
        }
      ],
      "stateMutability": "view",
      "type": "function",
      "constant": true
    },
    {
      "inputs": [],
      "name": "fetchMyNFTs",
      "outputs": [
        {
          "components": [
            {
              "internalType": "uint256",
              "name": "itemId",
              "type": "uint256"
            },
            {
              "internalType": "address",
              "name": "nftContracts",
              "type": "address"
            },
            {
              "internalType": "uint256",
              "name": "tokenId",
              "type": "uint256"
            },
            {
              "internalType": "address payable",
              "name": "seller",
              "type": "address"
            },
            {
              "internalType": "address payable",
              "name": "owner",
              "type": "address"
            },
            {
              "internalType": "uint256",
              "name": "price",
              "type": "uint256"
            },
            {
              "internalType": "bool",
              "name": "sold",
              "type": "bool"
            }
          ],
          "internalType": "struct NFTmarketplace.MarketItem[]",
          "name": "",
          "type": "tuple[]"
        }
      ],
      "stateMutability": "view",
      "type": "function",
      "constant": true
    }
  ],
  "bytecode": "0x60806040526658d15e1762800060045534801561001b57600080fd5b50600160008190555033600360006101000a81548173ffffffffffffffffffffffffffffffffffffffff021916908373ffffffffffffffffffffffffffffffffffffffff160217905550611bb7806100746000396000f3fe6080604052600436106100865760003560e01c8063202e374011610059578063202e374014610140578063316c994a1461016b57806342968c0b14610196578063864325e1146101b25780638da5cb5b146101ce57610086565b8063087ae8a21461008b5780630f08efe0146100ce57806312e85585146100f95780631dbcf67a14610124575b600080fd5b34801561009757600080fd5b506100b260048036038101906100ad91906113f4565b6101f9565b6040516100c59796959493929190611908565b60405180910390f35b3480156100da57600080fd5b506100e36102a8565b6040516100f0919061180b565b60405180910390f35b34801561010557600080fd5b5061010e610583565b60405161011b91906118ed565b60405180910390f35b61013e600480360381019061013991906113a5565b61058d565b005b34801561014c57600080fd5b506101556108f1565b604051610162919061180b565b60405180910390f35b34801561017757600080fd5b50610180610c8b565b60405161018d91906118ed565b60405180910390f35b6101b060048036038101906101ab9190611369565b610ca1565b005b6101cc60048036038101906101c791906113a5565b611000565b005b3480156101da57600080fd5b506101e3611218565b6040516101f09190611774565b60405180910390f35b60056020528060005260406000206000915090508060000154908060010160009054906101000a900473ffffffffffffffffffffffffffffffffffffffff16908060020154908060030160009054906101000a900473ffffffffffffffffffffffffffffffffffffffff16908060040160009054906101000a900473ffffffffffffffffffffffffffffffffffffffff16908060050154908060060160009054906101000a900460ff16905087565b606060006102b6600161123e565b905060006102c4600261123e565b6102ce600161123e565b6102d89190611a17565b90506000808267ffffffffffffffff81111561031d577f4e487b7100000000000000000000000000000000000000000000000000000000600052604160045260246000fd5b60405190808252806020026020018201604052801561035657816020015b6103436112be565b81526020019060019003908161033b5790505b50905060005b8481101561057857600015156005600060018461037991906119c1565b815260200190815260200160002060060160009054906101000a900460ff16151514156105655760006001826103af91906119c1565b90506000600560008381526020019081526020016000209050806040518060e0016040529081600082015481526020016001820160009054906101000a900473ffffffffffffffffffffffffffffffffffffffff1673ffffffffffffffffffffffffffffffffffffffff1673ffffffffffffffffffffffffffffffffffffffff168152602001600282015481526020016003820160009054906101000a900473ffffffffffffffffffffffffffffffffffffffff1673ffffffffffffffffffffffffffffffffffffffff1673ffffffffffffffffffffffffffffffffffffffff1681526020016004820160009054906101000a900473ffffffffffffffffffffffffffffffffffffffff1673ffffffffffffffffffffffffffffffffffffffff1673ffffffffffffffffffffffffffffffffffffffff168152602001600582015481526020016006820160009054906101000a900460ff161515151581525050848681518110610548577f4e487b7100000000000000000000000000000000000000000000000000000000600052603260045260246000fd5b602002602001018190525060018561056091906119c1565b945050505b808061057090611adb565b91505061035c565b508094505050505090565b6000600454905090565b600260005414156105d3576040517f08c379a00000000000000000000000000000000000000000000000000000000081526004016105ca9061188d565b60405180910390fd5b60026000819055506000811161061e576040517f08c379a0000000000000000000000000000000000000000000000000000000008152600401610615906118ad565b60405180910390fd5b6004543414610662576040517f08c379a00000000000000000000000000000000000000000000000000000000081526004016106599061184d565b60405180910390fd5b61066c600161124c565b6000610678600161123e565b90506040518060e001604052808281526020018573ffffffffffffffffffffffffffffffffffffffff1681526020018481526020013373ffffffffffffffffffffffffffffffffffffffff168152602001600073ffffffffffffffffffffffffffffffffffffffff16815260200183815260200160001515815250600560008381526020019081526020016000206000820151816000015560208201518160010160006101000a81548173ffffffffffffffffffffffffffffffffffffffff021916908373ffffffffffffffffffffffffffffffffffffffff1602179055506040820151816002015560608201518160030160006101000a81548173ffffffffffffffffffffffffffffffffffffffff021916908373ffffffffffffffffffffffffffffffffffffffff16021790555060808201518160040160006101000a81548173ffffffffffffffffffffffffffffffffffffffff021916908373ffffffffffffffffffffffffffffffffffffffff16021790555060a0820151816005015560c08201518160060160006101000a81548160ff0219169083151502179055509050508373ffffffffffffffffffffffffffffffffffffffff166323b872dd3330866040518463ffffffff1660e01b8152600401610859939291906117d4565b600060405180830381600087803b15801561087357600080fd5b505af1158015610887573d6000803e3d6000fd5b50505050828473ffffffffffffffffffffffffffffffffffffffff16827f045dfa01dcba2b36aba1d3dc4a874f4b0c5d2fbeb8d2c4b34a7d88c8d8f929d13360008760006040516108db949392919061178f565b60405180910390a4506001600081905550505050565b606060006108ff600161123e565b905060008060005b838110156109a8573373ffffffffffffffffffffffffffffffffffffffff166005600060018461093791906119c1565b815260200190815260200160002060040160009054906101000a900473ffffffffffffffffffffffffffffffffffffffff1673ffffffffffffffffffffffffffffffffffffffff1614156109955760018361099291906119c1565b92505b80806109a090611adb565b915050610907565b5060008267ffffffffffffffff8111156109eb577f4e487b7100000000000000000000000000000000000000000000000000000000600052604160045260246000fd5b604051908082528060200260200182016040528015610a2457816020015b610a116112be565b815260200190600190039081610a095790505b50905060005b84811015610c80573373ffffffffffffffffffffffffffffffffffffffff1660056000600184610a5a91906119c1565b815260200190815260200160002060040160009054906101000a900473ffffffffffffffffffffffffffffffffffffffff1673ffffffffffffffffffffffffffffffffffffffff161415610c6d576000600182610ab791906119c1565b90506000600560008381526020019081526020016000209050806040518060e0016040529081600082015481526020016001820160009054906101000a900473ffffffffffffffffffffffffffffffffffffffff1673ffffffffffffffffffffffffffffffffffffffff1673ffffffffffffffffffffffffffffffffffffffff168152602001600282015481526020016003820160009054906101000a900473ffffffffffffffffffffffffffffffffffffffff1673ffffffffffffffffffffffffffffffffffffffff1673ffffffffffffffffffffffffffffffffffffffff1681526020016004820160009054906101000a900473ffffffffffffffffffffffffffffffffffffffff1673ffffffffffffffffffffffffffffffffffffffff1673ffffffffffffffffffffffffffffffffffffffff168152602001600582015481526020016006820160009054906101000a900460ff161515151581525050848681518110610c50577f4e487b7100000000000000000000000000000000000000000000000000000000600052603260045260246000fd5b6020026020010181905250600185610c6891906119c1565b945050505b8080610c7890611adb565b915050610a2a565b508094505050505090565b600080610c98600161123e565b90508091505090565b60026000541415610ce7576040517f08c379a0000000000000000000000000000000000000000000000000000000008152600401610cde9061188d565b60405180910390fd5b600260008190555060006005600083815260200190815260200160002060050154905060006005600084815260200190815260200160002060020154905081341015610d68576040517f08c379a0000000000000000000000000000000000000000000000000000000008152600401610d5f9061186d565b60405180910390fd5b6005600084815260200190815260200160002060040160009054906101000a900473ffffffffffffffffffffffffffffffffffffffff1673ffffffffffffffffffffffffffffffffffffffff163373ffffffffffffffffffffffffffffffffffffffff161415610e0d576040517f08c379a0000000000000000000000000000000000000000000000000000000008152600401610e04906118cd565b60405180910390fd5b6005600084815260200190815260200160002060030160009054906101000a900473ffffffffffffffffffffffffffffffffffffffff1673ffffffffffffffffffffffffffffffffffffffff166108fc349081150290604051600060405180830381858888f19350505050158015610e89573d6000803e3d6000fd5b508373ffffffffffffffffffffffffffffffffffffffff166323b872dd3033846040518463ffffffff1660e01b8152600401610ec7939291906117d4565b600060405180830381600087803b158015610ee157600080fd5b505af1158015610ef5573d6000803e3d6000fd5b50505050336005600085815260200190815260200160002060040160006101000a81548173ffffffffffffffffffffffffffffffffffffffff021916908373ffffffffffffffffffffffffffffffffffffffff16021790555060016005600085815260200190815260200160002060060160006101000a81548160ff021916908315150217905550610f87600261124c565b600360009054906101000a900473ffffffffffffffffffffffffffffffffffffffff1673ffffffffffffffffffffffffffffffffffffffff166108fc6004549081150290604051600060405180830381858888f19350505050158015610ff1573d6000803e3d6000fd5b50505060016000819055505050565b60026000541415611046576040517f08c379a000000000000000000000000000000000000000000000000000000000815260040161103d9061188d565b60405180910390fd5b600260008190555060008111611091576040517f08c379a0000000000000000000000000000000000000000000000000000000008152600401611088906118ad565b60405180910390fd5b60045434146110d5576040517f08c379a00000000000000000000000000000000000000000000000000000000081526004016110cc9061184d565b60405180910390fd5b60006005600084815260200190815260200160002060020154905081600560008581526020019081526020016000206005018190555060006005600085815260200190815260200160002060060160006101000a81548160ff0219169083151502179055508373ffffffffffffffffffffffffffffffffffffffff166342842e0e3330846040518463ffffffff1660e01b8152600401611177939291906117d4565b600060405180830381600087803b15801561119157600080fd5b505af11580156111a5573d6000803e3d6000fd5b50505050808473ffffffffffffffffffffffffffffffffffffffff16847f045dfa01dcba2b36aba1d3dc4a874f4b0c5d2fbeb8d2c4b34a7d88c8d8f929d133338760006040516111f8949392919061178f565b60405180910390a461120a6002611262565b506001600081905550505050565b600360009054906101000a900473ffffffffffffffffffffffffffffffffffffffff1681565b600081600001549050919050565b6001816000016000828254019250508190555050565b600081600001549050600081116112ae576040517f08c379a00000000000000000000000000000000000000000000000000000000081526004016112a59061182d565b60405180910390fd5b6001810382600001819055505050565b6040518060e0016040528060008152602001600073ffffffffffffffffffffffffffffffffffffffff16815260200160008152602001600073ffffffffffffffffffffffffffffffffffffffff168152602001600073ffffffffffffffffffffffffffffffffffffffff168152602001600081526020016000151581525090565b60008135905061134e81611b53565b92915050565b60008135905061136381611b6a565b92915050565b6000806040838503121561137c57600080fd5b600061138a8582860161133f565b925050602061139b85828601611354565b9150509250929050565b6000806000606084860312156113ba57600080fd5b60006113c88682870161133f565b93505060206113d986828701611354565b92505060406113ea86828701611354565b9150509250925092565b60006020828403121561140657600080fd5b600061141484828501611354565b91505092915050565b600061142983836116c8565b60e08301905092915050565b61143e81611aa5565b82525050565b61144d81611a5d565b82525050565b61145c81611a5d565b82525050565b61146b81611a4b565b82525050565b61147a81611a4b565b82525050565b600061148b82611987565b611495818561199f565b93506114a083611977565b8060005b838110156114d15781516114b8888261141d565b97506114c383611992565b9250506001810190506114a4565b5085935050505092915050565b6114e781611a6f565b82525050565b6114f681611a6f565b82525050565b6000611509601b836119b0565b91507f436f756e7465723a2064656372656d656e74206f766572666c6f7700000000006000830152602082019050919050565b60006115496021836119b0565b91507f76616c7565206d75737420657175616c20746f206c697374696e67207072696360008301527f65000000000000000000000000000000000000000000000000000000000000006020830152604082019050919050565b60006115af6038836119b0565b91507f746f20636f6d706c69742074686973207472616e73616374696f6e20796f752060008301527f73686f756c6420686176652061736b696e6720707269636500000000000000006020830152604082019050919050565b6000611615601f836119b0565b91507f5265656e7472616e637947756172643a207265656e7472616e742063616c6c006000830152602082019050919050565b6000611655601d836119b0565b91507f7072696365206d757374206265206772617465727468616e207a65726f0000006000830152602082019050919050565b6000611695601d836119b0565b91507f796f752061726520746865206f776e6572206f662074686973206e66740000006000830152602082019050919050565b60e0820160008201516116de6000850182611756565b5060208201516116f16020850182611462565b5060408201516117046040850182611756565b5060608201516117176060850182611444565b50608082015161172a6080850182611444565b5060a082015161173d60a0850182611756565b5060c082015161175060c08501826114de565b50505050565b61175f81611a9b565b82525050565b61176e81611a9b565b82525050565b60006020820190506117896000830184611453565b92915050565b60006080820190506117a46000830187611435565b6117b16020830186611435565b6117be6040830185611765565b6117cb60608301846114ed565b95945050505050565b60006060820190506117e96000830186611471565b6117f66020830185611471565b6118036040830184611765565b949350505050565b600060208201905081810360008301526118258184611480565b905092915050565b60006020820190508181036000830152611846816114fc565b9050919050565b600060208201905081810360008301526118668161153c565b9050919050565b60006020820190508181036000830152611886816115a2565b9050919050565b600060208201905081810360008301526118a681611608565b9050919050565b600060208201905081810360008301526118c681611648565b9050919050565b600060208201905081810360008301526118e681611688565b9050919050565b60006020820190506119026000830184611765565b92915050565b600060e08201905061191d600083018a611765565b61192a6020830189611471565b6119376040830188611765565b6119446060830187611453565b6119516080830186611453565b61195e60a0830185611765565b61196b60c08301846114ed565b98975050505050505050565b6000819050602082019050919050565b600081519050919050565b6000602082019050919050565b600082825260208201905092915050565b600082825260208201905092915050565b60006119cc82611a9b565b91506119d783611a9b565b9250827fffffffffffffffffffffffffffffffffffffffffffffffffffffffffffffffff03821115611a0c57611a0b611b24565b5b828201905092915050565b6000611a2282611a9b565b9150611a2d83611a9b565b925082821015611a4057611a3f611b24565b5b828203905092915050565b6000611a5682611a7b565b9050919050565b6000611a6882611a7b565b9050919050565b60008115159050919050565b600073ffffffffffffffffffffffffffffffffffffffff82169050919050565b6000819050919050565b6000611ab082611ab7565b9050919050565b6000611ac282611ac9565b9050919050565b6000611ad482611a7b565b9050919050565b6000611ae682611a9b565b91507fffffffffffffffffffffffffffffffffffffffffffffffffffffffffffffffff821415611b1957611b18611b24565b5b600182019050919050565b7f4e487b7100000000000000000000000000000000000000000000000000000000600052601160045260246000fd5b611b5c81611a4b565b8114611b6757600080fd5b50565b611b7381611a9b565b8114611b7e57600080fd5b5056fea2646970667358221220db61723ec49718a2beb2d64d327b3a3fc51c45a59bf7aa0135976049269af71564736f6c63430008000033",
  "immutableReferences": {},
  "source": "// SPDX-License-Identifier: MIT\npragma solidity >=0.4.22 <0.9.0;\n\n// import \"https://github.com/OpenZeppelin/openzeppelin-contracts/blob/master/contracts/token/ERC721/ERC721.sol\";\n// import \"https://github.com/OpenZeppelin/openzeppelin-contracts/blob/master/contracts/utils/Counters.sol\";\n// import \"https://github.com/OpenZeppelin/openzeppelin-contracts/blob/master/contracts/security/ReentrancyGuard.sol\";\n\nimport \"@openzeppelin/contracts/token/ERC721/ERC721.sol\";\nimport \"@openzeppelin/contracts/utils/Counters.sol\";\nimport \"@openzeppelin/contracts/security/ReentrancyGuard.sol\";\n\n\ncontract NFTmarketplace is ReentrancyGuard {\n    using Counters for Counters.Counter;\n    Counters.Counter private _itemIds;\n    Counters.Counter private _itemSold;\n\n    address payable public owner;\n    uint listingPrice = 0.025 ether;\n\n    constructor(){\n    owner = payable(msg.sender) ;\n    }\n\n    struct MarketItem{\n        uint itemId;\n        address nftContracts;\n        uint tokenId;\n        address payable seller;\n        address payable owner;\n        uint price;\n        bool sold;\n    }\n     \n    mapping (uint => MarketItem) public idMarketItem;\n\n    event MarketItemCreated(\n        uint indexed itemId,\n        address indexed nftContracts,\n        uint indexed tokenId,\n        address  seller,\n        address owner,\n        uint price,\n        bool sold\n    );\n\n    function getListingPrice() public view returns(uint){\n        return listingPrice;\n    }\n    function marketItemCont() public view returns(uint){\n       uint newItemId = _itemIds.current();\n        return newItemId;\n    }\n\n    function createMarketplace(address nftContract, uint tokenId, uint price) public payable nonReentrant {\n        require(price > 0 , \"price must be graterthan zero\");\n        require(msg.value == listingPrice, \"value must equal to listing price\");\n\n        _itemIds.increment();\n        uint newItemId = _itemIds.current();\n\n        idMarketItem[newItemId] = MarketItem(\n            newItemId,\n            nftContract,\n            tokenId,\n            payable(msg.sender),\n            payable(address(0)),\n            price,\n            false\n        );\n        IERC721(nftContract).transferFrom(msg.sender, address(this), tokenId);\n\n        emit MarketItemCreated(\n            newItemId,\n            nftContract,\n            tokenId,\n            payable(msg.sender),\n            payable(address(0)),\n            price,\n            false\n        );\n    }\n\n      function sellMarketplace(address nftContract, uint Id, uint price) public payable nonReentrant {\n        require(price > 0 , \"price must be graterthan zero\");\n        require(msg.value == listingPrice, \"value must equal to listing price\");\n        uint tokenId = idMarketItem[Id].tokenId;\n        idMarketItem[Id].price = price;\n        idMarketItem[Id].sold = false;\n        // idMarketItem[Id].seller = payable(msg.sender);\n\n        IERC721(nftContract).safeTransferFrom(msg.sender, address(this), tokenId);\n        emit MarketItemCreated(\n            Id,\n            nftContract,\n            tokenId,\n            payable(msg.sender),\n            payable(msg.sender),\n            price,\n            false\n        );\n        _itemSold.decrement();\n    }\n\n    function creatMarketSales(address nftContract, uint ItemId) public payable nonReentrant{\n        uint price = idMarketItem[ItemId].price;\n        uint tokenId = idMarketItem[ItemId].tokenId;\n        require(msg.value >= price, \"to complit this transaction you should have asking price\");\n        require(msg.sender != idMarketItem[ItemId].owner, \"you are the owner of this nft\");\n\n        \n        idMarketItem[ItemId].seller.transfer(msg.value);\n        IERC721(nftContract).transferFrom(address(this), msg.sender, tokenId) ;\n        idMarketItem[ItemId].owner = payable(msg.sender);\n        idMarketItem[ItemId].sold = true;\n          _itemSold.increment();\n        payable(owner).transfer(listingPrice);\n        \n\n    }\n\n    function fetchMarketItems() public view returns (MarketItem[] memory) {\n      uint itemCount = _itemIds.current();\n      uint unsoldItemCount = _itemIds.current() - _itemSold.current();\n      uint currentIndex = 0;\n\n      MarketItem[] memory items = new MarketItem[](unsoldItemCount);\n      for (uint i = 0; i < itemCount; i++) {\n        if (idMarketItem[i + 1].sold == false) {\n          uint currentId = i + 1;\n          MarketItem storage currentItem = idMarketItem[currentId];\n          items[currentIndex] = currentItem;\n          currentIndex += 1;\n        }\n      }\n      return items;\n    }\n\n\n    function fetchMyNFTs() public view returns (MarketItem[] memory) {\n      uint totalItemCount = _itemIds.current();\n      uint itemCount = 0;\n      uint currentIndex = 0;\n\n      for (uint i = 0; i < totalItemCount; i++) {\n        if (idMarketItem[i + 1].owner == msg.sender) {\n          itemCount += 1;\n        }\n      }\n\n      MarketItem[] memory items = new MarketItem[](itemCount);\n      for (uint i = 0; i < totalItemCount; i++) {\n        if (idMarketItem[i + 1].owner == msg.sender) {\n          uint currentId = i + 1;\n          MarketItem storage currentItem = idMarketItem[currentId];\n          items[currentIndex] = currentItem;\n          currentIndex += 1;\n        }\n      }\n      return items;\n    }\n\n  \n\n}\n\n\n",
  "sourcePath": "/home/nisamdheen/sps/NFT_MARKETPLACE/contracts/NFTmarketplace.sol",
  "compiler": {
    "name": "solc",
    "version": "0.8.0+commit.c7dfd78e.Emscripten.clang"
  },
  "schemaVersion": "3.4.4",
  "updatedAt": "2022-01-29T18:29:31.269Z",
  "networkType": "ethereum",
  "devdoc": {
    "kind": "dev",
    "methods": {},
    "version": 1
  },
  "userdoc": {
    "kind": "user",
    "methods": {},
    "version": 1
  }
}