{
  "contractName": "NFTmarketplace",
  "abi": [
    {
      "inputs": [],
      "stateMutability": "nonpayable",
      "type": "constructor"
    },
    {
      "anonymous": false,
      "inputs": [
        {
          "indexed": true,
          "internalType": "uint256",
          "name": "itemId",
          "type": "uint256"
        },
        {
          "indexed": true,
          "internalType": "address",
          "name": "nftContracts",
          "type": "address"
        },
        {
          "indexed": true,
          "internalType": "uint256",
          "name": "tokenId",
          "type": "uint256"
        },
        {
          "indexed": false,
          "internalType": "address",
          "name": "seller",
          "type": "address"
        },
        {
          "indexed": false,
          "internalType": "address",
          "name": "owner",
          "type": "address"
        },
        {
          "indexed": false,
          "internalType": "uint256",
          "name": "price",
          "type": "uint256"
        },
        {
          "indexed": false,
          "internalType": "bool",
          "name": "sold",
          "type": "bool"
        },
        {
          "indexed": false,
          "internalType": "bool",
          "name": "auction",
          "type": "bool"
        }
      ],
      "name": "MarketItemCreated",
      "type": "event"
    },
    {
      "inputs": [
        {
          "internalType": "uint256",
          "name": "",
          "type": "uint256"
        }
      ],
      "name": "auctions",
      "outputs": [
        {
          "internalType": "uint256",
          "name": "staringPrice",
          "type": "uint256"
        },
        {
          "internalType": "uint256",
          "name": "duration",
          "type": "uint256"
        },
        {
          "internalType": "uint256",
          "name": "auctiontime",
          "type": "uint256"
        },
        {
          "internalType": "bool",
          "name": "finished",
          "type": "bool"
        },
        {
          "internalType": "uint256",
          "name": "amount",
          "type": "uint256"
        },
        {
          "internalType": "uint256",
          "name": "highestPrice",
          "type": "uint256"
        },
        {
          "internalType": "address",
          "name": "highestBidder",
          "type": "address"
        },
        {
          "internalType": "address",
          "name": "seller",
          "type": "address"
        },
        {
          "internalType": "uint256",
          "name": "bidderCount",
          "type": "uint256"
        },
        {
          "internalType": "uint256",
          "name": "bidderId",
          "type": "uint256"
        }
      ],
      "stateMutability": "view",
      "type": "function",
      "constant": true
    },
    {
      "inputs": [
        {
          "internalType": "uint256",
          "name": "",
          "type": "uint256"
        },
        {
          "internalType": "uint256",
          "name": "",
          "type": "uint256"
        }
      ],
      "name": "bidders",
      "outputs": [
        {
          "internalType": "address payable",
          "name": "addr",
          "type": "address"
        },
        {
          "internalType": "uint256",
          "name": "amount",
          "type": "uint256"
        },
        {
          "internalType": "uint256",
          "name": "bitAt",
          "type": "uint256"
        }
      ],
      "stateMutability": "view",
      "type": "function",
      "constant": true
    },
    {
      "inputs": [],
      "name": "duration",
      "outputs": [
        {
          "internalType": "uint256",
          "name": "",
          "type": "uint256"
        }
      ],
      "stateMutability": "view",
      "type": "function",
      "constant": true
    },
    {
      "inputs": [
        {
          "internalType": "uint256",
          "name": "",
          "type": "uint256"
        }
      ],
      "name": "idMarketItem",
      "outputs": [
        {
          "internalType": "uint256",
          "name": "itemId",
          "type": "uint256"
        },
        {
          "internalType": "address",
          "name": "nftContracts",
          "type": "address"
        },
        {
          "internalType": "uint256",
          "name": "tokenId",
          "type": "uint256"
        },
        {
          "internalType": "address payable",
          "name": "minter",
          "type": "address"
        },
        {
          "internalType": "address payable",
          "name": "seller",
          "type": "address"
        },
        {
          "internalType": "address payable",
          "name": "owner",
          "type": "address"
        },
        {
          "internalType": "uint256",
          "name": "price",
          "type": "uint256"
        },
        {
          "internalType": "bool",
          "name": "sold",
          "type": "bool"
        },
        {
          "internalType": "bool",
          "name": "auction",
          "type": "bool"
        },
        {
          "internalType": "uint256",
          "name": "auctionId",
          "type": "uint256"
        }
      ],
      "stateMutability": "view",
      "type": "function",
      "constant": true
    },
    {
      "inputs": [],
      "name": "owner",
      "outputs": [
        {
          "internalType": "address payable",
          "name": "",
          "type": "address"
        }
      ],
      "stateMutability": "view",
      "type": "function",
      "constant": true
    },
    {
      "inputs": [],
      "name": "getListingPrice",
      "outputs": [
        {
          "internalType": "uint256",
          "name": "",
          "type": "uint256"
        }
      ],
      "stateMutability": "view",
      "type": "function",
      "constant": true
    },
    {
      "inputs": [],
      "name": "marketItemCont",
      "outputs": [
        {
          "internalType": "uint256",
          "name": "",
          "type": "uint256"
        }
      ],
      "stateMutability": "view",
      "type": "function",
      "constant": true
    },
    {
      "inputs": [
        {
          "internalType": "address",
          "name": "nftContract",
          "type": "address"
        },
        {
          "internalType": "uint256",
          "name": "tokenId",
          "type": "uint256"
        },
        {
          "internalType": "uint256",
          "name": "price",
          "type": "uint256"
        },
        {
          "internalType": "bool",
          "name": "_auction",
          "type": "bool"
        }
      ],
      "name": "createMarketplace",
      "outputs": [],
      "stateMutability": "payable",
      "type": "function",
      "payable": true
    },
    {
      "inputs": [
        {
          "internalType": "address",
          "name": "nftContract",
          "type": "address"
        },
        {
          "internalType": "uint256",
          "name": "Id",
          "type": "uint256"
        },
        {
          "internalType": "uint256",
          "name": "price",
          "type": "uint256"
        }
      ],
      "name": "sellMarketplace",
      "outputs": [],
      "stateMutability": "payable",
      "type": "function",
      "payable": true
    },
    {
      "inputs": [
        {
          "internalType": "address",
          "name": "nftContract",
          "type": "address"
        },
        {
          "internalType": "uint256",
          "name": "ItemId",
          "type": "uint256"
        }
      ],
      "name": "creatMarketSales",
      "outputs": [],
      "stateMutability": "payable",
      "type": "function",
      "payable": true
    },
    {
      "inputs": [
        {
          "internalType": "address",
          "name": "nftContract",
          "type": "address"
        },
        {
          "internalType": "uint256",
          "name": "itemId",
          "type": "uint256"
        },
        {
          "internalType": "uint256",
          "name": "_staringPrice",
          "type": "uint256"
        }
      ],
      "name": "createAuction",
      "outputs": [],
      "stateMutability": "payable",
      "type": "function",
      "payable": true
    },
    {
      "inputs": [
        {
          "internalType": "uint256",
          "name": "_tokenId",
          "type": "uint256"
        }
      ],
      "name": "bid",
      "outputs": [],
      "stateMutability": "payable",
      "type": "function",
      "payable": true
    },
    {
      "inputs": [
        {
          "internalType": "address",
          "name": "nftContract",
          "type": "address"
        },
        {
          "internalType": "uint256",
          "name": "_tokenId",
          "type": "uint256"
        }
      ],
      "name": "finish",
      "outputs": [],
      "stateMutability": "nonpayable",
      "type": "function"
    },
    {
      "inputs": [],
      "name": "fetchMarketItems",
      "outputs": [
        {
          "components": [
            {
              "internalType": "uint256",
              "name": "itemId",
              "type": "uint256"
            },
            {
              "internalType": "address",
              "name": "nftContracts",
              "type": "address"
            },
            {
              "internalType": "uint256",
              "name": "tokenId",
              "type": "uint256"
            },
            {
              "internalType": "address payable",
              "name": "minter",
              "type": "address"
            },
            {
              "internalType": "address payable",
              "name": "seller",
              "type": "address"
            },
            {
              "internalType": "address payable",
              "name": "owner",
              "type": "address"
            },
            {
              "internalType": "uint256",
              "name": "price",
              "type": "uint256"
            },
            {
              "internalType": "bool",
              "name": "sold",
              "type": "bool"
            },
            {
              "internalType": "bool",
              "name": "auction",
              "type": "bool"
            },
            {
              "internalType": "uint256",
              "name": "auctionId",
              "type": "uint256"
            }
          ],
          "internalType": "struct NFTmarketplace.MarketItem[]",
          "name": "",
          "type": "tuple[]"
        }
      ],
      "stateMutability": "view",
      "type": "function",
      "constant": true
    },
    {
      "inputs": [],
      "name": "fetchMyNFTs",
      "outputs": [
        {
          "components": [
            {
              "internalType": "uint256",
              "name": "itemId",
              "type": "uint256"
            },
            {
              "internalType": "address",
              "name": "nftContracts",
              "type": "address"
            },
            {
              "internalType": "uint256",
              "name": "tokenId",
              "type": "uint256"
            },
            {
              "internalType": "address payable",
              "name": "minter",
              "type": "address"
            },
            {
              "internalType": "address payable",
              "name": "seller",
              "type": "address"
            },
            {
              "internalType": "address payable",
              "name": "owner",
              "type": "address"
            },
            {
              "internalType": "uint256",
              "name": "price",
              "type": "uint256"
            },
            {
              "internalType": "bool",
              "name": "sold",
              "type": "bool"
            },
            {
              "internalType": "bool",
              "name": "auction",
              "type": "bool"
            },
            {
              "internalType": "uint256",
              "name": "auctionId",
              "type": "uint256"
            }
          ],
          "internalType": "struct NFTmarketplace.MarketItem[]",
          "name": "",
          "type": "tuple[]"
        }
      ],
      "stateMutability": "view",
      "type": "function",
      "constant": true
    }
  ],
  "bytecode": "0x60806040526658d15e176280006005556201518060065534801561002257600080fd5b50600160008190555033600460006101000a81548173ffffffffffffffffffffffffffffffffffffffff021916908373ffffffffffffffffffffffffffffffffffffffff1602179055506133ff8061007b6000396000f3fe6080604052600436106100e85760003560e01c8063316c994a1161008a578063864325e111610059578063864325e1146102cd5780638da5cb5b146102e9578063abb9405114610314578063d1c1120514610330576100e8565b8063316c994a1461022457806342968c0b1461024f578063454a2ab31461026b578063571a26a014610287576100e8565b806312e85585116100c657806312e855851461018957806316219ef8146101b4578063202e3740146101d057806329008824146101fb576100e8565b8063087ae8a2146100ed5780630f08efe0146101335780630fb5a6b41461015e575b600080fd5b3480156100f957600080fd5b50610114600480360381019061010f9190612836565b61036f565b60405161012a9a99989796959493929190613070565b60405180910390f35b34801561013f57600080fd5b5061014861045d565b6040516101559190612eb3565b60405180910390f35b34801561016a57600080fd5b506101736107b4565b6040516101809190613055565b60405180910390f35b34801561019557600080fd5b5061019e6107ba565b6040516101ab9190613055565b60405180910390f35b6101ce60048036038101906101c991906127d3565b6107c4565b005b3480156101dc57600080fd5b506101e5610d3c565b6040516101f29190612eb3565b60405180910390f35b34801561020757600080fd5b50610222600480360381019061021d9190612748565b611152565b005b34801561023057600080fd5b50610239611690565b6040516102469190613055565b60405180910390f35b61026960048036038101906102649190612748565b6116a6565b005b61028560048036038101906102809190612836565b6119c9565b005b34801561029357600080fd5b506102ae60048036038101906102a99190612836565b611ddd565b6040516102c49a9998979695949392919061310c565b60405180910390f35b6102e760048036038101906102e29190612784565b611e7e565b005b3480156102f557600080fd5b506102fe612143565b60405161030b9190612dd7565b60405180910390f35b61032e60048036038101906103299190612784565b612169565b005b34801561033c57600080fd5b506103576004803603810190610352919061285f565b612501565b60405161036693929190612e45565b60405180910390f35b60096020528060005260406000206000915090508060000154908060010160009054906101000a900473ffffffffffffffffffffffffffffffffffffffff16908060020154908060030160009054906101000a900473ffffffffffffffffffffffffffffffffffffffff16908060040160009054906101000a900473ffffffffffffffffffffffffffffffffffffffff16908060050160009054906101000a900473ffffffffffffffffffffffffffffffffffffffff16908060060154908060070160009054906101000a900460ff16908060070160019054906101000a900460ff1690806008015490508a565b6060600061046b6001612568565b905060006104796003612568565b6104836001612568565b61048d9190613248565b90506000808267ffffffffffffffff8111156104d2577f4e487b7100000000000000000000000000000000000000000000000000000000600052604160045260246000fd5b60405190808252806020026020018201604052801561050b57816020015b6104f86125e8565b8152602001906001900390816104f05790505b50905060005b848110156107a957600015156009600060018461052e91906131f2565b815260200190815260200160002060070160009054906101000a900460ff161515141561079657600060018261056491906131f2565b905060006009600083815260200190815260200160002090508060405180610140016040529081600082015481526020016001820160009054906101000a900473ffffffffffffffffffffffffffffffffffffffff1673ffffffffffffffffffffffffffffffffffffffff1673ffffffffffffffffffffffffffffffffffffffff168152602001600282015481526020016003820160009054906101000a900473ffffffffffffffffffffffffffffffffffffffff1673ffffffffffffffffffffffffffffffffffffffff1673ffffffffffffffffffffffffffffffffffffffff1681526020016004820160009054906101000a900473ffffffffffffffffffffffffffffffffffffffff1673ffffffffffffffffffffffffffffffffffffffff1673ffffffffffffffffffffffffffffffffffffffff1681526020016005820160009054906101000a900473ffffffffffffffffffffffffffffffffffffffff1673ffffffffffffffffffffffffffffffffffffffff1673ffffffffffffffffffffffffffffffffffffffff168152602001600682015481526020016007820160009054906101000a900460ff161515151581526020016007820160019054906101000a900460ff16151515158152602001600882015481525050848681518110610779577f4e487b7100000000000000000000000000000000000000000000000000000000600052603260045260246000fd5b602002602001018190525060018561079191906131f2565b945050505b80806107a19061330c565b915050610511565b508094505050505090565b60065481565b6000600554905090565b6002600054141561080a576040517f08c379a000000000000000000000000000000000000000000000000000000000815260040161080190613015565b60405180910390fd5b600260008190555060008211610855576040517f08c379a000000000000000000000000000000000000000000000000000000000815260040161084c90613035565b60405180910390fd5b6005543414610899576040517f08c379a000000000000000000000000000000000000000000000000000000000815260040161089090612f55565b60405180910390fd5b6108a36001612576565b60006108af6001612568565b9050806009600083815260200190815260200160002060000181905550846009600083815260200190815260200160002060010160006101000a81548173ffffffffffffffffffffffffffffffffffffffff021916908373ffffffffffffffffffffffffffffffffffffffff160217905550836009600083815260200190815260200160002060020181905550336009600083815260200190815260200160002060030160006101000a81548173ffffffffffffffffffffffffffffffffffffffff021916908373ffffffffffffffffffffffffffffffffffffffff160217905550336009600083815260200190815260200160002060040160006101000a81548173ffffffffffffffffffffffffffffffffffffffff021916908373ffffffffffffffffffffffffffffffffffffffff160217905550306009600083815260200190815260200160002060050160006101000a81548173ffffffffffffffffffffffffffffffffffffffff021916908373ffffffffffffffffffffffffffffffffffffffff16021790555060006009600083815260200190815260200160002060070160006101000a81548160ff021916908315150217905550600115158215151415610c19576000600960008381526020019081526020016000206006018190555060016009600083815260200190815260200160002060070160016101000a81548160ff02191690831515021790555061025842610ad091906131f2565b600760008681526020019081526020016000206001018190555042600760008681526020019081526020016000206002018190555082600760008681526020019081526020016000206000018190555060006007600086815260200190815260200160002060030160006101000a81548160ff021916908315150217905550336007600086815260200190815260200160002060070160006101000a81548173ffffffffffffffffffffffffffffffffffffffff021916908373ffffffffffffffffffffffffffffffffffffffff160217905550336007600086815260200190815260200160002060060160006101000a81548173ffffffffffffffffffffffffffffffffffffffff021916908373ffffffffffffffffffffffffffffffffffffffff160217905550836009600083815260200190815260200160002060080181905550610c64565b82600960008381526020019081526020016000206006018190555060006009600083815260200190815260200160002060070160016101000a81548160ff0219169083151502179055505b8473ffffffffffffffffffffffffffffffffffffffff166323b872dd3330876040518463ffffffff1660e01b8152600401610ca193929190612e7c565b600060405180830381600087803b158015610cbb57600080fd5b505af1158015610ccf573d6000803e3d6000fd5b50505050838573ffffffffffffffffffffffffffffffffffffffff16827fc99151f4453170a67bc7441775fde1a3bc3220c06645df1121e703aab5e7da5d60003388600080604051610d25959493929190612df2565b60405180910390a450600160008190555050505050565b60606000610d4a6001612568565b905060008060005b83811015610df3573373ffffffffffffffffffffffffffffffffffffffff1660096000600184610d8291906131f2565b815260200190815260200160002060050160009054906101000a900473ffffffffffffffffffffffffffffffffffffffff1673ffffffffffffffffffffffffffffffffffffffff161415610de057600183610ddd91906131f2565b92505b8080610deb9061330c565b915050610d52565b5060008267ffffffffffffffff811115610e36577f4e487b7100000000000000000000000000000000000000000000000000000000600052604160045260246000fd5b604051908082528060200260200182016040528015610e6f57816020015b610e5c6125e8565b815260200190600190039081610e545790505b50905060005b84811015611147573373ffffffffffffffffffffffffffffffffffffffff1660096000600184610ea591906131f2565b815260200190815260200160002060050160009054906101000a900473ffffffffffffffffffffffffffffffffffffffff1673ffffffffffffffffffffffffffffffffffffffff161415611134576000600182610f0291906131f2565b905060006009600083815260200190815260200160002090508060405180610140016040529081600082015481526020016001820160009054906101000a900473ffffffffffffffffffffffffffffffffffffffff1673ffffffffffffffffffffffffffffffffffffffff1673ffffffffffffffffffffffffffffffffffffffff168152602001600282015481526020016003820160009054906101000a900473ffffffffffffffffffffffffffffffffffffffff1673ffffffffffffffffffffffffffffffffffffffff1673ffffffffffffffffffffffffffffffffffffffff1681526020016004820160009054906101000a900473ffffffffffffffffffffffffffffffffffffffff1673ffffffffffffffffffffffffffffffffffffffff1673ffffffffffffffffffffffffffffffffffffffff1681526020016005820160009054906101000a900473ffffffffffffffffffffffffffffffffffffffff1673ffffffffffffffffffffffffffffffffffffffff1673ffffffffffffffffffffffffffffffffffffffff168152602001600682015481526020016007820160009054906101000a900460ff161515151581526020016007820160019054906101000a900460ff16151515158152602001600882015481525050848681518110611117577f4e487b7100000000000000000000000000000000000000000000000000000000600052603260045260246000fd5b602002602001018190525060018561112f91906131f2565b945050505b808061113f9061330c565b915050610e75565b508094505050505090565b3373ffffffffffffffffffffffffffffffffffffffff166009600083815260200190815260200160002060040160009054906101000a900473ffffffffffffffffffffffffffffffffffffffff1673ffffffffffffffffffffffffffffffffffffffff16146111f6576040517f08c379a00000000000000000000000000000000000000000000000000000000081526004016111ed90612fd5565b60405180910390fd5b600760008281526020019081526020016000206001015442101561124f576040517f08c379a000000000000000000000000000000000000000000000000000000000815260040161124690612fb5565b60405180910390fd5b600115156009600083815260200190815260200160002060070160019054906101000a900460ff161515146112b9576040517f08c379a00000000000000000000000000000000000000000000000000000000081526004016112b090612f15565b60405180910390fd5b60005b600160086000848152602001908152602001600020805490506112df9190613248565b811015611504576007600083815260200190815260200160002060060160009054906101000a900473ffffffffffffffffffffffffffffffffffffffff1673ffffffffffffffffffffffffffffffffffffffff1660086000848152602001908152602001600020828154811061137e577f4e487b7100000000000000000000000000000000000000000000000000000000600052603260045260246000fd5b906000526020600020906003020160000160009054906101000a900473ffffffffffffffffffffffffffffffffffffffff1673ffffffffffffffffffffffffffffffffffffffff16146114f1576000600860008481526020019081526020016000208281548110611418577f4e487b7100000000000000000000000000000000000000000000000000000000600052603260045260246000fd5b9060005260206000209060030201600101549050600860008481526020019081526020016000208281548110611477577f4e487b7100000000000000000000000000000000000000000000000000000000600052603260045260246000fd5b906000526020600020906003020160000160009054906101000a900473ffffffffffffffffffffffffffffffffffffffff1673ffffffffffffffffffffffffffffffffffffffff166108fc829081150290604051600060405180830381858888f193505050501580156114ee573d6000803e3d6000fd5b50505b80806114fc9061330c565b9150506112bc565b506008600082815260200190815260200160002060006115249190612697565b60006007600083815260200190815260200160002060060160009054906101000a900473ffffffffffffffffffffffffffffffffffffffff169050806009600084815260200190815260200160002060050160006101000a81548173ffffffffffffffffffffffffffffffffffffffff021916908373ffffffffffffffffffffffffffffffffffffffff16021790555060016009600084815260200190815260200160002060070160006101000a81548160ff02191690831515021790555060016007600084815260200190815260200160002060030160006101000a81548160ff02191690831515021790555061161c6003612576565b8273ffffffffffffffffffffffffffffffffffffffff166323b872dd3083856040518463ffffffff1660e01b815260040161165993929190612e7c565b600060405180830381600087803b15801561167357600080fd5b505af1158015611687573d6000803e3d6000fd5b50505050505050565b60008061169d6001612568565b90508091505090565b600260005414156116ec576040517f08c379a00000000000000000000000000000000000000000000000000000000081526004016116e390613015565b60405180910390fd5b600260008190555060006009600083815260200190815260200160002060060154905060006009600084815260200190815260200160002060020154905081341461176c576040517f08c379a000000000000000000000000000000000000000000000000000000000815260040161176390612f95565b60405180910390fd5b600015156009600085815260200190815260200160002060070160019054906101000a900460ff161515146117d6576040517f08c379a00000000000000000000000000000000000000000000000000000000081526004016117cd90612f15565b60405180910390fd5b6009600084815260200190815260200160002060040160009054906101000a900473ffffffffffffffffffffffffffffffffffffffff1673ffffffffffffffffffffffffffffffffffffffff166108fc349081150290604051600060405180830381858888f19350505050158015611852573d6000803e3d6000fd5b508373ffffffffffffffffffffffffffffffffffffffff166323b872dd3033846040518463ffffffff1660e01b815260040161189093929190612e7c565b600060405180830381600087803b1580156118aa57600080fd5b505af11580156118be573d6000803e3d6000fd5b50505050336009600085815260200190815260200160002060050160006101000a81548173ffffffffffffffffffffffffffffffffffffffff021916908373ffffffffffffffffffffffffffffffffffffffff16021790555060016009600085815260200190815260200160002060070160006101000a81548160ff0219169083151502179055506119506003612576565b600460009054906101000a900473ffffffffffffffffffffffffffffffffffffffff1673ffffffffffffffffffffffffffffffffffffffff166108fc6005549081150290604051600060405180830381858888f193505050501580156119ba573d6000803e3d6000fd5b50505060016000819055505050565b6007600082815260200190815260200160002060010154421115611a22576040517f08c379a0000000000000000000000000000000000000000000000000000000008152600401611a1990612ff5565b60405180910390fd5b6000600190505b60076000838152602001908152602001600020600801548111611b505760086000838152602001908152602001600020600182611a669190613248565b81548110611a9d577f4e487b7100000000000000000000000000000000000000000000000000000000600052603260045260246000fd5b906000526020600020906003020160000160009054906101000a900473ffffffffffffffffffffffffffffffffffffffff1673ffffffffffffffffffffffffffffffffffffffff163373ffffffffffffffffffffffffffffffffffffffff161415611b3d576040517f08c379a0000000000000000000000000000000000000000000000000000000008152600401611b3490612f75565b60405180910390fd5b8080611b489061330c565b915050611a29565b506007600082815260200190815260200160002060000154341015611baa576040517f08c379a0000000000000000000000000000000000000000000000000000000008152600401611ba190612f35565b60405180910390fd5b6007600082815260200190815260200160002060030160009054906101000a900460ff1615611c0e576040517f08c379a0000000000000000000000000000000000000000000000000000000008152600401611c0590612ef5565b60405180910390fd5b6008600082815260200190815260200160002060405180606001604052803373ffffffffffffffffffffffffffffffffffffffff16815260200134815260200142815250908060018154018082558091505060019003906000526020600020906003020160009091909190915060008201518160000160006101000a81548173ffffffffffffffffffffffffffffffffffffffff021916908373ffffffffffffffffffffffffffffffffffffffff16021790555060208201518160010155604082015181600201555050600760008281526020019081526020016000206008016000815480929190611cff9061330c565b919050555080600760008381526020019081526020016000206009018190555034600760008381526020019081526020016000206004016000828254611d4591906131f2565b9250508190555060076000828152602001908152602001600020600501543410611dda57346007600083815260200190815260200160002060050181905550336007600083815260200190815260200160002060060160006101000a81548173ffffffffffffffffffffffffffffffffffffffff021916908373ffffffffffffffffffffffffffffffffffffffff1602179055505b50565b60076020528060005260406000206000915090508060000154908060010154908060020154908060030160009054906101000a900460ff16908060040154908060050154908060060160009054906101000a900473ffffffffffffffffffffffffffffffffffffffff16908060070160009054906101000a900473ffffffffffffffffffffffffffffffffffffffff1690806008015490806009015490508a565b60026000541415611ec4576040517f08c379a0000000000000000000000000000000000000000000000000000000008152600401611ebb90613015565b60405180910390fd5b600260008190555060008111611f0f576040517f08c379a0000000000000000000000000000000000000000000000000000000008152600401611f0690613035565b60405180910390fd5b600554341015611f54576040517f08c379a0000000000000000000000000000000000000000000000000000000008152600401611f4b90612f55565b60405180910390fd5b60006009600084815260200190815260200160002060020154905081600960008581526020019081526020016000206006018190555060006009600085815260200190815260200160002060070160006101000a81548160ff021916908315150217905550306009600085815260200190815260200160002060050160006101000a81548173ffffffffffffffffffffffffffffffffffffffff021916908373ffffffffffffffffffffffffffffffffffffffff160217905550336009600085815260200190815260200160002060040160006101000a81548173ffffffffffffffffffffffffffffffffffffffff021916908373ffffffffffffffffffffffffffffffffffffffff1602179055508373ffffffffffffffffffffffffffffffffffffffff166323b872dd3330846040518463ffffffff1660e01b81526004016120a093929190612e7c565b600060405180830381600087803b1580156120ba57600080fd5b505af11580156120ce573d6000803e3d6000fd5b50505050808473ffffffffffffffffffffffffffffffffffffffff16847fc99151f4453170a67bc7441775fde1a3bc3220c06645df1121e703aab5e7da5d303387600080604051612123959493929190612df2565b60405180910390a4612135600361258c565b506001600081905550505050565b600460009054906101000a900473ffffffffffffffffffffffffffffffffffffffff1681565b600260005414156121af576040517f08c379a00000000000000000000000000000000000000000000000000000000081526004016121a690613015565b60405180910390fd5b6002600081905550600081116121fa576040517f08c379a00000000000000000000000000000000000000000000000000000000081526004016121f190613035565b60405180910390fd5b600554341461223e576040517f08c379a000000000000000000000000000000000000000000000000000000000815260040161223590612f55565b60405180910390fd5b6000600960008481526020019081526020016000206002015490506102584261226791906131f2565b6007600083815260200190815260200160002060010181905550426007600083815260200190815260200160002060020181905550816007600083815260200190815260200160002060000181905550336007600083815260200190815260200160002060070160006101000a81548173ffffffffffffffffffffffffffffffffffffffff021916908373ffffffffffffffffffffffffffffffffffffffff16021790555060006007600083815260200190815260200160002060030160006101000a81548160ff021916908315150217905550336009600085815260200190815260200160002060040160006101000a81548173ffffffffffffffffffffffffffffffffffffffff021916908373ffffffffffffffffffffffffffffffffffffffff160217905550306009600085815260200190815260200160002060050160006101000a81548173ffffffffffffffffffffffffffffffffffffffff021916908373ffffffffffffffffffffffffffffffffffffffff1602179055506000600960008581526020019081526020016000206006018190555060006009600085815260200190815260200160002060070160006101000a81548160ff02191690831515021790555060016009600085815260200190815260200160002060070160016101000a81548160ff0219169083151502179055508060096000858152602001908152602001600020600801819055508373ffffffffffffffffffffffffffffffffffffffff166323b872dd3330846040518463ffffffff1660e01b81526004016124b793929190612e7c565b600060405180830381600087803b1580156124d157600080fd5b505af11580156124e5573d6000803e3d6000fd5b505050506124f3600361258c565b506001600081905550505050565b6008602052816000526040600020818154811061251d57600080fd5b9060005260206000209060030201600091509150508060000160009054906101000a900473ffffffffffffffffffffffffffffffffffffffff16908060010154908060020154905083565b600081600001549050919050565b6001816000016000828254019250508190555050565b600081600001549050600081116125d8576040517f08c379a00000000000000000000000000000000000000000000000000000000081526004016125cf90612ed5565b60405180910390fd5b6001810382600001819055505050565b60405180610140016040528060008152602001600073ffffffffffffffffffffffffffffffffffffffff16815260200160008152602001600073ffffffffffffffffffffffffffffffffffffffff168152602001600073ffffffffffffffffffffffffffffffffffffffff168152602001600073ffffffffffffffffffffffffffffffffffffffff16815260200160008152602001600015158152602001600015158152602001600081525090565b50805460008255600302906000526020600020908101906126b891906126bb565b50565b5b8082111561270557600080820160006101000a81549073ffffffffffffffffffffffffffffffffffffffff021916905560018201600090556002820160009055506003016126bc565b5090565b60008135905061271881613384565b92915050565b60008135905061272d8161339b565b92915050565b600081359050612742816133b2565b92915050565b6000806040838503121561275b57600080fd5b600061276985828601612709565b925050602061277a85828601612733565b9150509250929050565b60008060006060848603121561279957600080fd5b60006127a786828701612709565b93505060206127b886828701612733565b92505060406127c986828701612733565b9150509250925092565b600080600080608085870312156127e957600080fd5b60006127f787828801612709565b945050602061280887828801612733565b935050604061281987828801612733565b925050606061282a8782880161271e565b91505092959194509250565b60006020828403121561284857600080fd5b600061285684828501612733565b91505092915050565b6000806040838503121561287257600080fd5b600061288085828601612733565b925050602061289185828601612733565b9150509250929050565b60006128a78383612ced565b6101408301905092915050565b6128bd816132d6565b82525050565b6128cc8161328e565b82525050565b6128db8161328e565b82525050565b6128ea8161327c565b82525050565b6128f98161327c565b82525050565b600061290a826131b8565b61291481856131d0565b935061291f836131a8565b8060005b83811015612950578151612937888261289b565b9750612942836131c3565b925050600181019050612923565b5085935050505092915050565b612966816132a0565b82525050565b612975816132a0565b82525050565b6000612988601b836131e1565b91507f436f756e7465723a2064656372656d656e74206f766572666c6f7700000000006000830152602082019050919050565b60006129c8600f836131e1565b91507f617574696f6e2066696e697368656400000000000000000000000000000000006000830152602082019050919050565b6000612a086007836131e1565b91507f616374696f6e20000000000000000000000000000000000000000000000000006000830152602082019050919050565b6000612a486023836131e1565b91507f6d67732e73656e646572206973206c6573737468616e2073746172696e67507260008301527f69636500000000000000000000000000000000000000000000000000000000006020830152604082019050919050565b6000612aae6021836131e1565b91507f76616c7565206d75737420657175616c20746f206c697374696e67207072696360008301527f65000000000000000000000000000000000000000000000000000000000000006020830152604082019050919050565b6000612b146010836131e1565b91507f796f7520616c72656179206269646564000000000000000000000000000000006000830152602082019050919050565b6000612b546038836131e1565b91507f746f20636f6d706c69742074686973207472616e73616374696f6e20796f752060008301527f73686f756c6420686176652061736b696e6720707269636500000000000000006020830152604082019050919050565b6000612bba6011836131e1565b91507f54696d65206e6f742065787061697265640000000000000000000000000000006000830152602082019050919050565b6000612bfa6017836131e1565b91507f73656c6c65722063616e206f6e6c7920617070726f76650000000000000000006000830152602082019050919050565b6000612c3a6010836131e1565b91507f4249442054696d652065787061697265000000000000000000000000000000006000830152602082019050919050565b6000612c7a601f836131e1565b91507f5265656e7472616e637947756172643a207265656e7472616e742063616c6c006000830152602082019050919050565b6000612cba601d836131e1565b91507f7072696365206d757374206265206772617465727468616e207a65726f0000006000830152602082019050919050565b61014082016000820151612d046000850182612db9565b506020820151612d1760208501826128e1565b506040820151612d2a6040850182612db9565b506060820151612d3d60608501826128c3565b506080820151612d5060808501826128c3565b5060a0820151612d6360a08501826128c3565b5060c0820151612d7660c0850182612db9565b5060e0820151612d8960e085018261295d565b50610100820151612d9e61010085018261295d565b50610120820151612db3610120850182612db9565b50505050565b612dc2816132cc565b82525050565b612dd1816132cc565b82525050565b6000602082019050612dec60008301846128d2565b92915050565b600060a082019050612e0760008301886128b4565b612e1460208301876128b4565b612e216040830186612dc8565b612e2e606083018561296c565b612e3b608083018461296c565b9695505050505050565b6000606082019050612e5a60008301866128d2565b612e676020830185612dc8565b612e746040830184612dc8565b949350505050565b6000606082019050612e9160008301866128f0565b612e9e60208301856128f0565b612eab6040830184612dc8565b949350505050565b60006020820190508181036000830152612ecd81846128ff565b905092915050565b60006020820190508181036000830152612eee8161297b565b9050919050565b60006020820190508181036000830152612f0e816129bb565b9050919050565b60006020820190508181036000830152612f2e816129fb565b9050919050565b60006020820190508181036000830152612f4e81612a3b565b9050919050565b60006020820190508181036000830152612f6e81612aa1565b9050919050565b60006020820190508181036000830152612f8e81612b07565b9050919050565b60006020820190508181036000830152612fae81612b47565b9050919050565b60006020820190508181036000830152612fce81612bad565b9050919050565b60006020820190508181036000830152612fee81612bed565b9050919050565b6000602082019050818103600083015261300e81612c2d565b9050919050565b6000602082019050818103600083015261302e81612c6d565b9050919050565b6000602082019050818103600083015261304e81612cad565b9050919050565b600060208201905061306a6000830184612dc8565b92915050565b600061014082019050613086600083018d612dc8565b613093602083018c6128f0565b6130a0604083018b612dc8565b6130ad606083018a6128d2565b6130ba60808301896128d2565b6130c760a08301886128d2565b6130d460c0830187612dc8565b6130e160e083018661296c565b6130ef61010083018561296c565b6130fd610120830184612dc8565b9b9a5050505050505050505050565b600061014082019050613122600083018d612dc8565b61312f602083018c612dc8565b61313c604083018b612dc8565b613149606083018a61296c565b6131566080830189612dc8565b61316360a0830188612dc8565b61317060c08301876128f0565b61317d60e08301866128f0565b61318b610100830185612dc8565b613199610120830184612dc8565b9b9a5050505050505050505050565b6000819050602082019050919050565b600081519050919050565b6000602082019050919050565b600082825260208201905092915050565b600082825260208201905092915050565b60006131fd826132cc565b9150613208836132cc565b9250827fffffffffffffffffffffffffffffffffffffffffffffffffffffffffffffffff0382111561323d5761323c613355565b5b828201905092915050565b6000613253826132cc565b915061325e836132cc565b92508282101561327157613270613355565b5b828203905092915050565b6000613287826132ac565b9050919050565b6000613299826132ac565b9050919050565b60008115159050919050565b600073ffffffffffffffffffffffffffffffffffffffff82169050919050565b6000819050919050565b60006132e1826132e8565b9050919050565b60006132f3826132fa565b9050919050565b6000613305826132ac565b9050919050565b6000613317826132cc565b91507fffffffffffffffffffffffffffffffffffffffffffffffffffffffffffffffff82141561334a57613349613355565b5b600182019050919050565b7f4e487b7100000000000000000000000000000000000000000000000000000000600052601160045260246000fd5b61338d8161327c565b811461339857600080fd5b50565b6133a4816132a0565b81146133af57600080fd5b50565b6133bb816132cc565b81146133c657600080fd5b5056fea26469706673582212207fa29ac01ae7ebfaf0dd217af48b8e90a2bd9b2e73d147be31d49dc7a4352a4164736f6c63430008000033",
  "immutableReferences": {},
  "source": "// SPDX-License-Identifier: MIT\npragma solidity >=0.4.22 <0.9.0;\n\nimport \"@openzeppelin/contracts/token/ERC721/ERC721.sol\";\nimport \"@openzeppelin/contracts/utils/Counters.sol\";\nimport \"@openzeppelin/contracts/security/ReentrancyGuard.sol\";\n\ncontract NFTmarketplace is ReentrancyGuard {\n    using Counters for Counters.Counter;\n    Counters.Counter private _itemIds;\n    Counters.Counter private _auctionId;\n    Counters.Counter private _itemSold;\n\n    address payable public owner;\n    uint listingPrice = 0.025 ether;\n    uint public duration = 1 days;\n\n    constructor(){\n    owner = payable(msg.sender) ;\n    }\n\n    struct Bidder {\n        address payable addr;\n        uint amount;\n        uint bitAt;\n    }\n\n    struct Auction {\n        uint staringPrice;\n        uint duration;\n        uint auctiontime;\n        bool finished;\n        uint amount;\n        uint highestPrice;\n        address highestBidder; \n        address seller;\n        uint bidderCount;       \n        uint bidderId;\n    }\n     struct MarketItem{\n        uint itemId;\n        address nftContracts;\n        uint tokenId;\n        address payable minter;\n        address payable seller;\n        address payable owner;\n        uint price;\n        bool sold;\n        bool auction;\n        uint auctionId;\n    }\n\n    mapping(uint => Auction) public auctions;\n    mapping(uint => Bidder []) public bidders;\n    mapping(uint => MarketItem) public idMarketItem;\n\n    event MarketItemCreated(\n        uint indexed itemId,\n        address indexed nftContracts,\n        uint indexed tokenId,\n        address  seller,\n        address owner,\n        uint price,\n        bool sold,\n        bool auction\n    );\n    \n\n    function getListingPrice() public view returns(uint){\n        return listingPrice;\n    }\n    function marketItemCont() public view returns(uint){\n       uint newItemId = _itemIds.current();\n        return newItemId;\n    }\n\n    function createMarketplace(address nftContract, uint tokenId, uint price, bool _auction) public payable nonReentrant {\n        require(price > 0 , \"price must be graterthan zero\");\n        require(msg.value == listingPrice, \"value must equal to listing price\");\n\n        _itemIds.increment();\n        uint newItemId = _itemIds.current();\n\n        idMarketItem[newItemId].itemId = newItemId;\n        idMarketItem[newItemId].nftContracts = nftContract;\n        idMarketItem[newItemId].tokenId = tokenId;\n        idMarketItem[newItemId].minter = payable(msg.sender);\n        idMarketItem[newItemId].seller = payable(msg.sender);\n        idMarketItem[newItemId].owner = payable (address(this)) ;\n        idMarketItem[newItemId].sold = false;\n        if(_auction == true){\n          idMarketItem[newItemId].price = 0;\n          idMarketItem[newItemId].auction = true;\n          auctions[tokenId].duration = block.timestamp + (10 * 1 minutes);\n          auctions[tokenId].auctiontime = block.timestamp;\n          auctions[tokenId].staringPrice = price;\n          auctions[tokenId].finished = false;\n          auctions[tokenId].seller = msg.sender;\n           auctions[tokenId].highestBidder = msg.sender;\n          idMarketItem[newItemId].auctionId = tokenId;\n         }else{\n          idMarketItem[newItemId].price = price;\n          idMarketItem[newItemId].auction = false;\n         }\n        IERC721(nftContract).transferFrom(msg.sender, address(this), tokenId);\n        emit MarketItemCreated(\n            newItemId,\n            nftContract,\n            tokenId,\n            payable(address(0)),\n            payable(msg.sender),\n            price,\n            false,\n            false\n        );\n    }\n\n    function sellMarketplace(address nftContract, uint Id, uint price) public payable nonReentrant {\n      require(price > 0 , \"price must be graterthan zero\");\n      require(msg.value >= listingPrice, \"value must equal to listing price\");\n\n      uint tokenId = idMarketItem[Id].tokenId;\n      idMarketItem[Id].price = price;\n      idMarketItem[Id].sold = false;\n      idMarketItem[Id].owner = payable(address(this));\n      idMarketItem[Id].seller = payable(msg.sender);\n\n      IERC721(nftContract).transferFrom(msg.sender, address(this), tokenId);\n      emit MarketItemCreated(\n            Id,\n            nftContract,\n            tokenId,\n            payable(address(this)),\n            payable(msg.sender),\n            price,\n            false,\n            false\n      );\n      _itemSold.decrement();\n    }\n\n    function creatMarketSales(address nftContract, uint ItemId) public payable nonReentrant{\n        uint price = idMarketItem[ItemId].price;\n        uint tokenId = idMarketItem[ItemId].tokenId;\n        require(msg.value == price, \"to complit this transaction you should have asking price\");\n        require(idMarketItem[ItemId].auction == false, \"action \");\n\n        idMarketItem[ItemId].seller.transfer(msg.value);\n        IERC721(nftContract).transferFrom(address(this), msg.sender, tokenId);\n        idMarketItem[ItemId].owner = payable(msg.sender);\n        idMarketItem[ItemId].sold = true;\n        _itemSold.increment();\n        payable(owner).transfer(listingPrice);\n    }\n    // auction\n    function createAuction(address nftContract,uint itemId,uint _staringPrice) public payable nonReentrant  {\n      require(_staringPrice > 0 , \"price must be graterthan zero\");\n      require(msg.value == listingPrice, \"value must equal to listing price\");\n\n      uint tokenId = idMarketItem[itemId].tokenId;\n      auctions[tokenId].duration = block.timestamp + (10 * 1 minutes);\n      auctions[tokenId].auctiontime = block.timestamp;\n      auctions[tokenId].staringPrice = _staringPrice;\n      auctions[tokenId].seller = msg.sender;\n      auctions[tokenId].finished = false;\n      idMarketItem[itemId].seller = payable(msg.sender);\n      idMarketItem[itemId].owner = payable (address(this)) ;\n      idMarketItem[itemId].price = 0;\n      idMarketItem[itemId].sold = false;\n      idMarketItem[itemId].auction = true;\n      idMarketItem[itemId].auctionId = tokenId;\n      IERC721(nftContract).transferFrom(msg.sender, address(this), tokenId);\n        _itemSold.decrement();\n\n    }\n\n    function bid (uint _tokenId) public payable {\n      require(block.timestamp  <= auctions[_tokenId].duration , \"BID Time expaire\");\n        for(uint i = 1; i<=auctions[_tokenId].bidderCount; i++ ){\n           require(msg.sender != bidders[_tokenId][i-1].addr, \"you alreay bided\");\n        }\n       \n        require(msg.value >= auctions[_tokenId].staringPrice,\"mgs.sender is lessthan staringPrice\" );\n        require(!auctions[_tokenId].finished, \"aution finished\");\n        \n        bidders[_tokenId].push(Bidder(payable(msg.sender), msg.value, block.timestamp));\n        auctions[_tokenId].bidderCount++;\n        auctions[_tokenId].bidderId = _tokenId;\n        auctions[_tokenId].amount += msg.value;\n        if(msg.value >= auctions[_tokenId].highestPrice){\n          auctions[_tokenId].highestPrice = msg.value;\n          auctions[_tokenId].highestBidder = msg.sender;\n        }\n        // emit AuctionBidden(_tokenId, msg.sender, msg.value);\n    }\n\n    function finish(address nftContract, uint _tokenId) public {\n      require(idMarketItem[_tokenId].seller == msg.sender, \"seller can only approve\");\n      require( block.timestamp  >= auctions[_tokenId].duration, \"Time not expaired\");\n      require(idMarketItem[_tokenId].auction == true, \"action \");\n        for (uint i = 0; i < bidders[_tokenId].length - 1; i++) {\n          if( bidders[_tokenId][i].addr != auctions[_tokenId].highestBidder){\n              uint amount = bidders[_tokenId][i].amount;\n              bidders[_tokenId][i].addr.transfer(amount);\n          }\n        }\n        delete bidders[_tokenId];\n        address bidder = auctions[_tokenId].highestBidder;\n        idMarketItem[_tokenId].owner = payable(bidder);\n        idMarketItem[_tokenId].sold = true;\n        auctions[_tokenId].finished = true;\n        _itemSold.increment();\n        IERC721(nftContract).transferFrom(address(this), bidder, _tokenId);\n        // emit AuctionFinished(_tokenId, awarder.addr);\n    }\n\n\n    function fetchMarketItems() public view returns (MarketItem[] memory) {\n      uint itemCount = _itemIds.current();\n      uint unsoldItemCount = _itemIds.current() - _itemSold.current();\n      uint currentIndex = 0;\n      MarketItem[] memory items = new MarketItem[](unsoldItemCount);\n      for (uint i = 0; i < itemCount; i++) {\n        if (idMarketItem[i + 1].sold == false) {\n          uint currentId = i + 1;\n          MarketItem storage currentItem = idMarketItem[currentId];\n          items[currentIndex] = currentItem;\n          currentIndex += 1;\n        }\n      }\n      return items;\n    }\n\n    function fetchMyNFTs() public view returns (MarketItem[] memory) {\n      uint totalItemCount = _itemIds.current();\n      uint itemCount = 0;\n      uint currentIndex = 0;\n\n      for (uint i = 0; i < totalItemCount; i++) {\n        if (idMarketItem[i + 1].owner == msg.sender) {\n          itemCount += 1;\n        }\n      }\n\n      MarketItem[] memory items = new MarketItem[](itemCount);\n      for (uint i = 0; i < totalItemCount; i++) {\n        if (idMarketItem[i + 1].owner == msg.sender) {\n          uint currentId = i + 1;\n          MarketItem storage currentItem = idMarketItem[currentId];\n          items[currentIndex] = currentItem;\n          currentIndex += 1;\n        }\n      }\n      return items;\n    }\n\n}\n\n\n",
  "sourcePath": "/home/nisamdheen/sps/NFT_MARKETPLACE/contracts/NFTmarketplace.sol",
  "compiler": {
    "name": "solc",
    "version": "0.8.0+commit.c7dfd78e.Emscripten.clang"
  },
  "schemaVersion": "3.4.4",
  "updatedAt": "2022-02-07T05:21:25.684Z",
  "networkType": "ethereum",
  "devdoc": {
    "kind": "dev",
    "methods": {},
    "version": 1
  },
  "userdoc": {
    "kind": "user",
    "methods": {},
    "version": 1
  }
}